{
  "_format": "hh-sol-artifact-1",
  "contractName": "DirectTokenSaleUpgradeable",
  "sourceName": "contracts/DirectTokenSaleUpgradeable.sol",
  "abi": [
    {
      "inputs": [],
      "stateMutability": "nonpayable",
      "type": "constructor"
    },
    {
      "inputs": [
        {
          "internalType": "address",
          "name": "target",
          "type": "address"
        }
      ],
      "name": "AddressEmptyCode",
      "type": "error"
    },
    {
      "inputs": [],
      "name": "BelowMinimumPurchase",
      "type": "error"
    },
    {
      "inputs": [
        {
          "internalType": "address",
          "name": "implementation",
          "type": "address"
        }
      ],
      "name": "ERC1967InvalidImplementation",
      "type": "error"
    },
    {
      "inputs": [],
      "name": "ERC1967NonPayable",
      "type": "error"
    },
    {
      "inputs": [],
      "name": "EnforcedPause",
      "type": "error"
    },
    {
      "inputs": [],
      "name": "ExceedsWalletLimit",
      "type": "error"
    },
    {
      "inputs": [],
      "name": "ExpectedPause",
      "type": "error"
    },
    {
      "inputs": [],
      "name": "FailedCall",
      "type": "error"
    },
    {
      "inputs": [],
      "name": "InsufficientContractBalance",
      "type": "error"
    },
    {
      "inputs": [],
      "name": "InsufficientSupply",
      "type": "error"
    },
    {
      "inputs": [],
      "name": "InvalidAmount",
      "type": "error"
    },
    {
      "inputs": [],
      "name": "InvalidInitialization",
      "type": "error"
    },
    {
      "inputs": [],
      "name": "InvalidPrice",
      "type": "error"
    },
    {
      "inputs": [],
      "name": "InvalidPriceFeed",
      "type": "error"
    },
    {
      "inputs": [],
      "name": "NoFundsToWithdraw",
      "type": "error"
    },
    {
      "inputs": [],
      "name": "NotInitializing",
      "type": "error"
    },
    {
      "inputs": [
        {
          "internalType": "address",
          "name": "owner",
          "type": "address"
        }
      ],
      "name": "OwnableInvalidOwner",
      "type": "error"
    },
    {
      "inputs": [
        {
          "internalType": "address",
          "name": "account",
          "type": "address"
        }
      ],
      "name": "OwnableUnauthorizedAccount",
      "type": "error"
    },
    {
      "inputs": [],
      "name": "ReentrancyGuardReentrantCall",
      "type": "error"
    },
    {
      "inputs": [
        {
          "internalType": "address",
          "name": "token",
          "type": "address"
        }
      ],
      "name": "SafeERC20FailedOperation",
      "type": "error"
    },
    {
      "inputs": [],
      "name": "SaleEnded",
      "type": "error"
    },
    {
      "inputs": [],
      "name": "StalePrice",
      "type": "error"
    },
    {
      "inputs": [],
      "name": "TransferFailed",
      "type": "error"
    },
    {
      "inputs": [],
      "name": "UUPSUnauthorizedCallContext",
      "type": "error"
    },
    {
      "inputs": [
        {
          "internalType": "bytes32",
          "name": "slot",
          "type": "bytes32"
        }
      ],
      "name": "UUPSUnsupportedProxiableUUID",
      "type": "error"
    },
    {
      "anonymous": false,
      "inputs": [
        {
          "indexed": true,
          "internalType": "address",
          "name": "to",
          "type": "address"
        },
        {
          "indexed": false,
          "internalType": "uint256",
          "name": "ethAmount",
          "type": "uint256"
        },
        {
          "indexed": false,
          "internalType": "uint256",
          "name": "usdcAmount",
          "type": "uint256"
        }
      ],
      "name": "FundsWithdrawn",
      "type": "event"
    },
    {
      "anonymous": false,
      "inputs": [
        {
          "indexed": false,
          "internalType": "uint64",
          "name": "version",
          "type": "uint64"
        }
      ],
      "name": "Initialized",
      "type": "event"
    },
    {
      "anonymous": false,
      "inputs": [
        {
          "indexed": false,
          "internalType": "uint256",
          "name": "minPurchase",
          "type": "uint256"
        },
        {
          "indexed": false,
          "internalType": "uint256",
          "name": "maxPurchasePerWallet",
          "type": "uint256"
        }
      ],
      "name": "LimitsUpdated",
      "type": "event"
    },
    {
      "anonymous": false,
      "inputs": [
        {
          "indexed": true,
          "internalType": "address",
          "name": "previousOwner",
          "type": "address"
        },
        {
          "indexed": true,
          "internalType": "address",
          "name": "newOwner",
          "type": "address"
        }
      ],
      "name": "OwnershipTransferred",
      "type": "event"
    },
    {
      "anonymous": false,
      "inputs": [
        {
          "indexed": false,
          "internalType": "address",
          "name": "account",
          "type": "address"
        }
      ],
      "name": "Paused",
      "type": "event"
    },
    {
      "anonymous": false,
      "inputs": [
        {
          "indexed": true,
          "internalType": "address",
          "name": "oldFeed",
          "type": "address"
        },
        {
          "indexed": true,
          "internalType": "address",
          "name": "newFeed",
          "type": "address"
        }
      ],
      "name": "PriceFeedUpdated",
      "type": "event"
    },
    {
      "anonymous": false,
      "inputs": [
        {
          "indexed": false,
          "internalType": "uint256",
          "name": "oldPrice",
          "type": "uint256"
        },
        {
          "indexed": false,
          "internalType": "uint256",
          "name": "newPrice",
          "type": "uint256"
        }
      ],
      "name": "PriceUpdated",
      "type": "event"
    },
    {
      "anonymous": false,
      "inputs": [
        {
          "indexed": false,
          "internalType": "uint256",
          "name": "oldSpread",
          "type": "uint256"
        },
        {
          "indexed": false,
          "internalType": "uint256",
          "name": "newSpread",
          "type": "uint256"
        }
      ],
      "name": "SpreadUpdated",
      "type": "event"
    },
    {
      "anonymous": false,
      "inputs": [
        {
          "indexed": true,
          "internalType": "address",
          "name": "buyer",
          "type": "address"
        },
        {
          "indexed": false,
          "internalType": "uint256",
          "name": "ethAmount",
          "type": "uint256"
        },
        {
          "indexed": false,
          "internalType": "uint256",
          "name": "tokenAmount",
          "type": "uint256"
        },
        {
          "indexed": false,
          "internalType": "uint256",
          "name": "timestamp",
          "type": "uint256"
        }
      ],
      "name": "TokensPurchasedWithETH",
      "type": "event"
    },
    {
      "anonymous": false,
      "inputs": [
        {
          "indexed": true,
          "internalType": "address",
          "name": "buyer",
          "type": "address"
        },
        {
          "indexed": false,
          "internalType": "uint256",
          "name": "usdcAmount",
          "type": "uint256"
        },
        {
          "indexed": false,
          "internalType": "uint256",
          "name": "tokenAmount",
          "type": "uint256"
        },
        {
          "indexed": false,
          "internalType": "uint256",
          "name": "timestamp",
          "type": "uint256"
        }
      ],
      "name": "TokensPurchasedWithUSDC",
      "type": "event"
    },
    {
      "anonymous": false,
      "inputs": [
        {
          "indexed": true,
          "internalType": "address",
          "name": "seller",
          "type": "address"
        },
        {
          "indexed": false,
          "internalType": "uint256",
          "name": "tokenAmount",
          "type": "uint256"
        },
        {
          "indexed": false,
          "internalType": "uint256",
          "name": "ethAmount",
          "type": "uint256"
        },
        {
          "indexed": false,
          "internalType": "uint256",
          "name": "timestamp",
          "type": "uint256"
        }
      ],
      "name": "TokensSoldForETH",
      "type": "event"
    },
    {
      "anonymous": false,
      "inputs": [
        {
          "indexed": true,
          "internalType": "address",
          "name": "seller",
          "type": "address"
        },
        {
          "indexed": false,
          "internalType": "uint256",
          "name": "tokenAmount",
          "type": "uint256"
        },
        {
          "indexed": false,
          "internalType": "uint256",
          "name": "usdcAmount",
          "type": "uint256"
        },
        {
          "indexed": false,
          "internalType": "uint256",
          "name": "timestamp",
          "type": "uint256"
        }
      ],
      "name": "TokensSoldForUSDC",
      "type": "event"
    },
    {
      "anonymous": false,
      "inputs": [
        {
          "indexed": true,
          "internalType": "address",
          "name": "to",
          "type": "address"
        },
        {
          "indexed": false,
          "internalType": "uint256",
          "name": "amount",
          "type": "uint256"
        }
      ],
      "name": "TokensWithdrawn",
      "type": "event"
    },
    {
      "anonymous": false,
      "inputs": [
        {
          "indexed": false,
          "internalType": "uint256",
          "name": "oldSupply",
          "type": "uint256"
        },
        {
          "indexed": false,
          "internalType": "uint256",
          "name": "newSupply",
          "type": "uint256"
        }
      ],
      "name": "TotalSupplyUpdated",
      "type": "event"
    },
    {
      "anonymous": false,
      "inputs": [
        {
          "indexed": false,
          "internalType": "address",
          "name": "account",
          "type": "address"
        }
      ],
      "name": "Unpaused",
      "type": "event"
    },
    {
      "anonymous": false,
      "inputs": [
        {
          "indexed": true,
          "internalType": "address",
          "name": "implementation",
          "type": "address"
        }
      ],
      "name": "Upgraded",
      "type": "event"
    },
    {
      "inputs": [],
      "name": "UPGRADE_INTERFACE_VERSION",
      "outputs": [
        {
          "internalType": "string",
          "name": "",
          "type": "string"
        }
      ],
      "stateMutability": "view",
      "type": "function"
    },
    {
      "inputs": [],
      "name": "buyWithETH",
      "outputs": [],
      "stateMutability": "payable",
      "type": "function"
    },
    {
      "inputs": [
        {
          "internalType": "uint256",
          "name": "_usdcAmount",
          "type": "uint256"
        }
      ],
      "name": "buyWithUSDC",
      "outputs": [],
      "stateMutability": "nonpayable",
      "type": "function"
    },
    {
      "inputs": [
        {
          "internalType": "uint256",
          "name": "_tokenAmount",
          "type": "uint256"
        }
      ],
      "name": "calculateETHCost",
      "outputs": [
        {
          "internalType": "uint256",
          "name": "",
          "type": "uint256"
        }
      ],
      "stateMutability": "view",
      "type": "function"
    },
    {
      "inputs": [
        {
          "internalType": "uint256",
          "name": "_tokenAmount",
          "type": "uint256"
        }
      ],
      "name": "calculateETHForTokens",
      "outputs": [
        {
          "internalType": "uint256",
          "name": "",
          "type": "uint256"
        }
      ],
      "stateMutability": "view",
      "type": "function"
    },
    {
      "inputs": [
        {
          "internalType": "uint256",
          "name": "_ethAmount",
          "type": "uint256"
        }
      ],
      "name": "calculateTokensForETH",
      "outputs": [
        {
          "internalType": "uint256",
          "name": "",
          "type": "uint256"
        }
      ],
      "stateMutability": "view",
      "type": "function"
    },
    {
      "inputs": [
        {
          "internalType": "uint256",
          "name": "_usdcAmount",
          "type": "uint256"
        }
      ],
      "name": "calculateTokensForUSDC",
      "outputs": [
        {
          "internalType": "uint256",
          "name": "",
          "type": "uint256"
        }
      ],
      "stateMutability": "view",
      "type": "function"
    },
    {
      "inputs": [
        {
          "internalType": "uint256",
          "name": "_tokenAmount",
          "type": "uint256"
        }
      ],
      "name": "calculateUSDCCost",
      "outputs": [
        {
          "internalType": "uint256",
          "name": "",
          "type": "uint256"
        }
      ],
      "stateMutability": "view",
      "type": "function"
    },
    {
      "inputs": [
        {
          "internalType": "uint256",
          "name": "_tokenAmount",
          "type": "uint256"
        }
      ],
      "name": "calculateUSDCForTokens",
      "outputs": [
        {
          "internalType": "uint256",
          "name": "",
          "type": "uint256"
        }
      ],
      "stateMutability": "view",
      "type": "function"
    },
    {
      "inputs": [],
      "name": "ethUsdPriceFeed",
      "outputs": [
        {
          "internalType": "contract AggregatorV3Interface",
          "name": "",
          "type": "address"
        }
      ],
      "stateMutability": "view",
      "type": "function"
    },
    {
      "inputs": [],
      "name": "getBuyPrice",
      "outputs": [
        {
          "internalType": "uint256",
          "name": "usdcPrice",
          "type": "uint256"
        },
        {
          "internalType": "uint256",
          "name": "ethPrice",
          "type": "uint256"
        }
      ],
      "stateMutability": "view",
      "type": "function"
    },
    {
      "inputs": [],
      "name": "getETHToPulseRate",
      "outputs": [
        {
          "internalType": "uint256",
          "name": "pulsePerETH",
          "type": "uint256"
        },
        {
          "internalType": "uint256",
          "name": "ethPriceUSD",
          "type": "uint256"
        }
      ],
      "stateMutability": "view",
      "type": "function"
    },
    {
      "inputs": [],
      "name": "getLatestETHPrice",
      "outputs": [
        {
          "internalType": "uint256",
          "name": "",
          "type": "uint256"
        }
      ],
      "stateMutability": "view",
      "type": "function"
    },
    {
      "inputs": [],
      "name": "getSaleStats",
      "outputs": [
        {
          "internalType": "uint256",
          "name": "_tokensSold",
          "type": "uint256"
        },
        {
          "internalType": "uint256",
          "name": "_remainingSupply",
          "type": "uint256"
        },
        {
          "internalType": "uint256",
          "name": "_totalBuyers",
          "type": "uint256"
        },
        {
          "internalType": "uint256",
          "name": "_totalRaisedETH",
          "type": "uint256"
        },
        {
          "internalType": "uint256",
          "name": "_totalRaisedUSDC",
          "type": "uint256"
        }
      ],
      "stateMutability": "view",
      "type": "function"
    },
    {
      "inputs": [],
      "name": "getSellPrice",
      "outputs": [
        {
          "internalType": "uint256",
          "name": "usdcPrice",
          "type": "uint256"
        },
        {
          "internalType": "uint256",
          "name": "ethPrice",
          "type": "uint256"
        }
      ],
      "stateMutability": "view",
      "type": "function"
    },
    {
      "inputs": [
        {
          "internalType": "address",
          "name": "_pulseToken",
          "type": "address"
        },
        {
          "internalType": "address",
          "name": "_usdcToken",
          "type": "address"
        },
        {
          "internalType": "address",
          "name": "_ethUsdPriceFeed",
          "type": "address"
        }
      ],
      "name": "initialize",
      "outputs": [],
      "stateMutability": "nonpayable",
      "type": "function"
    },
    {
      "inputs": [],
      "name": "isSaleActive",
      "outputs": [
        {
          "internalType": "bool",
          "name": "",
          "type": "bool"
        }
      ],
      "stateMutability": "view",
      "type": "function"
    },
    {
      "inputs": [],
      "name": "maxPurchasePerWallet",
      "outputs": [
        {
          "internalType": "uint256",
          "name": "",
          "type": "uint256"
        }
      ],
      "stateMutability": "view",
      "type": "function"
    },
    {
      "inputs": [],
      "name": "minPurchase",
      "outputs": [
        {
          "internalType": "uint256",
          "name": "",
          "type": "uint256"
        }
      ],
      "stateMutability": "view",
      "type": "function"
    },
    {
      "inputs": [],
      "name": "owner",
      "outputs": [
        {
          "internalType": "address",
          "name": "",
          "type": "address"
        }
      ],
      "stateMutability": "view",
      "type": "function"
    },
    {
      "inputs": [],
      "name": "pause",
      "outputs": [],
      "stateMutability": "nonpayable",
      "type": "function"
    },
    {
      "inputs": [],
      "name": "paused",
      "outputs": [
        {
          "internalType": "bool",
          "name": "",
          "type": "bool"
        }
      ],
      "stateMutability": "view",
      "type": "function"
    },
    {
      "inputs": [],
      "name": "proxiableUUID",
      "outputs": [
        {
          "internalType": "bytes32",
          "name": "",
          "type": "bytes32"
        }
      ],
      "stateMutability": "view",
      "type": "function"
    },
    {
      "inputs": [],
      "name": "pulseToken",
      "outputs": [
        {
          "internalType": "contract IERC20",
          "name": "",
          "type": "address"
        }
      ],
      "stateMutability": "view",
      "type": "function"
    },
    {
      "inputs": [
        {
          "internalType": "address",
          "name": "",
          "type": "address"
        }
      ],
      "name": "purchasedAmount",
      "outputs": [
        {
          "internalType": "uint256",
          "name": "",
          "type": "uint256"
        }
      ],
      "stateMutability": "view",
      "type": "function"
    },
    {
      "inputs": [
        {
          "internalType": "address",
          "name": "_wallet",
          "type": "address"
        }
      ],
      "name": "remainingAllowance",
      "outputs": [
        {
          "internalType": "uint256",
          "name": "",
          "type": "uint256"
        }
      ],
      "stateMutability": "view",
      "type": "function"
    },
    {
      "inputs": [],
      "name": "remainingSupply",
      "outputs": [
        {
          "internalType": "uint256",
          "name": "",
          "type": "uint256"
        }
      ],
      "stateMutability": "view",
      "type": "function"
    },
    {
      "inputs": [],
      "name": "renounceOwnership",
      "outputs": [],
      "stateMutability": "nonpayable",
      "type": "function"
    },
    {
      "inputs": [
        {
          "internalType": "uint256",
          "name": "_tokenAmount",
          "type": "uint256"
        }
      ],
      "name": "sellForETH",
      "outputs": [],
      "stateMutability": "nonpayable",
      "type": "function"
    },
    {
      "inputs": [
        {
          "internalType": "uint256",
          "name": "_tokenAmount",
          "type": "uint256"
        }
      ],
      "name": "sellForUSDC",
      "outputs": [],
      "stateMutability": "nonpayable",
      "type": "function"
    },
    {
      "inputs": [
        {
          "internalType": "address",
          "name": "_newPriceFeed",
          "type": "address"
        }
      ],
      "name": "setPriceFeed",
      "outputs": [],
      "stateMutability": "nonpayable",
      "type": "function"
    },
    {
      "inputs": [
        {
          "internalType": "uint256",
          "name": "_minPurchase",
          "type": "uint256"
        },
        {
          "internalType": "uint256",
          "name": "_maxPurchasePerWallet",
          "type": "uint256"
        }
      ],
      "name": "setPurchaseLimits",
      "outputs": [],
      "stateMutability": "nonpayable",
      "type": "function"
    },
    {
      "inputs": [
        {
          "internalType": "uint256",
          "name": "_newSpreadBasisPoints",
          "type": "uint256"
        }
      ],
      "name": "setSwapSpread",
      "outputs": [],
      "stateMutability": "nonpayable",
      "type": "function"
    },
    {
      "inputs": [
        {
          "internalType": "uint256",
          "name": "_newPriceUSDC",
          "type": "uint256"
        }
      ],
      "name": "setTokenPrice",
      "outputs": [],
      "stateMutability": "nonpayable",
      "type": "function"
    },
    {
      "inputs": [
        {
          "internalType": "uint256",
          "name": "_newTotalSupply",
          "type": "uint256"
        }
      ],
      "name": "setTotalSupply",
      "outputs": [],
      "stateMutability": "nonpayable",
      "type": "function"
    },
    {
      "inputs": [],
      "name": "swapSpreadBasisPoints",
      "outputs": [
        {
          "internalType": "uint256",
          "name": "",
          "type": "uint256"
        }
      ],
      "stateMutability": "view",
      "type": "function"
    },
    {
      "inputs": [],
      "name": "tokenPriceUSDC",
      "outputs": [
        {
          "internalType": "uint256",
          "name": "",
          "type": "uint256"
        }
      ],
      "stateMutability": "view",
      "type": "function"
    },
    {
      "inputs": [],
      "name": "tokensSold",
      "outputs": [
        {
          "internalType": "uint256",
          "name": "",
          "type": "uint256"
        }
      ],
      "stateMutability": "view",
      "type": "function"
    },
    {
      "inputs": [],
      "name": "totalBuyers",
      "outputs": [
        {
          "internalType": "uint256",
          "name": "",
          "type": "uint256"
        }
      ],
      "stateMutability": "view",
      "type": "function"
    },
    {
      "inputs": [],
      "name": "totalRaisedETH",
      "outputs": [
        {
          "internalType": "uint256",
          "name": "",
          "type": "uint256"
        }
      ],
      "stateMutability": "view",
      "type": "function"
    },
    {
      "inputs": [],
      "name": "totalRaisedUSDC",
      "outputs": [
        {
          "internalType": "uint256",
          "name": "",
          "type": "uint256"
        }
      ],
      "stateMutability": "view",
      "type": "function"
    },
    {
      "inputs": [],
      "name": "totalSoldETH",
      "outputs": [
        {
          "internalType": "uint256",
          "name": "",
          "type": "uint256"
        }
      ],
      "stateMutability": "view",
      "type": "function"
    },
    {
      "inputs": [],
      "name": "totalSoldUSDC",
      "outputs": [
        {
          "internalType": "uint256",
          "name": "",
          "type": "uint256"
        }
      ],
      "stateMutability": "view",
      "type": "function"
    },
    {
      "inputs": [],
      "name": "totalSupply",
      "outputs": [
        {
          "internalType": "uint256",
          "name": "",
          "type": "uint256"
        }
      ],
      "stateMutability": "view",
      "type": "function"
    },
    {
      "inputs": [
        {
          "internalType": "address",
          "name": "newOwner",
          "type": "address"
        }
      ],
      "name": "transferOwnership",
      "outputs": [],
      "stateMutability": "nonpayable",
      "type": "function"
    },
    {
      "inputs": [],
      "name": "unpause",
      "outputs": [],
      "stateMutability": "nonpayable",
      "type": "function"
    },
    {
      "inputs": [
        {
          "internalType": "address",
          "name": "newImplementation",
          "type": "address"
        },
        {
          "internalType": "bytes",
          "name": "data",
          "type": "bytes"
        }
      ],
      "name": "upgradeToAndCall",
      "outputs": [],
      "stateMutability": "payable",
      "type": "function"
    },
    {
      "inputs": [],
      "name": "usdcToken",
      "outputs": [
        {
          "internalType": "contract IERC20",
          "name": "",
          "type": "address"
        }
      ],
      "stateMutability": "view",
      "type": "function"
    },
    {
      "inputs": [
        {
          "internalType": "address",
          "name": "_to",
          "type": "address"
        }
      ],
      "name": "withdrawFunds",
      "outputs": [],
      "stateMutability": "nonpayable",
      "type": "function"
    },
    {
      "inputs": [
        {
          "internalType": "address",
          "name": "_to",
          "type": "address"
        },
        {
          "internalType": "uint256",
          "name": "_amount",
          "type": "uint256"
        }
      ],
      "name": "withdrawTokens",
      "outputs": [],
      "stateMutability": "nonpayable",
      "type": "function"
    },
    {
      "stateMutability": "payable",
      "type": "receive"
    }
  ],
  "bytecode": "0x60a080604052346100cc57306080527ff0c57e16840df040f15088dc2f81fe391c3923bec73e23a9662efc9c229c6a009081549060ff8260401c166100bd57506001600160401b036002600160401b031982821601610078575b60405161201790816100d2823960805181818161101201526111000152f35b6001600160401b031990911681179091556040519081527fc7f505b2f371ae2175ee4913f4499e1f2633a7b5936321eed1cdaeb6115181d290602090a1388080610059565b63f92ee8a960e01b8152600490fd5b600080fdfe60406080815260049081361015610020575b5050361561001e57600080fd5b005b600091823560e01c908163018a25e81461184d57816306b091f91461172c57816311eac85514611703578163136ea674146116b9578163150d283d146115fd57816318160ddd146115df5781631ed8223d146115c057816333b5b62e146115a1578163349dfd44146114d0578163357f8c181461146f5781633abd0136146114505781633d529c4a146114115781633f4ba83a1461139957816342f6fb291461137057816343d32e9c146112d357816344c4dcc11461129b5781634f1ef28614611083578163518ab2a81461106457816352d1902d14610ffd578163564566a814610fb45781635b0fc6e814610f8c5781635c975abb14610f5b5781636380009214610f3c57816368742da614610df45781636a61e5fc14610d89578163715018a614610d31578163724e78da14610cb0578163756de1dd14610c7b578163777e0d8614610c5e578163819e5f0614610b215781638456cb5914610ab95781638715884d14610a5c5781638da5cb5b14610a265781639a78bf6e14610a06578163a6000749146109cd578163ad3cb1cc1461092f578163aeccf73514610839578163be30f0a61461075c578163c0c53b8b146104c4578163ce14646c1461042a578163da0239a614610407578163e39edaf5146103e7578163e4134701146103c8578163f02cbb95146103a9578163f24133651461038a578163f2fde38b1461035a578163f357df6d1461032d578163f71e4bef1461030e578163f7ea7a3d14610270575063f9762fc203610011573461026c578160031936011261026c576020906008549051908152f35b5080fd5b83833461026c57602036600319011261026c5782359261028e611bf3565b60055484106102cd57837fd847752640337969f783ba291f56251d6165ba92dd3d27984ad0f81995aef0b693948254925582519182526020820152a180f35b6020606492519162461bcd60e51b8352820152601c60248201527b10d85b9b9bdd081cd95d0818995b1bddc81d1bdad95b9cc81cdbdb1960221b6044820152fd5b50503461026c578160031936011261026c57602090600b549051908152f35b50503461026c57602036600319011261026c5760209061035361034e6118b4565b611bbf565b9051908152f35b8334610387576020366003190112610387576103846103776118b4565b61037f611bf3565b611b5d565b80f35b80fd5b50503461026c578160031936011261026c576020906003549051908152f35b50503461026c578160031936011261026c57602090600c549051908152f35b50503461026c578160031936011261026c57602090600d549051908152f35b828434610387576020366003190112610387575061035360209235611b23565b8284346103875780600319360112610387575061035360209254600554906119aa565b9050346104c05760203660031901126104c057803590610448611bf3565b6103e8821161048b5750907ff1dd40af50044c9e71928f1e31ac462e53f9af4cb0279ca9f29e9adff0218b9691600854908060085582519182526020820152a180f35b606490602084519162461bcd60e51b8352820152600f60248201526e0a6e0e4cac2c840e8dede40d0d2ced608b1b6044820152fd5b8280fd5b9050346104c05760603660031901126104c0576104df6118b4565b6024356001600160a01b03818116939092918490036107585760443583811680910361075457600080516020611fc28339815191529485549460ff86891c16159460018060401b0387169687158061074d575b60018099149081610743575b15908161073a575b5061072a576001600160401b03198116881789558661070f575b50169081156106d457801561069a57821561065a579069d3c21bcecceda100000093929161058c611e8f565b610594611e8f565b61059d33611b5d565b6105a5611e8f565b6105ad611e8f565b86600080516020611fa2833981519152556105c6611e8f565b6105ce611e8f565b60018060a01b031991828b5416178a558187541617865560025416176002556127106003555568056bc75e2d63100000600655690a968163f0a57b40000060075560fa60085561061c578380f35b815460ff60401b191690915590519081527fc7f505b2f371ae2175ee4913f4499e1f2633a7b5936321eed1cdaeb6115181d290602090a13880808380f35b875162461bcd60e51b8152602081860152601a602482015279496e76616c69642070726963652066656564206164647265737360301b6044820152606490fd5b875162461bcd60e51b81526020818601526014602482015273496e76616c69642055534443206164647265737360601b6044820152606490fd5b875162461bcd60e51b81526020818601526015602482015274496e76616c69642050554c5345206164647265737360581b6044820152606490fd5b6001600160481b0319166001600160401b0117885538610560565b895163f92ee8a960e01b81528690fd5b90501538610546565b303b15915061053e565b5086610532565b8680fd5b8580fd5b83833461026c578060031936011261026c5782356024359361077c611bf3565b81156107fb578185106107c357507f4d4981437d0211f9e6843eb024d9ada1fa3a99514d4343d4aece106dd11524bb9293816006558060075582519182526020820152a180f35b606490602084519162461bcd60e51b8352820152601260248201527126b0bc1036bab9ba103132901f1e9036b4b760711b6044820152fd5b606490602084519162461bcd60e51b8352820152601860248201527704d696e207075726368617365206d757374206265203e20360441b6044820152fd5b9050346104c05760203660031901126104c057803590610857611c7d565b61085f611cad565b811561092157670de0b6b3a7640000820290670de0b6b3a763ffff198383040161090e57507fe3f19b712ebd3d245563f0c0b0e914394fd51adcd0c524fa01ad9208f0878250916108b66108f6926003549061194c565b936108cf8260018060a01b036001541630903390611ddf565b6108d98533611cd8565b6108e582600c546119b7565b600c555191829133954291846119c4565b0390a26001600080516020611fa28339815191525580f35b634e487b7160e01b855260119052602484fd5b825163162908e360e11b8152fd5b9050346104c057826003193601126104c057815190818301906001600160401b038211838310176109ba5750825260058152602090640352e302e360dc1b6020820152825193849260208452825192836020860152825b8481106109a457505050828201840152601f01601f19168101030190f35b8181018301518882018801528795508201610986565b634e487b7160e01b855260419052602484fd5b82843461038757602036600319011261038757506103536109f060209335611b23565b6127106109ff60085483611923565b04906119aa565b828434610387576020366003190112610387575061035360209235611af7565b50503461026c578160031936011261026c57600080516020611f228339815191525490516001600160a01b039091168152602090f35b9050823461038757602036600319011261038757610a82610a7b611a1e565b8335611923565b91606483029280840460641490151715610aa6576020836305f5e100865191048152f35b634e487b7160e01b825260119052602490fd5b50503461026c578160031936011261026c5760207f62e78cea01bee320cd4e420270b5ea74000d11b0c9f74754ebdbfc544b05a25891610af7611bf3565b610aff611cad565b600080516020611f82833981519152805460ff1916600117905551338152a180f35b919050346104c05760203660031901126104c057813590610b40611c7d565b610b48611cad565b8115610c4f57610b5782611af7565b60015482516370a0823160e01b8152308187015291946001600160a01b039290916020908290602490829087165afa908115610c45579086918891610c10575b5010610c025750916108f691610be58585610bda857f89fcbb12f70d2d8dc3399776fbb46e553a3e1cf64b0c305173e4e64ebc53be09988b541630903390611ddf565b339060015416611c2c565b610bf185600e546119b7565b600e555191829133954291846119c4565b825163786e0a9960e01b8152fd5b9150506020813d602011610c3d575b81610c2c602093836118cf565b810103126107545785905138610b97565b3d9150610c1f565b84513d89823e3d90fd5b5163162908e360e11b81529050fd5b50503461026c578160031936011261026c57602090610353611a1e565b8284346103875760203660031901126103875750670de0b6b3a7640000610ca86020936003549035611923565b049051908152f35b9050346104c05760203660031901126104c057610ccb6118b4565b90610cd4611bf3565b6001600160a01b03918216928315610d24575050600280546001600160a01b031981168417909155167fa8abe0398416476db5b05737cd4da3b3cbde5012d978a6a6c3fd49d3217535368380a380f35b516352cc3f7d60e01b8152fd5b8334610387578060031936011261038757610d4a611bf3565b600080516020611f2283398151915280546001600160a01b0319811690915581906001600160a01b0316600080516020611f628339815191528280a380f35b9050346104c05760203660031901126104c057803590610da7611bf3565b8115610de75750907f945c1c4e99aa89f648fbfe3df471b916f719e16d960fcec0737d4d56bd69683891600354908060035582519182526020820152a180f35b825162bfc92160e01b8152fd5b83833461026c57602090816003193601126104c057610e116118b4565b93610e1a611bf3565b6001600160a01b0385811693602491610e3486151561196c565b47938282600154168751958680926370a0823160e01b825230868301525afa938415610f32578894610eff575b5084158080610ef7575b610ee85715610ec5575b50827ffbc3a599b784fe88772fc5abcc07223f64ca0b13acc341f4fb1e46bef0510eb496979881610eb0575b5050508351928352820152a280f35b610ebd9260015416611c2c565b878281610ea1565b87808080888d5af1610ed56119da565b50610e755785516312171d8360e31b8152fd5b5085516367e3990d60e01b8152fd5b508415610e6b565b9093508281813d8311610f2b575b610f1781836118cf565b81010312610f2757519289610e61565b8780fd5b503d610f0d565b86513d8a823e3d90fd5b50503461026c578160031936011261026c576020906007549051908152f35b50503461026c578160031936011261026c5760209060ff600080516020611f82833981519152541690519015158152f35b50503461026c578160031936011261026c57905490516001600160a01b039091168152602090f35b919050346104c057826003193601126104c0576020925060ff600080516020611f828339815191525416159182610fef575b50519015158152f35b600554905411915038610fe6565b828434610387578060031936011261038757507f00000000000000000000000000000000000000000000000000000000000000006001600160a01b031630036110575760209051600080516020611f428339815191528152f35b5163703e46dd60e11b8152fd5b50503461026c578160031936011261026c576020906005549051908152f35b918091506003193601126104c0576110996118b4565b60249390919084356001600160401b03811161026c573660238201121561026c5780850135936110c885611908565b6110d4855191826118cf565b85815260209586820193368a8383010111610758578186928b8a93018737830101526001600160a01b037f0000000000000000000000000000000000000000000000000000000000000000811630811490811561127f575b5061126f57611139611bf3565b85516352d1902d60e01b81529083169680828a818b5afa918291879361123f575b50506111765750505050505191634c9c8ce360e01b8352820152fd5b8689968992600080516020611f428339815191529081810361122a5750853b156112155780546001600160a01b0319168317905551869392917fbc7cd75a20ee27fd9adebab32041f755214dbc6bffa90cc0225b39da2e5c2d3b8580a28251156111f95750506111f59382915190845af46111ef6119da565b91611ebe565b5080f35b9350935050503461120957505080f35b63b398979f60e01b8152fd5b5051634c9c8ce360e01b815291820152859150fd5b848a91845191632a87526960e21b8352820152fd5b9080929350813d8311611268575b61125781836118cf565b81010312610758575190388061115a565b503d61124d565b855163703e46dd60e11b81528890fd5b905081600080516020611f42833981519152541614153861112c565b50503461026c57602036600319011261026c5760209181906001600160a01b036112c36118b4565b1681526009845220549051908152f35b8284346103875780600319360112610387576008546003546112fd61271091826109ff8583611923565b92611306611a1e565b9060648202918083046064149015171561135d57811561134a5750906109ff61133e93926a52b7d2dcc80cd2e4000000049283611923565b82519182526020820152f35b634e487b7160e01b815260128752602490fd5b634e487b7160e01b815260118752602490fd5b50503461026c578160031936011261026c5760025490516001600160a01b039091168152602090f35b9050346104c057826003193601126104c0576113b3611bf3565b600080516020611f828339815191529081549060ff821615611403575060ff19169055513381527f5db9ee0a495bf2e6ff9c91a7834c1ba4fdd244a5e8aa4e537bd38aeae4b073aa90602090a180f35b8351638dfc202b60e01b8152fd5b82843461038757602036600319011261038757670de0b6b3a7640000833581810294918115918604141715610aa657602083610353866003549061194c565b50503461026c578160031936011261026c57602090600a549051908152f35b9050823461038757806003193601126103875761148a611a1e565b90670de0b6b3a7640000928284029384048303610aa65768056bc75e2d6310000083029380850460641490151715610aa65750506305f5e1008351920482526020820152f35b919050346104c05760203660031901126104c0578135906114ef611c7d565b6114f7611cad565b8115610c4f576115096109f083611b23565b9283471061159357845461152b908490309033906001600160a01b0316611ddf565b8480808087335af161153b6119da565b501561158557507ffd161638ebd263afc4174d5b5a751270b1dae5b27d163e781dabb976db44e7e7916108f69161157485600d546119b7565b600d555191829133954291846119c4565b90516312171d8360e31b8152fd5b905163786e0a9960e01b8152fd5b50503461026c578160031936011261026c576020906006549051908152f35b50503461026c578160031936011261026c57602090600e549051908152f35b9050346104c057826003193601126104c05760209250549051908152f35b9050826003193601126104c057611612611c7d565b61161a611cad565b34156116ab5761163161162b611a1e565b34611923565b9060648202918083046064149015171561169857506305f5e1007fec6490c6ef89b23df34763d6ade6b4444edea66522e35ce0e085dde9891789ce9104916116798333611cd8565b61168534600b546119b7565b600b5551806108f63394429034846119c4565b634e487b7160e01b845260119052602483fd5b905163162908e360e11b8152fd5b919050346104c057826003193601126104c05760a092506116de6005548093546119aa565b90600a54600b5491600c54938151958652602086015284015260608301526080820152f35b50503461026c578160031936011261026c5760015490516001600160a01b039091168152602090f35b9050346104c057816003193601126104c0576117466118b4565b9160243590611753611bf3565b6001600160a01b03848116949061176b86151561196c565b8654168251946370a0823160e01b865230818701526020958681602481865afa908115611843578991611812575b5085116117d85750837f6352c5382c4a4578e712449ca65e83cdb392d045dfcf1cad9615189db2da244b959493926117d092611c2c565b51908152a280f35b835162461bcd60e51b81529081018690526014602482015273496e73756666696369656e742062616c616e636560601b6044820152606490fd5b90508681813d831161183c575b61182981836118cf565b81010312611838575138611799565b8880fd5b503d61181f565b85513d8b823e3d90fd5b8391503461026c578160031936011261026c576003549161186c611a1e565b91606483029280840460641490151715610aa65782156118a157505082519182526a52b7d2dcc80cd2e4000000046020820152f35b634e487b7160e01b825260129052602490fd5b600435906001600160a01b03821682036118ca57565b600080fd5b601f909101601f19168101906001600160401b038211908210176118f257604052565b634e487b7160e01b600052604160045260246000fd5b6001600160401b0381116118f257601f01601f191660200190565b8181029291811591840414171561193657565b634e487b7160e01b600052601160045260246000fd5b8115611956570490565b634e487b7160e01b600052601260045260246000fd5b1561197357565b60405162461bcd60e51b815260206004820152600f60248201526e496e76616c6964206164647265737360881b6044820152606490fd5b9190820391821161193657565b9190820180921161193657565b6040919493926060820195825260208201520152565b3d15611a05573d906119eb82611908565b916119f960405193846118cf565b82523d6000602084013e565b606090565b51906001600160501b03821682036118ca57565b600254604051633fabe5a360e21b81529060a090829060049082906001600160a01b03165afa8015611aeb576000918291611a96575b506000821315611a8557611a6b610e1091426119aa565b11611a735790565b604051630cd5fa0760e11b8152600490fd5b60405162bfc92160e01b8152600490fd5b91905060a0823d60a011611ae3575b81611ab260a093836118cf565b810103126103875750611ac481611a0a565b506020810151611adb608060608401519301611a0a565b509038611a54565b3d9150611aa5565b6040513d6000823e3d90fd5b670de0b6b3a7640000611b10611b209260035490611923565b046127106109ff60085483611923565b90565b611b2b611a1e565b6305f5e100918281029281840414901517156119365760648102908082046064149015171561193657611b209161194c565b6001600160a01b03908116908115611ba657600080516020611f2283398151915280546001600160a01b03198116841790915516600080516020611f62833981519152600080a3565b604051631e4fbdf760e01b815260006004820152602490fd5b6001600160a01b03166000908152600960205260409020546007549081811015611bec57611b20916119aa565b5050600090565b600080516020611f22833981519152546001600160a01b03163303611c1457565b60405163118cdaa760e01b8152336004820152602490fd5b60405163a9059cbb60e01b60208201526001600160a01b03909216602483015260448083019390935291815260808101916001600160401b038311828410176118f257611c7b92604052611e33565b565b600080516020611fa28339815191526002815414611c9b5760029055565b604051633ee5aeb560e01b8152600490fd5b60ff600080516020611f828339815191525416611cc657565b60405163d93c066560e01b8152600490fd5b91906005549260049384549081811015611dce576006548410611dbd5783611cff916119b7565b11611dac5760018060a01b038082166000908082526009602052611d278560408420546119b7565b906007548211611d9b578083526009602052604083205415611d6c575b611c7b969750825260096020526040822055611d62846005546119b7565b6005555416611c2c565b600a546000198114611d8857600101600a559596508695611d44565b634e487b7160e01b845260118952602484fd5b604051635107dbe760e01b81528890fd5b604051630cea840760e21b81528490fd5b60405163fcd2aaeb60e01b81528690fd5b604051630bd8a3eb60e01b81528690fd5b6040516323b872dd60e01b60208201526001600160a01b03928316602482015292909116604483015260648083019390935291815260a08101918183106001600160401b038411176118f257611c7b926040525b906000602091828151910182855af115611aeb576000513d611e8657506001600160a01b0381163b155b611e645750565b604051635274afe760e01b81526001600160a01b039091166004820152602490fd5b60011415611e5d565b60ff600080516020611fc28339815191525460401c1615611eac57565b604051631afcd79f60e31b8152600490fd5b90611ee55750805115611ed357602081519101fd5b60405163d6bda27560e01b8152600490fd5b81511580611f18575b611ef6575090565b604051639996b31560e01b81526001600160a01b039091166004820152602490fd5b50803b15611eee56fe9016d09d72d40fdae2fd8ceac6b6234c7706214fd39c1cd1e609a0528c199300360894a13ba1a3210667c828492db98dca3e2076cc3735a920a3ca505d382bbc8be0079c531659141344cd1fd0a4f28419497f9722a3daafe3b4186f6b6457e0cd5ed15c6e187e77e9aee88184c21f4f2182ab5827cb3b7e07fbedcd63f033009b779b17422d0df92223018b32b4d1fa46e071723d6817e2486d003becc55f00f0c57e16840df040f15088dc2f81fe391c3923bec73e23a9662efc9c229c6a00a2646970667358221220c7b444b9332d4c0c0e7f229a031a0951195677091992b136f1a24632ae5d319164736f6c63430008160033",
  "linkReferences": {},
  "deployedLinkReferences": {}
}