{
  "_format": "hh-sol-artifact-1",
  "contractName": "PollsContract",
  "sourceName": "contracts/PollsContract.sol",
  "abi": [
    {
      "inputs": [],
      "stateMutability": "nonpayable",
      "type": "constructor"
    },
    {
      "inputs": [
        {
          "internalType": "address",
          "name": "target",
          "type": "address"
        }
      ],
      "name": "AddressEmptyCode",
      "type": "error"
    },
    {
      "inputs": [
        {
          "internalType": "address",
          "name": "implementation",
          "type": "address"
        }
      ],
      "name": "ERC1967InvalidImplementation",
      "type": "error"
    },
    {
      "inputs": [],
      "name": "ERC1967NonPayable",
      "type": "error"
    },
    {
      "inputs": [],
      "name": "FailedCall",
      "type": "error"
    },
    {
      "inputs": [],
      "name": "InvalidInitialization",
      "type": "error"
    },
    {
      "inputs": [],
      "name": "NotInitializing",
      "type": "error"
    },
    {
      "inputs": [
        {
          "internalType": "address",
          "name": "owner",
          "type": "address"
        }
      ],
      "name": "OwnableInvalidOwner",
      "type": "error"
    },
    {
      "inputs": [
        {
          "internalType": "address",
          "name": "account",
          "type": "address"
        }
      ],
      "name": "OwnableUnauthorizedAccount",
      "type": "error"
    },
    {
      "inputs": [],
      "name": "ReentrancyGuardReentrantCall",
      "type": "error"
    },
    {
      "inputs": [
        {
          "internalType": "address",
          "name": "token",
          "type": "address"
        }
      ],
      "name": "SafeERC20FailedOperation",
      "type": "error"
    },
    {
      "inputs": [],
      "name": "UUPSUnauthorizedCallContext",
      "type": "error"
    },
    {
      "inputs": [
        {
          "internalType": "bytes32",
          "name": "slot",
          "type": "bytes32"
        }
      ],
      "name": "UUPSUnsupportedProxiableUUID",
      "type": "error"
    },
    {
      "anonymous": false,
      "inputs": [
        {
          "indexed": true,
          "internalType": "uint256",
          "name": "pollId",
          "type": "uint256"
        },
        {
          "indexed": false,
          "internalType": "enum PollsContract.DistributionMode",
          "name": "mode",
          "type": "uint8"
        },
        {
          "indexed": false,
          "internalType": "uint256",
          "name": "timestamp",
          "type": "uint256"
        }
      ],
      "name": "DistributionModeSet",
      "type": "event"
    },
    {
      "anonymous": false,
      "inputs": [
        {
          "indexed": true,
          "internalType": "uint256",
          "name": "pollId",
          "type": "uint256"
        },
        {
          "indexed": true,
          "internalType": "address",
          "name": "recipient",
          "type": "address"
        },
        {
          "indexed": false,
          "internalType": "address",
          "name": "token",
          "type": "address"
        },
        {
          "indexed": false,
          "internalType": "uint256",
          "name": "amount",
          "type": "uint256"
        }
      ],
      "name": "FundsWithdrawn",
      "type": "event"
    },
    {
      "anonymous": false,
      "inputs": [
        {
          "indexed": false,
          "internalType": "uint64",
          "name": "version",
          "type": "uint64"
        }
      ],
      "name": "Initialized",
      "type": "event"
    },
    {
      "anonymous": false,
      "inputs": [
        {
          "indexed": true,
          "internalType": "address",
          "name": "previousOwner",
          "type": "address"
        },
        {
          "indexed": true,
          "internalType": "address",
          "name": "newOwner",
          "type": "address"
        }
      ],
      "name": "OwnershipTransferred",
      "type": "event"
    },
    {
      "anonymous": false,
      "inputs": [
        {
          "indexed": true,
          "internalType": "uint256",
          "name": "pollId",
          "type": "uint256"
        },
        {
          "indexed": false,
          "internalType": "address",
          "name": "token",
          "type": "address"
        },
        {
          "indexed": false,
          "internalType": "uint256",
          "name": "amount",
          "type": "uint256"
        },
        {
          "indexed": false,
          "internalType": "address",
          "name": "treasury",
          "type": "address"
        }
      ],
      "name": "PlatformFeePaid",
      "type": "event"
    },
    {
      "anonymous": false,
      "inputs": [
        {
          "indexed": false,
          "internalType": "uint256",
          "name": "oldFee",
          "type": "uint256"
        },
        {
          "indexed": false,
          "internalType": "uint256",
          "name": "newFee",
          "type": "uint256"
        }
      ],
      "name": "PlatformFeeUpdated",
      "type": "event"
    },
    {
      "anonymous": false,
      "inputs": [
        {
          "indexed": true,
          "internalType": "address",
          "name": "oldTreasury",
          "type": "address"
        },
        {
          "indexed": true,
          "internalType": "address",
          "name": "newTreasury",
          "type": "address"
        }
      ],
      "name": "PlatformTreasuryUpdated",
      "type": "event"
    },
    {
      "anonymous": false,
      "inputs": [
        {
          "indexed": true,
          "internalType": "uint256",
          "name": "pollId",
          "type": "uint256"
        },
        {
          "indexed": true,
          "internalType": "address",
          "name": "creator",
          "type": "address"
        },
        {
          "indexed": false,
          "internalType": "string",
          "name": "question",
          "type": "string"
        },
        {
          "indexed": false,
          "internalType": "uint256",
          "name": "endTime",
          "type": "uint256"
        }
      ],
      "name": "PollCreated",
      "type": "event"
    },
    {
      "anonymous": false,
      "inputs": [
        {
          "indexed": true,
          "internalType": "uint256",
          "name": "pollId",
          "type": "uint256"
        },
        {
          "indexed": false,
          "internalType": "uint256",
          "name": "timestamp",
          "type": "uint256"
        }
      ],
      "name": "PollFinalized",
      "type": "event"
    },
    {
      "anonymous": false,
      "inputs": [
        {
          "indexed": true,
          "internalType": "uint256",
          "name": "pollId",
          "type": "uint256"
        },
        {
          "indexed": true,
          "internalType": "address",
          "name": "funder",
          "type": "address"
        },
        {
          "indexed": false,
          "internalType": "address",
          "name": "token",
          "type": "address"
        },
        {
          "indexed": false,
          "internalType": "uint256",
          "name": "amount",
          "type": "uint256"
        }
      ],
      "name": "PollFunded",
      "type": "event"
    },
    {
      "anonymous": false,
      "inputs": [
        {
          "indexed": true,
          "internalType": "uint256",
          "name": "pollId",
          "type": "uint256"
        },
        {
          "indexed": false,
          "internalType": "uint256",
          "name": "timestamp",
          "type": "uint256"
        }
      ],
      "name": "PollPaused",
      "type": "event"
    },
    {
      "anonymous": false,
      "inputs": [
        {
          "indexed": true,
          "internalType": "uint256",
          "name": "pollId",
          "type": "uint256"
        },
        {
          "indexed": false,
          "internalType": "uint256",
          "name": "timestamp",
          "type": "uint256"
        }
      ],
      "name": "PollPublished",
      "type": "event"
    },
    {
      "anonymous": false,
      "inputs": [
        {
          "indexed": true,
          "internalType": "uint256",
          "name": "pollId",
          "type": "uint256"
        },
        {
          "indexed": false,
          "internalType": "uint256",
          "name": "timestamp",
          "type": "uint256"
        }
      ],
      "name": "PollResumed",
      "type": "event"
    },
    {
      "anonymous": false,
      "inputs": [
        {
          "indexed": true,
          "internalType": "uint256",
          "name": "pollId",
          "type": "uint256"
        },
        {
          "indexed": true,
          "internalType": "enum PollsContract.PollStatus",
          "name": "oldStatus",
          "type": "uint8"
        },
        {
          "indexed": true,
          "internalType": "enum PollsContract.PollStatus",
          "name": "newStatus",
          "type": "uint8"
        },
        {
          "indexed": false,
          "internalType": "uint256",
          "name": "timestamp",
          "type": "uint256"
        }
      ],
      "name": "PollStatusChanged",
      "type": "event"
    },
    {
      "anonymous": false,
      "inputs": [
        {
          "indexed": true,
          "internalType": "address",
          "name": "oldContract",
          "type": "address"
        },
        {
          "indexed": true,
          "internalType": "address",
          "name": "newContract",
          "type": "address"
        }
      ],
      "name": "PremiumContractUpdated",
      "type": "event"
    },
    {
      "anonymous": false,
      "inputs": [
        {
          "indexed": true,
          "internalType": "address",
          "name": "oldToken",
          "type": "address"
        },
        {
          "indexed": true,
          "internalType": "address",
          "name": "newToken",
          "type": "address"
        }
      ],
      "name": "PulseTokenUpdated",
      "type": "event"
    },
    {
      "anonymous": false,
      "inputs": [
        {
          "indexed": true,
          "internalType": "address",
          "name": "oldTreasury",
          "type": "address"
        },
        {
          "indexed": true,
          "internalType": "address",
          "name": "newTreasury",
          "type": "address"
        }
      ],
      "name": "QuadraticVotingTreasuryUpdated",
      "type": "event"
    },
    {
      "anonymous": false,
      "inputs": [
        {
          "indexed": true,
          "internalType": "uint256",
          "name": "pollId",
          "type": "uint256"
        },
        {
          "indexed": true,
          "internalType": "address",
          "name": "claimer",
          "type": "address"
        },
        {
          "indexed": false,
          "internalType": "uint256",
          "name": "amount",
          "type": "uint256"
        },
        {
          "indexed": false,
          "internalType": "address",
          "name": "token",
          "type": "address"
        },
        {
          "indexed": false,
          "internalType": "uint256",
          "name": "timestamp",
          "type": "uint256"
        }
      ],
      "name": "RewardClaimed",
      "type": "event"
    },
    {
      "anonymous": false,
      "inputs": [
        {
          "indexed": true,
          "internalType": "uint256",
          "name": "pollId",
          "type": "uint256"
        },
        {
          "indexed": true,
          "internalType": "address",
          "name": "recipient",
          "type": "address"
        },
        {
          "indexed": false,
          "internalType": "uint256",
          "name": "amount",
          "type": "uint256"
        },
        {
          "indexed": false,
          "internalType": "address",
          "name": "token",
          "type": "address"
        },
        {
          "indexed": false,
          "internalType": "uint256",
          "name": "timestamp",
          "type": "uint256"
        }
      ],
      "name": "RewardDistributed",
      "type": "event"
    },
    {
      "anonymous": false,
      "inputs": [
        {
          "indexed": true,
          "internalType": "address",
          "name": "token",
          "type": "address"
        },
        {
          "indexed": false,
          "internalType": "bool",
          "name": "status",
          "type": "bool"
        }
      ],
      "name": "TokenWhitelisted",
      "type": "event"
    },
    {
      "anonymous": false,
      "inputs": [
        {
          "indexed": true,
          "internalType": "address",
          "name": "implementation",
          "type": "address"
        }
      ],
      "name": "Upgraded",
      "type": "event"
    },
    {
      "anonymous": false,
      "inputs": [
        {
          "indexed": true,
          "internalType": "uint256",
          "name": "pollId",
          "type": "uint256"
        },
        {
          "indexed": true,
          "internalType": "address",
          "name": "voter",
          "type": "address"
        },
        {
          "indexed": false,
          "internalType": "uint256",
          "name": "optionIndex",
          "type": "uint256"
        }
      ],
      "name": "Voted",
      "type": "event"
    },
    {
      "anonymous": false,
      "inputs": [
        {
          "indexed": true,
          "internalType": "uint256",
          "name": "pollId",
          "type": "uint256"
        },
        {
          "indexed": true,
          "internalType": "address",
          "name": "voter",
          "type": "address"
        },
        {
          "indexed": false,
          "internalType": "uint256",
          "name": "optionIndex",
          "type": "uint256"
        },
        {
          "indexed": false,
          "internalType": "uint256",
          "name": "numVotes",
          "type": "uint256"
        },
        {
          "indexed": false,
          "internalType": "uint256",
          "name": "cost",
          "type": "uint256"
        },
        {
          "indexed": false,
          "internalType": "uint256",
          "name": "timestamp",
          "type": "uint256"
        }
      ],
      "name": "VotesBought",
      "type": "event"
    },
    {
      "inputs": [],
      "name": "MAX_PLATFORM_FEE",
      "outputs": [
        {
          "internalType": "uint256",
          "name": "",
          "type": "uint256"
        }
      ],
      "stateMutability": "view",
      "type": "function"
    },
    {
      "inputs": [],
      "name": "MAX_POLL_DURATION",
      "outputs": [
        {
          "internalType": "uint256",
          "name": "",
          "type": "uint256"
        }
      ],
      "stateMutability": "view",
      "type": "function"
    },
    {
      "inputs": [],
      "name": "MIN_POLL_DURATION",
      "outputs": [
        {
          "internalType": "uint256",
          "name": "",
          "type": "uint256"
        }
      ],
      "stateMutability": "view",
      "type": "function"
    },
    {
      "inputs": [],
      "name": "UPGRADE_INTERFACE_VERSION",
      "outputs": [
        {
          "internalType": "string",
          "name": "",
          "type": "string"
        }
      ],
      "stateMutability": "view",
      "type": "function"
    },
    {
      "inputs": [
        {
          "internalType": "uint256",
          "name": "pollId",
          "type": "uint256"
        },
        {
          "internalType": "uint256",
          "name": "optionIndex",
          "type": "uint256"
        },
        {
          "internalType": "uint256",
          "name": "numVotes",
          "type": "uint256"
        }
      ],
      "name": "buyVotes",
      "outputs": [],
      "stateMutability": "nonpayable",
      "type": "function"
    },
    {
      "inputs": [
        {
          "internalType": "uint256",
          "name": "amount",
          "type": "uint256"
        }
      ],
      "name": "calculatePlatformFee",
      "outputs": [
        {
          "internalType": "uint256",
          "name": "",
          "type": "uint256"
        }
      ],
      "stateMutability": "view",
      "type": "function"
    },
    {
      "inputs": [
        {
          "internalType": "uint256",
          "name": "currentVotes",
          "type": "uint256"
        },
        {
          "internalType": "uint256",
          "name": "additionalVotes",
          "type": "uint256"
        }
      ],
      "name": "calculateQuadraticCost",
      "outputs": [
        {
          "internalType": "uint256",
          "name": "",
          "type": "uint256"
        }
      ],
      "stateMutability": "pure",
      "type": "function"
    },
    {
      "inputs": [
        {
          "internalType": "uint256",
          "name": "pollId",
          "type": "uint256"
        }
      ],
      "name": "closePoll",
      "outputs": [],
      "stateMutability": "nonpayable",
      "type": "function"
    },
    {
      "inputs": [
        {
          "internalType": "string",
          "name": "question",
          "type": "string"
        },
        {
          "internalType": "string[]",
          "name": "options",
          "type": "string[]"
        },
        {
          "internalType": "uint256",
          "name": "duration",
          "type": "uint256"
        },
        {
          "internalType": "address",
          "name": "fundingToken",
          "type": "address"
        },
        {
          "internalType": "enum PollsContract.FundingType",
          "name": "fundingType",
          "type": "uint8"
        }
      ],
      "name": "createPoll",
      "outputs": [
        {
          "internalType": "uint256",
          "name": "",
          "type": "uint256"
        }
      ],
      "stateMutability": "nonpayable",
      "type": "function"
    },
    {
      "inputs": [
        {
          "internalType": "string",
          "name": "question",
          "type": "string"
        },
        {
          "internalType": "string[]",
          "name": "options",
          "type": "string[]"
        },
        {
          "internalType": "uint256",
          "name": "duration",
          "type": "uint256"
        },
        {
          "internalType": "address",
          "name": "fundingToken",
          "type": "address"
        },
        {
          "internalType": "enum PollsContract.FundingType",
          "name": "fundingType",
          "type": "uint8"
        },
        {
          "internalType": "enum PollsContract.VotingType",
          "name": "votingType",
          "type": "uint8"
        },
        {
          "internalType": "bool",
          "name": "publish",
          "type": "bool"
        },
        {
          "internalType": "uint256",
          "name": "fundingAmount",
          "type": "uint256"
        }
      ],
      "name": "createPollWithFundingAndPublish",
      "outputs": [
        {
          "internalType": "uint256",
          "name": "",
          "type": "uint256"
        }
      ],
      "stateMutability": "payable",
      "type": "function"
    },
    {
      "inputs": [
        {
          "internalType": "string",
          "name": "question",
          "type": "string"
        },
        {
          "internalType": "string[]",
          "name": "options",
          "type": "string[]"
        },
        {
          "internalType": "uint256",
          "name": "duration",
          "type": "uint256"
        },
        {
          "internalType": "address",
          "name": "fundingToken",
          "type": "address"
        },
        {
          "internalType": "enum PollsContract.FundingType",
          "name": "fundingType",
          "type": "uint8"
        },
        {
          "internalType": "enum PollsContract.VotingType",
          "name": "votingType",
          "type": "uint8"
        }
      ],
      "name": "createPollWithVotingType",
      "outputs": [
        {
          "internalType": "uint256",
          "name": "",
          "type": "uint256"
        }
      ],
      "stateMutability": "nonpayable",
      "type": "function"
    },
    {
      "inputs": [
        {
          "internalType": "string",
          "name": "question",
          "type": "string"
        },
        {
          "internalType": "string[]",
          "name": "options",
          "type": "string[]"
        },
        {
          "internalType": "uint256",
          "name": "duration",
          "type": "uint256"
        },
        {
          "internalType": "address",
          "name": "fundingToken",
          "type": "address"
        },
        {
          "internalType": "enum PollsContract.FundingType",
          "name": "fundingType",
          "type": "uint8"
        },
        {
          "internalType": "enum PollsContract.VotingType",
          "name": "votingType",
          "type": "uint8"
        },
        {
          "internalType": "bool",
          "name": "publish",
          "type": "bool"
        }
      ],
      "name": "createPollWithVotingTypeAndPublish",
      "outputs": [
        {
          "internalType": "uint256",
          "name": "",
          "type": "uint256"
        }
      ],
      "stateMutability": "nonpayable",
      "type": "function"
    },
    {
      "inputs": [
        {
          "internalType": "uint256",
          "name": "pollId",
          "type": "uint256"
        },
        {
          "internalType": "address",
          "name": "token",
          "type": "address"
        },
        {
          "internalType": "address[]",
          "name": "recipients",
          "type": "address[]"
        },
        {
          "internalType": "uint256[]",
          "name": "amounts",
          "type": "uint256[]"
        }
      ],
      "name": "distributeRewards",
      "outputs": [],
      "stateMutability": "nonpayable",
      "type": "function"
    },
    {
      "inputs": [
        {
          "internalType": "uint256",
          "name": "pollId",
          "type": "uint256"
        }
      ],
      "name": "finalizePoll",
      "outputs": [],
      "stateMutability": "nonpayable",
      "type": "function"
    },
    {
      "inputs": [
        {
          "internalType": "uint256",
          "name": "pollId",
          "type": "uint256"
        }
      ],
      "name": "fundPollWithETH",
      "outputs": [],
      "stateMutability": "payable",
      "type": "function"
    },
    {
      "inputs": [
        {
          "internalType": "uint256",
          "name": "pollId",
          "type": "uint256"
        },
        {
          "internalType": "address",
          "name": "token",
          "type": "address"
        },
        {
          "internalType": "uint256",
          "name": "amount",
          "type": "uint256"
        }
      ],
      "name": "fundPollWithToken",
      "outputs": [],
      "stateMutability": "nonpayable",
      "type": "function"
    },
    {
      "inputs": [],
      "name": "getActivePolls",
      "outputs": [
        {
          "internalType": "uint256[]",
          "name": "",
          "type": "uint256[]"
        }
      ],
      "stateMutability": "view",
      "type": "function"
    },
    {
      "inputs": [
        {
          "internalType": "uint256",
          "name": "pollId",
          "type": "uint256"
        }
      ],
      "name": "getDistributionMode",
      "outputs": [
        {
          "internalType": "enum PollsContract.DistributionMode",
          "name": "",
          "type": "uint8"
        }
      ],
      "stateMutability": "view",
      "type": "function"
    },
    {
      "inputs": [
        {
          "internalType": "address",
          "name": "creator",
          "type": "address"
        }
      ],
      "name": "getDraftPolls",
      "outputs": [
        {
          "internalType": "uint256[]",
          "name": "",
          "type": "uint256[]"
        }
      ],
      "stateMutability": "view",
      "type": "function"
    },
    {
      "inputs": [
        {
          "internalType": "uint256",
          "name": "pollId",
          "type": "uint256"
        }
      ],
      "name": "getPoll",
      "outputs": [
        {
          "internalType": "uint256",
          "name": "id",
          "type": "uint256"
        },
        {
          "internalType": "string",
          "name": "question",
          "type": "string"
        },
        {
          "internalType": "string[]",
          "name": "options",
          "type": "string[]"
        },
        {
          "internalType": "uint256[]",
          "name": "votes",
          "type": "uint256[]"
        },
        {
          "internalType": "uint256",
          "name": "endTime",
          "type": "uint256"
        },
        {
          "internalType": "bool",
          "name": "isActive",
          "type": "bool"
        },
        {
          "internalType": "address",
          "name": "creator",
          "type": "address"
        },
        {
          "internalType": "uint256",
          "name": "totalFunding",
          "type": "uint256"
        },
        {
          "internalType": "enum PollsContract.DistributionMode",
          "name": "distributionMode",
          "type": "uint8"
        },
        {
          "internalType": "address",
          "name": "fundingToken",
          "type": "address"
        },
        {
          "internalType": "enum PollsContract.FundingType",
          "name": "fundingType",
          "type": "uint8"
        },
        {
          "internalType": "enum PollsContract.PollStatus",
          "name": "status",
          "type": "uint8"
        },
        {
          "internalType": "enum PollsContract.PollStatus",
          "name": "previousStatus",
          "type": "uint8"
        },
        {
          "internalType": "enum PollsContract.VotingType",
          "name": "votingType",
          "type": "uint8"
        },
        {
          "internalType": "uint256",
          "name": "totalVotesBought",
          "type": "uint256"
        }
      ],
      "stateMutability": "view",
      "type": "function"
    },
    {
      "inputs": [
        {
          "internalType": "uint256",
          "name": "pollId",
          "type": "uint256"
        },
        {
          "internalType": "address",
          "name": "token",
          "type": "address"
        }
      ],
      "name": "getPollTokenBalance",
      "outputs": [
        {
          "internalType": "uint256",
          "name": "",
          "type": "uint256"
        }
      ],
      "stateMutability": "view",
      "type": "function"
    },
    {
      "inputs": [
        {
          "internalType": "uint256",
          "name": "pollId",
          "type": "uint256"
        }
      ],
      "name": "getTotalVotesBought",
      "outputs": [
        {
          "internalType": "uint256",
          "name": "",
          "type": "uint256"
        }
      ],
      "stateMutability": "view",
      "type": "function"
    },
    {
      "inputs": [
        {
          "internalType": "uint256",
          "name": "pollId",
          "type": "uint256"
        },
        {
          "internalType": "address",
          "name": "user",
          "type": "address"
        }
      ],
      "name": "getUserFunding",
      "outputs": [
        {
          "internalType": "uint256",
          "name": "",
          "type": "uint256"
        }
      ],
      "stateMutability": "view",
      "type": "function"
    },
    {
      "inputs": [
        {
          "internalType": "uint256",
          "name": "pollId",
          "type": "uint256"
        },
        {
          "internalType": "address",
          "name": "voter",
          "type": "address"
        }
      ],
      "name": "getUserVotesInPoll",
      "outputs": [
        {
          "internalType": "uint256",
          "name": "",
          "type": "uint256"
        }
      ],
      "stateMutability": "view",
      "type": "function"
    },
    {
      "inputs": [
        {
          "internalType": "uint256",
          "name": "pollId",
          "type": "uint256"
        }
      ],
      "name": "getVotingType",
      "outputs": [
        {
          "internalType": "enum PollsContract.VotingType",
          "name": "",
          "type": "uint8"
        }
      ],
      "stateMutability": "view",
      "type": "function"
    },
    {
      "inputs": [
        {
          "internalType": "uint256",
          "name": "pollId",
          "type": "uint256"
        },
        {
          "internalType": "address",
          "name": "user",
          "type": "address"
        }
      ],
      "name": "hasUserVoted",
      "outputs": [
        {
          "internalType": "bool",
          "name": "",
          "type": "bool"
        }
      ],
      "stateMutability": "view",
      "type": "function"
    },
    {
      "inputs": [],
      "name": "initialize",
      "outputs": [],
      "stateMutability": "nonpayable",
      "type": "function"
    },
    {
      "inputs": [
        {
          "internalType": "uint256",
          "name": "pollId",
          "type": "uint256"
        }
      ],
      "name": "isPollActive",
      "outputs": [
        {
          "internalType": "bool",
          "name": "",
          "type": "bool"
        }
      ],
      "stateMutability": "view",
      "type": "function"
    },
    {
      "inputs": [
        {
          "internalType": "uint256",
          "name": "startPollId",
          "type": "uint256"
        },
        {
          "internalType": "uint256",
          "name": "endPollId",
          "type": "uint256"
        }
      ],
      "name": "migratePolls",
      "outputs": [],
      "stateMutability": "nonpayable",
      "type": "function"
    },
    {
      "inputs": [],
      "name": "nextPollId",
      "outputs": [
        {
          "internalType": "uint256",
          "name": "",
          "type": "uint256"
        }
      ],
      "stateMutability": "view",
      "type": "function"
    },
    {
      "inputs": [],
      "name": "owner",
      "outputs": [
        {
          "internalType": "address",
          "name": "",
          "type": "address"
        }
      ],
      "stateMutability": "view",
      "type": "function"
    },
    {
      "inputs": [
        {
          "internalType": "uint256",
          "name": "pollId",
          "type": "uint256"
        }
      ],
      "name": "pausePoll",
      "outputs": [],
      "stateMutability": "nonpayable",
      "type": "function"
    },
    {
      "inputs": [],
      "name": "platformFeePercent",
      "outputs": [
        {
          "internalType": "uint256",
          "name": "",
          "type": "uint256"
        }
      ],
      "stateMutability": "view",
      "type": "function"
    },
    {
      "inputs": [],
      "name": "platformTreasury",
      "outputs": [
        {
          "internalType": "address",
          "name": "",
          "type": "address"
        }
      ],
      "stateMutability": "view",
      "type": "function"
    },
    {
      "inputs": [
        {
          "internalType": "uint256",
          "name": "",
          "type": "uint256"
        },
        {
          "internalType": "address",
          "name": "",
          "type": "address"
        }
      ],
      "name": "pollTokenBalances",
      "outputs": [
        {
          "internalType": "uint256",
          "name": "",
          "type": "uint256"
        }
      ],
      "stateMutability": "view",
      "type": "function"
    },
    {
      "inputs": [
        {
          "internalType": "uint256",
          "name": "",
          "type": "uint256"
        }
      ],
      "name": "polls",
      "outputs": [
        {
          "internalType": "uint256",
          "name": "id",
          "type": "uint256"
        },
        {
          "internalType": "string",
          "name": "question",
          "type": "string"
        },
        {
          "internalType": "uint256",
          "name": "endTime",
          "type": "uint256"
        },
        {
          "internalType": "bool",
          "name": "isActive",
          "type": "bool"
        },
        {
          "internalType": "address",
          "name": "creator",
          "type": "address"
        },
        {
          "internalType": "uint256",
          "name": "totalFunding",
          "type": "uint256"
        },
        {
          "internalType": "enum PollsContract.DistributionMode",
          "name": "distributionMode",
          "type": "uint8"
        },
        {
          "internalType": "address",
          "name": "fundingToken",
          "type": "address"
        },
        {
          "internalType": "enum PollsContract.FundingType",
          "name": "fundingType",
          "type": "uint8"
        },
        {
          "internalType": "enum PollsContract.PollStatus",
          "name": "status",
          "type": "uint8"
        },
        {
          "internalType": "enum PollsContract.PollStatus",
          "name": "previousStatus",
          "type": "uint8"
        },
        {
          "internalType": "enum PollsContract.VotingType",
          "name": "votingType",
          "type": "uint8"
        },
        {
          "internalType": "uint256",
          "name": "totalVotesBought",
          "type": "uint256"
        }
      ],
      "stateMutability": "view",
      "type": "function"
    },
    {
      "inputs": [],
      "name": "premiumContract",
      "outputs": [
        {
          "internalType": "contract IPremiumSubscription",
          "name": "",
          "type": "address"
        }
      ],
      "stateMutability": "view",
      "type": "function"
    },
    {
      "inputs": [
        {
          "internalType": "uint256",
          "name": "pollId",
          "type": "uint256"
        },
        {
          "internalType": "address",
          "name": "voter",
          "type": "address"
        },
        {
          "internalType": "uint256",
          "name": "numVotes",
          "type": "uint256"
        }
      ],
      "name": "previewVoteCost",
      "outputs": [
        {
          "internalType": "uint256",
          "name": "",
          "type": "uint256"
        }
      ],
      "stateMutability": "view",
      "type": "function"
    },
    {
      "inputs": [],
      "name": "proxiableUUID",
      "outputs": [
        {
          "internalType": "bytes32",
          "name": "",
          "type": "bytes32"
        }
      ],
      "stateMutability": "view",
      "type": "function"
    },
    {
      "inputs": [
        {
          "internalType": "uint256",
          "name": "pollId",
          "type": "uint256"
        }
      ],
      "name": "publishPoll",
      "outputs": [],
      "stateMutability": "nonpayable",
      "type": "function"
    },
    {
      "inputs": [],
      "name": "pulseToken",
      "outputs": [
        {
          "internalType": "contract IERC20",
          "name": "",
          "type": "address"
        }
      ],
      "stateMutability": "view",
      "type": "function"
    },
    {
      "inputs": [],
      "name": "quadraticVotingTreasury",
      "outputs": [
        {
          "internalType": "address",
          "name": "",
          "type": "address"
        }
      ],
      "stateMutability": "view",
      "type": "function"
    },
    {
      "inputs": [],
      "name": "renounceOwnership",
      "outputs": [],
      "stateMutability": "nonpayable",
      "type": "function"
    },
    {
      "inputs": [
        {
          "internalType": "uint256",
          "name": "pollId",
          "type": "uint256"
        }
      ],
      "name": "resumePoll",
      "outputs": [],
      "stateMutability": "nonpayable",
      "type": "function"
    },
    {
      "inputs": [
        {
          "internalType": "uint256",
          "name": "pollId",
          "type": "uint256"
        },
        {
          "internalType": "enum PollsContract.DistributionMode",
          "name": "mode",
          "type": "uint8"
        }
      ],
      "name": "setDistributionMode",
      "outputs": [],
      "stateMutability": "nonpayable",
      "type": "function"
    },
    {
      "inputs": [
        {
          "internalType": "uint256",
          "name": "pollId",
          "type": "uint256"
        }
      ],
      "name": "setForClaiming",
      "outputs": [],
      "stateMutability": "nonpayable",
      "type": "function"
    },
    {
      "inputs": [
        {
          "internalType": "uint256",
          "name": "pollId",
          "type": "uint256"
        },
        {
          "internalType": "address",
          "name": "fundingToken",
          "type": "address"
        }
      ],
      "name": "setFundingToken",
      "outputs": [],
      "stateMutability": "nonpayable",
      "type": "function"
    },
    {
      "inputs": [
        {
          "internalType": "uint256",
          "name": "pollId",
          "type": "uint256"
        },
        {
          "internalType": "enum PollsContract.FundingType",
          "name": "fundingType",
          "type": "uint8"
        }
      ],
      "name": "setFundingType",
      "outputs": [],
      "stateMutability": "nonpayable",
      "type": "function"
    },
    {
      "inputs": [
        {
          "internalType": "uint256",
          "name": "_feePercent",
          "type": "uint256"
        }
      ],
      "name": "setPlatformFee",
      "outputs": [],
      "stateMutability": "nonpayable",
      "type": "function"
    },
    {
      "inputs": [
        {
          "internalType": "address",
          "name": "_treasury",
          "type": "address"
        }
      ],
      "name": "setPlatformTreasury",
      "outputs": [],
      "stateMutability": "nonpayable",
      "type": "function"
    },
    {
      "inputs": [
        {
          "internalType": "address",
          "name": "_premiumContract",
          "type": "address"
        }
      ],
      "name": "setPremiumContract",
      "outputs": [],
      "stateMutability": "nonpayable",
      "type": "function"
    },
    {
      "inputs": [
        {
          "internalType": "address",
          "name": "_pulseToken",
          "type": "address"
        }
      ],
      "name": "setPulseToken",
      "outputs": [],
      "stateMutability": "nonpayable",
      "type": "function"
    },
    {
      "inputs": [
        {
          "internalType": "address",
          "name": "_treasury",
          "type": "address"
        }
      ],
      "name": "setQuadraticVotingTreasury",
      "outputs": [],
      "stateMutability": "nonpayable",
      "type": "function"
    },
    {
      "inputs": [
        {
          "internalType": "address",
          "name": "newOwner",
          "type": "address"
        }
      ],
      "name": "transferOwnership",
      "outputs": [],
      "stateMutability": "nonpayable",
      "type": "function"
    },
    {
      "inputs": [
        {
          "internalType": "address",
          "name": "newImplementation",
          "type": "address"
        },
        {
          "internalType": "bytes",
          "name": "data",
          "type": "bytes"
        }
      ],
      "name": "upgradeToAndCall",
      "outputs": [],
      "stateMutability": "payable",
      "type": "function"
    },
    {
      "inputs": [
        {
          "internalType": "uint256",
          "name": "pollId",
          "type": "uint256"
        },
        {
          "internalType": "uint256",
          "name": "optionIndex",
          "type": "uint256"
        }
      ],
      "name": "vote",
      "outputs": [],
      "stateMutability": "nonpayable",
      "type": "function"
    },
    {
      "inputs": [
        {
          "internalType": "address",
          "name": "token",
          "type": "address"
        },
        {
          "internalType": "bool",
          "name": "status",
          "type": "bool"
        }
      ],
      "name": "whitelistToken",
      "outputs": [],
      "stateMutability": "nonpayable",
      "type": "function"
    },
    {
      "inputs": [
        {
          "internalType": "address",
          "name": "",
          "type": "address"
        }
      ],
      "name": "whitelistedTokens",
      "outputs": [
        {
          "internalType": "bool",
          "name": "",
          "type": "bool"
        }
      ],
      "stateMutability": "view",
      "type": "function"
    },
    {
      "inputs": [
        {
          "internalType": "uint256",
          "name": "pollId",
          "type": "uint256"
        },
        {
          "internalType": "address",
          "name": "recipient",
          "type": "address"
        },
        {
          "internalType": "address[]",
          "name": "tokens",
          "type": "address[]"
        }
      ],
      "name": "withdrawFunds",
      "outputs": [],
      "stateMutability": "nonpayable",
      "type": "function"
    }
  ],
  "bytecode": "0x60a08060405234620000d157306080527ff0c57e16840df040f15088dc2f81fe391c3923bec73e23a9662efc9c229c6a009081549060ff8260401c16620000c257506001600160401b036002600160401b0319828216016200007c575b6040516159b49081620000d782396080518181816133bb01526134cd0152f35b6001600160401b031990911681179091556040519081527fc7f505b2f371ae2175ee4913f4499e1f2633a7b5936321eed1cdaeb6115181d290602090a13880806200005c565b63f92ee8a960e01b8152600490fd5b600080fdfe6080604052600436101561001257600080fd5b60003560e01c806302421743146147275780630b404a53146146d95780630c68a3d3146146c05780630cbab4f7146146a25780630ffb1d8b1461461a57806312e8e2c31461458157806313910ea21461453957806317657c9b146144055780631a8cbcaa146141bc5780631bd3528e14613f215780631c4bf2e6146139fc5780631d59fd78146139df5780631f779322146139865780632b786571146139685780632ec15480146139105780633998a681146138f3578063498ecc0b146136855780634f1ef2861461347e57806350af62821461342557806352d1902d146133a857806356597e4f1461319e57806356cf9b61146131485780635a63e72714612b385780635b0fc6e814612b0f578063638e4efb1461288157806363a9492f1461279657806369c5029414612587578063715018a61461251d57806378a2a1d9146120f05780637cd86d60146120365780637f7c621414611e8b5780638129fc1c14611d35578063816fc93414611ccb5780638c639a8514611cad5780638da5cb5b14611c775780639534e63714611ab9578063aa618ecd14611a70578063ac2f007414611969578063ad3cb1cc14611911578063b384abef1461174e578063b394c5e614611517578063cbb2327c146114db578063cc7dfc40146113a9578063cde202c4146111be578063cfef17a714611195578063d492cf4d14610a21578063d6dd31ad146109aa578063daf9c2101461096b578063dc296ae11461090d578063dd9f9b61146106e2578063dfa8056a1461069a578063e138818c14610671578063e238b76414610653578063e81e08de14610460578063e9876246146103f6578063f2fde38b146103cb578063f49b07ae14610361578063f562c338146102d35763faa4274a146102a557600080fd5b346102ce5760003660031901126102ce576006546040516001600160a01b039091168152602090f35b600080fd5b346102ce5760e03660031901126102ce576001600160401b036004358181116102ce5761030490369060040161495a565b906024359081116102ce5761031d90369060040161498f565b906103266147e4565b9160843560038110156102ce5760a4359060028210156102ce576020946103599461034f614810565b9460443591615094565b604051908152f35b346102ce5760203660031901126102ce5761037a6147ce565b6103826156e1565b600580546001600160a01b039283166001600160a01b0319821681179092559091167fbc98504bb5da5db837c6ce28eee385408c2ff863f91416c31dc2e3d494a8ea69600080a3005b346102ce5760203660031901126102ce576103f46103e76147ce565b6103ef6156e1565b615009565b005b346102ce5760203660031901126102ce5761040f6147ce565b6104176156e1565b600680546001600160a01b039283166001600160a01b0319821681179092559091167f36f8d10b5dc1a8144145766e3d81607a942276461f8e4bd08b58d1861eda4cd4600080a3005b6020806003193601126102ce5760043561047d6003548210614b17565b806000526000825261049960ff60056040600020015416614ca0565b80600052600082526104b46004604060002001544210614ce1565b6104bc61571a565b341561061657600081815280835260409020600b01546001600160a01b03906104e790821615614fad565b816104f134614c7e565b916104fc8334614eec565b9280151580610609575b6105a9575b5050600052600083526006604060002001610527828254614bff565b905581600052600083526008604060002001336000528352604060002061054f828254614bff565b9055816000526002835260406000206000805283526040600020610574828254614bff565b9055604051926000845283015260008051602061591f83398151915260403393a3600160008051602061595f83398151915255005b816105d76000808080866000805160206158df83398151915298600854165af16105d1614df0565b50614f3d565b6008546040805160008152602081019490945291166001600160a01b03169082015280606081010390a281848061050b565b5081600854161515610506565b60405162461bcd60e51b8152600481018390526015602482015274135d5cdd081cd95b9908115512081d1bc8199d5b99605a1b6044820152606490fd5b346102ce5760003660031901126102ce57602060405162278d008152f35b346102ce5760003660031901126102ce576008546040516001600160a01b039091168152602090f35b346102ce5760403660031901126102ce576106b36147b8565b600435600052600260205260406000209060018060a01b03166000526020526020604060002054604051908152f35b346102ce576020806003193601126102ce576004356107046003548210614b17565b806000526000825260018060a01b038060056040600020015460081c1633149081156108f2575b501561089a57806000526000825260ff600b6040600020015460a81c16600681101561080d5760010361085f5780600052600082526004604060002001544210610823578060005260008252600b6040600020019061079260ff835460a81c168093614f89565b600081815280845260409020600b01805460ff60a81b1916600160a91b179081905560a81c60ff16600681101561080d576107e99082600052600085521560056040600020019060ff801983541691151516179055565b600682101561080d5760008051602061593f833981519152600293604051428152a4005b634e487b7160e01b600052602160045260246000fd5b60405162461bcd60e51b8152600481018390526014602482015273141bdb1b081b5d5cdd081a185d9948195b99195960621b6044820152606490fd5b60405162461bcd60e51b8152600481018390526013602482015272141bdb1b081b5d5cdd0818994818db1bdcd959606a1b6044820152606490fd5b60405162461bcd60e51b815260048101839052602a60248201527f4f6e6c792063726561746f72206f72206f776e65722063616e2073657420666f6044820152697220636c61696d696e6760b01b6064820152608490fd5b90506000805160206158ff833981519152541633148361072b565b346102ce5760403660031901126102ce576004356109296147b8565b906109376003548210614b17565b600052600060205260096040600020019060018060a01b0316600052602052602060ff604060002054166040519015158152f35b346102ce5760203660031901126102ce576001600160a01b0361098c6147ce565b166000526001602052602060ff604060002054166040519015158152f35b346102ce576109b836614aed565b6109c56003548410614b17565b82600052600060205260ff600b6040600020015460b81c1691600283101561080d576020936109f960016103599514614d5b565b60005260008452600d6040600020019060018060a01b03166000528352604060002054614c1f565b346102ce5760c03660031901126102ce576004356001600160401b0381116102ce57610a5190369060040161495a565b6024356001600160401b0381116102ce57610a7090369060040161498f565b604491610a7b6147e4565b600360843510156102ce57600260a43510156102ce5781511561115657600283511061110857600a8351116110b657610e1084351015806110a8575b610ac090614ea8565b6001600160a01b039381851615801561108d575b610add90614b59565b600160a43514610f7c575b60035493610af585614bda565b60035584600052600060205260406000209085825584516001600160401b038111610d1057610b276001840154614a0e565b601f8111610f3c575b506020601f8211600114610ed0579080610b6092600091610ec5575b508160011b916000199060031b1c19161790565b60018301555b8051600160401b8111610d10576002830154816002850155808210610e4d575b506020820190600284016000526020600020916000905b828210610d265750505050610bb29051614e62565b80516003830197916001600160401b038211610d1057600160401b8211610d10576020908954838b55808410610cf3575b50019760005260206000209760005b828110610cdf57600585018054610100600160a81b0319163360081b610100600160a81b03161781556000600687015560078601805460ff19908116909155600b870180546001600160a01b031916878b161781556020928c9260049284927f9dbafd4116dcead87280b4bad16e92c851a647fbf87a77e05cf6b29c8fcdc33c928f92918e916001908f610c8860843587614bb6565b610c958654953542614bff565b990189905582541617905562ffffff60a81b191660a43560b81b60ff60b81b161790556040805181815291610ccc91830190614829565b93868201528033940390a3604051908152f35b60019060208351930192818c015501610bf2565b610d0a908b6000528484600020918201910161507d565b8a610be3565b634e487b7160e01b600052604160045260246000fd5b80518051906001600160401b038211610d1057610d438654614a0e565b601f8111610e10575b50602090601f8311600114610da05792610d8683600195946020948796600092610d95575b50508160011b916000199060031b1c19161790565b87555b01940191019092610b9d565b015190503880610d71565b908660005260206000209160005b601f1985168110610df8575083602093600196938796938794601f19811610610ddf575b505050811b018755610d89565b015160001960f88460031b161c19169055388080610dd2565b91926020600181928685015181550194019201610dae565b610e3d908760005260206000206005601f8601811c82019260208710610e43575b601f01901c019061507d565b8d610d4c565b9192508291610e31565b600284016000526020600020908282015b8183018110610e6e575050610b86565b80610e7b60019254614a0e565b80610e88575b5001610e5e565b601f81118314610e9e5750600081555b8c610e81565b600090828252610ebc601f60208420920160051c820185830161507d565b81835555610e98565b90508701518a610b4c565b906001840160005260206000206000925b601f1983168410610f24576001935082601f19811610610f0b575b5050811b016001830155610b66565b88015160001960f88460031b161c191690558980610efc565b88810151825560209384019360019092019101610ee1565b610f6c90600185016000526020600020601f840160051c81019160208510610f72575b601f0160051c019061507d565b88610b30565b9091508190610f5f565b8460045416801561104e57602060249160405192838092630e76e53360e41b82523360048301525afa90811561104257600091611007575b50610ae8576084907f51756164726174696320766f74696e67207265717569726573207072656d69756040519162461bcd60e51b83526020600484015260216024840152820152606d60f81b6064820152fd5b90506020813d60201161103a575b81611022602093836148e7565b810103126102ce575180151581036102ce5786610fb4565b3d9150611015565b6040513d6000823e3d90fd5b60405162461bcd60e51b8152602060048201526018602482015277141c995b5a5d5b4818dbdb9d1c9858dd081b9bdd081cd95d60421b81840152606490fd5b5081851660009081526001602052604090205460ff16610ad4565b5062278d0084351115610ab7565b60405162461bcd60e51b815260206004820152602560248201527f506f6c6c2063616e6e6f742068617665206d6f7265207468616e203130206f70818601526474696f6e7360d81b6064820152608490fd5b60405162461bcd60e51b815260206004820152602160248201527f506f6c6c206d7573742068617665206174206c656173742032206f7074696f6e81860152607360f81b6064820152608490fd5b60405162461bcd60e51b81526020600482015260186024820152775175657374696f6e2063616e6e6f7420626520656d70747960401b81860152606490fd5b346102ce5760003660031901126102ce576004546040516001600160a01b039091168152602090f35b346102ce576020806003193601126102ce57600435906111e16003548310614b17565b816000526000815260018060a01b038060056040600020015460081c16331490811561138e575b501561133e57816000526000815260ff600b6040600020015460a81c16600681101561080d576112fa578160005260008152600b6040600020019061125560ff835460a81c168093614f89565b600083815280825260409020600b01805460ff60a81b1916600360a81b179081905560a81c60ff16600681101561080d576112ac9084600052600083521560056040600020019060ff801983541691151516179055565b600682101561080d5760037fdb60f2dea048e4e773fc1838826049d2c8e6f4242ebcdecf7640a25175ff5924928460008051602061593f83398151915284604051428152a4604051428152a2005b6064906040519062461bcd60e51b82526004820152601f60248201527f4f6e6c792061637469766520706f6c6c732063616e20626520706175736564006044820152fd5b6084906040519062461bcd60e51b825260048201526024808201527f4f6e6c792063726561746f72206f72206f776e65722063616e207061757365206044820152631c1bdb1b60e21b6064820152fd5b90506000805160206158ff8339815191525416331483611208565b346102ce576020806003193601126102ce576113c36147ce565b6003546001600160a01b03918216916000805b83811061147b57506113e790614e62565b9260009460005b84811061140f576040516020808252819061140b90820189614869565b0390f35b806000526000825260406000208385600583015460081c1614908161145d575b5061143d575b6001016113ee565b95611455818861144f6001948a614e94565b52614bda565b969050611435565b60ff9150600b015460a81c16600681101561080d576004148861142f565b806000526000865260406000208584600583015460081c161490816114bd575b506114a9575b6001016113d6565b906114b5600191614bda565b9190506114a1565b60ff9150600b015460a81c16600681101561080d576004148761149b565b346102ce5760203660031901126102ce576004356114fc6003548210614b17565b60005260006020526020600c60406000200154604051908152f35b346102ce5761152536614aed565b6115356003939293548310614b17565b8160005260206000815261155360ff60056040600020015416614ca0565b826000526000815261156e6004604060002001544210614ce1565b61157661571a565b60018060a01b039081851691826000526001825261159b60ff60406000205416614ef9565b8315611709579160008051602061591f8339815191529391856116909481600052600083526115d58482600b604060002001541614614fad565b6115e18530338761574a565b6115f46115ed86614c7e565b8096614eec565b94801515806116fc575b6116a7575b505060005260008152600660406000200161161f848254614bff565b9055856000526000815260086040600020013360005281526040600020611647848254614bff565b9055856000526002815260406000209160005252604060002061166b828254614bff565b9055604080516001600160a01b03909616865260208601919091523394918291820190565b0390a3600160008051602061595f83398151915255005b816116c6826000805160206158df8339815191529460085416886157a2565b600854604080516001600160a01b038e8116825260208201959095529290911690921691810191909152606090a2858880611603565b50816008541615156115fe565b60405162461bcd60e51b815260048101839052601d60248201527f416d6f756e74206d7573742062652067726561746572207468616e20300000006044820152606490fd5b346102ce5761175c366147fa565b9061176a6003548210614b17565b8060005260206000815261178860ff60056040600020015416614ca0565b81600052600081526117a36004604060002001544210614ce1565b81600052600081526117be6002604060002001548410614d1e565b816000526000815260ff600b6040600020015460b81c16600281101561080d576118ce578160005260008152600960406000200133600052815260ff6040600020541661189a577f1abe610cf2bf87e57dcc1181fcf5ac0934e843d8344ab9eed6e86c799f62585e90826000526000815260096040600020013360005281526040600020600160ff19825416179055826000526000815261188f611869856003604060002001614d9e565b61187882548260031b1c614bda565b825460001960039390931b92831b1916911b179055565b6040519384523393a3005b6064906040519062461bcd60e51b82526004820152600d60248201526c105b1c9958591e481d9bdd1959609a1b6044820152fd5b6064906040519062461bcd60e51b825280600483015260248201527f55736520627579566f74657320666f722071756164726174696320706f6c6c736044820152fd5b346102ce5760003660031901126102ce5760405160408101908082106001600160401b03831117610d105761140b9160405260058152640352e302e360dc1b6020820152604051918291602083526020830190614829565b346102ce5760203660031901126102ce5760043560005260006020526040600020805461199860018301614a48565b91600481015490611a6660058201549160ff60018060a01b039160068101549282600783015416600b8301549482600c868860a01c16950154986119ef6040519d8e9d8e6101a09181528160208201520190614829565b9a60408d0152868116151560608d015260081c1660808b015260a08a0152611a168161481f565b60c0890152831660e0880152611a2b8161481f565b610100870152611a446101208701828460a81c1661489d565b611a576101408701828460b01c1661489d565b61016086019160b81c166148aa565b6101808301520390f35b346102ce5760203660031901126102ce57600435611a916003548210614b17565b6000526000602052602060ff600b6040600020015460b81c16611ab760405180926148aa565bf35b346102ce576020806003193601126102ce57600435611adb6003548210614b17565b806000526000825260018060a01b038060056040600020015460081c163314908115611c5c575b5015611c0b57806000526000825260ff600b6040600020015460a81c16600681101561080d57600114611bcd578060005260008252600b60406000200190611b5260ff835460a81c168093614f89565b600081815280845260409020600b01805460ff60a81b1916600160a81b179081905560a81c60ff16600681101561080d57611ba99082600052600085521560056040600020019060ff801983541691151516179055565b600682101561080d5760008051602061593f833981519152600193604051428152a4005b60405162461bcd60e51b8152600481018390526016602482015275141bdb1b081a5cc8185b1c9958591e4818db1bdcd95960521b6044820152606490fd5b60405162461bcd60e51b8152600481018390526024808201527f4f6e6c792063726561746f72206f72206f776e65722063616e20636c6f7365206044820152631c1bdb1b60e21b6064820152608490fd5b90506000805160206158ff8339815191525416331483611b02565b346102ce5760003660031901126102ce576000805160206158ff833981519152546040516001600160a01b039091168152602090f35b346102ce5760003660031901126102ce576020600754604051908152f35b346102ce5760203660031901126102ce57611ce46147ce565b611cec6156e1565b600480546001600160a01b039283166001600160a01b0319821681179092559091167f2116cb6f3ebde8e13019bd5040ae80452bcbf4c007a1cd5d3825a992f25da27e600080a3005b346102ce5760003660031901126102ce577ff0c57e16840df040f15088dc2f81fe391c3923bec73e23a9662efc9c229c6a00805460ff8160401c1615906001600160401b03811680159081611e83575b6001149081611e79575b159081611e70575b50611e5e5767ffffffffffffffff198116600117835581611e3f575b50611dbc61583a565b611dc461583a565b611dcd33615009565b611dd561583a565b611ddd61583a565b600160008051602061595f83398151915255611df761583a565b6000600355611e0257005b68ff00000000000000001981541690557fc7f505b2f371ae2175ee4913f4499e1f2633a7b5936321eed1cdaeb6115181d2602060405160018152a1005b68ffffffffffffffffff19166801000000000000000117825582611db3565b60405163f92ee8a960e01b8152600490fd5b90501584611d97565b303b159150611d8f565b839150611d85565b346102ce57611e99366147fa565b90611ea26156e1565b81811015612001576003548211611fbc575b818110611ebd57005b806000526000602052604060002090600b8201805460ff808260a81c1694600680871015968761080d57159687918215908199611fa4575b50611f34575b505060050154600195501615611f1f5750805461ffff60a81b191690555b01611eb4565b61ffff60a81b191660a884901b179055611f19565b83600584015416809281611f98575b508215611f74575b50506001965080611f6b575b611f62578780611efb565b50505050611f19565b50841515611f57565b15915081611f89575b50600196508880611f4b565b905061080d5760019588611f7d565b9250600091508a611f43565b9050848660b01c169081101561080d5715158a611ef5565b60405162461bcd60e51b815260206004820152601f60248201527f456e6420706f6c6c204944206578636565647320746f74616c20706f6c6c73006044820152606490fd5b60405162461bcd60e51b815260206004820152600d60248201526c496e76616c69642072616e676560981b6044820152606490fd5b346102ce5760203660031901126102ce5761204f6147ce565b6120576156e1565b6001600160a01b039081169081156120ab57600854826bffffffffffffffffffffffff60a01b821617600855167ff3814cc4b6220f5bf02409e4cebe75e5032fdb20cef0db459431fd5cba574b93600080a3005b60405162461bcd60e51b815260206004820152601860248201527f496e76616c6964207472656173757279206164647265737300000000000000006044820152606490fd5b6101003660031901126102ce576001600160401b036004358181116102ce5761211d90369060040161495a565b906024359081116102ce5761213690369060040161498f565b9061213f6147e4565b6084359160038310156102ce5760a4359060028210156102ce5761217d918484612167614810565b9360e4359861217461571a565b60443591615094565b91836121a1575b602083600160008051602061595f83398151915255604051908152f35b806121ad60019261481f565b036124bf576121bb83614c7e565b6121c58185614eec565b6001600160a01b03949091908386168061233f57503403612304576122938492836020978460008051602061591f833981519152951515806122f7575b61229d575b5050600052600087526006604060002001612223828254614bff565b905583600052600087526008604060002001336000528752604060002061224b828254614bff565b905583600052600287526040600020600080528752604060002061166b828254614bff565b604080516001600160a01b03909616865260208601919091523394918291820190565b0390a38280612184565b816122c56000808080866000805160206158df83398151915298600854165af16105d1614df0565b6008546040805160008152602081019490945291166001600160a01b03169082015280606081010390a2838880612207565b5081600854161515612202565b60405162461bcd60e51b815260206004820152601360248201527208aa89040c2dadeeadce840dad2e6dac2e8c6d606b1b6044820152606490fd5b91826000979297526020966001885261235f60ff60406000205416614ef9565b3461246a5792602097876122939481979461238b60008051602061591f8339815191529830338861574a565b8015158061245d575b612408575b50506000526000815260066040600020016123b5848254614bff565b90558560005260008152600860406000200133600052815260406000206123dd848254614bff565b90558560005260028152604060002091600052526040600020612401828254614bff565b9055612270565b81612427826000805160206158df8339815191529460085416886157a2565b600854604080516001600160a01b038e8116825260208201959095529290911690921691810191909152606090a2858a80612399565b5081600854161515612394565b60405162461bcd60e51b815260048101899052602760248201527f455448206e6f7420616363657074656420666f7220746f6b656e2d66756e64656044820152666420706f6c6c7360c81b6064820152608490fd5b60405162461bcd60e51b815260206004820152603060248201527f4f6e6c792073656c662d66756e64656420706f6c6c732063616e20626520667560448201526f373232b21030ba1031b932b0ba34b7b760811b6064820152608490fd5b346102ce5760003660031901126102ce576125366156e1565b6000805160206158ff83398151915280546001600160a01b031981169091556000906001600160a01b03167f8be0079c531659141344cd1fd0a4f28419497f9722a3daafe3b4186f6b6457e08280a3005b346102ce576020806003193601126102ce57600435906125aa6003548310614b17565b816000526000815260018060a01b038060056040600020015460081c16331490811561277b575b501561272857816000526000815260ff600b6040600020015460a81c16600681101561080d576004036126da578160005260008152600b61262f600460406000200154610e10811015806126cd575b61262990614ea8565b42614bff565b83600052600083526040600020906004820155019061265660ff835460a81c168093614f89565b600083815280825260409020600b8101805460ff60a81b19169055600501805460ff19166001179055600682101561080d5760007f10436d73e2f4f7ac1de5b6f996d0b6db0221c8973cbff40e9305d3d5b9c6c712928460008051602061593f83398151915284604051428152a4604051428152a2005b5062278d00811115612620565b6084906040519062461bcd60e51b82526004820152602160248201527f4f6e6c7920647261667420706f6c6c732063616e206265207075626c697368656044820152601960fa1b6064820152fd5b6084906040519062461bcd60e51b82526004820152602660248201527f4f6e6c792063726561746f72206f72206f776e65722063616e207075626c69736044820152651a081c1bdb1b60d21b6064820152fd5b90506000805160206158ff83398151915254163314836125d1565b346102ce5760003660031901126102ce576003546000805b82811061283457506127bf90614e62565b906000805b8281106127e1576040516020808252819061140b90820187614869565b806000526000602052604060002060ff6005820154169081612826575b5061280c575b6001016127c4565b9061281e818361144f60019488614e94565b919050612804565b6004915001544210856127fe565b806000526000602052604060002060ff6005820154169081612873575b5061285f575b6001016127ae565b9061286b600191614bda565b919050612857565b600491500154421084612851565b346102ce5760603660031901126102ce5760043561289d6147b8565b6044356001600160401b0381116102ce576128bc9036906004016148b7565b90926128cb6003548210614b17565b6128d361571a565b806000526020916000835260018060a01b038060056040600020015460081c1633148015612af5575b15612aa55782600052600084526004604060002001544210612a605760005b82811061293657600160008051602061595f83398151915255005b600190846000526002808752888461295c6129578589604060002095614dcc565b614ddc565b1660005287528585858a8c8b604060002054968888612985575b5050505050505050500161291b565b7f9467881c16409d70790ef2aa073424972ede02854453f7ff5036d66e860ee42f96612a3594612a0e94612957948b6000528152604060002090896129ce612957878787614dcc565b1660005252600060408120558a886129ea612957868686614dcc565b16612a46576000808080612a09948c5af1612a03614df0565b50614e20565b614dcc565b604080516001600160a01b0390921682526020820197909752919092169490918291820190565b0390a3888585858a8c8b8688612976565b612a0990888a612a5a612957888888614dcc565b166157a2565b60405162461bcd60e51b815260048101859052601e60248201527f506f6c6c206d75737420626520656e64656420746f20776974686472617700006044820152606490fd5b60405162461bcd60e51b815260048101859052602260248201527f4f6e6c792063726561746f72206f72206f776e65722063616e20776974686472604482015261617760f01b6064820152608490fd5b50806000805160206158ff833981519152541633146128fc565b346102ce5760003660031901126102ce576005546040516001600160a01b039091168152602090f35b346102ce5760a03660031901126102ce576004356001600160401b0381116102ce57612b6890369060040161495a565b6024356001600160401b0381116102ce57612b8790369060040161498f565b90612b906147e4565b90600360843510156102ce578051156131085760028351106130b957600a83511161306657610e10604435101580613057575b612bcc90614ea8565b6001600160a01b038216158015613035575b612be790614b59565b60035491612bf483614bda565b60035582600052600060205260406000209383855582516001600160401b038111610d1057612c266001870154614a0e565b601f8111613000575b506020601f8211600114612f94579080612c5e92600091612f8957508160011b916000199060031b1c19161790565b60018601555b8051600160401b8111610d10576002860154816002880155808210612f11575b506020820190600287016000526020600020916000905b828210612df65750505050612cb09051614e62565b80516003860195916001600160401b038211610d1057600160401b8211610d10576020908754838955808410612dd9575b50019560005260206000209560005b828110612dc557600584018054610100600160a81b0319163360081b610100600160a81b03161781556000600686015560078501805460ff19908116909155600b860180546001600160a01b0319166001600160a01b0389161781556020928a9260049284927f9dbafd4116dcead87280b4bad16e92c851a647fbf87a77e05cf6b29c8fcdc33c928d92918c91600190612d8c60843586614bb6565b845493612d9b60443542614bff565b990189905582541617905562ffffff60a81b191690556040805181815291610ccc91830190614829565b60019060208351930192818a015501612cf0565b612df090896000528484600020918201910161507d565b88612ce1565b80518051906001600160401b038211610d1057612e138654614a0e565b601f8111612edf575b50602090601f8311600114612e6f5792612e5583600195946020948796600092612e645750508160011b916000199060031b1c19161790565b87555b01940191019092612c9b565b015190508f80610d71565b908660005260206000209160005b601f1985168110612ec7575083602093600196938796938794601f19811610612eae575b505050811b018755612e58565b015160001960f88460031b161c191690558e8080612ea1565b91926020600181928685015181550194019201612e7d565b612f0b908760005260206000206005601f8601811c82019260208710610e4357601f01901c019061507d565b8b612e1c565b600287016000526020600020908282015b8183018110612f32575050612c84565b80612f3f60019254614a0e565b80612f4c575b5001612f22565b601f81118314612f625750600081555b8a612f45565b600090828252612f80601f60208420920160051c820185830161507d565b81835555612f5c565b905085015188610b4c565b906001870160005260206000206000925b601f1983168410612fe8576001935082601f19811610612fcf575b5050811b016001860155612c64565b86015160001960f88460031b161c191690558780612fc0565b86810151825560209384019360019092019101612fa5565b61302f90600188016000526020600020601f840160051c81019160208510610f7257601f0160051c019061507d565b86612c2f565b506001600160a01b03821660009081526001602052604090205460ff16612bde565b5062278d006044351115612bc3565b60405162461bcd60e51b815260206004820152602560248201527f506f6c6c2063616e6e6f742068617665206d6f7265207468616e203130206f7060448201526474696f6e7360d81b6064820152608490fd5b60405162461bcd60e51b815260206004820152602160248201527f506f6c6c206d7573742068617665206174206c656173742032206f7074696f6e6044820152607360f81b6064820152608490fd5b60405162461bcd60e51b81526020600482015260186024820152775175657374696f6e2063616e6e6f7420626520656d70747960401b6044820152606490fd5b346102ce5760403660031901126102ce576004356131646147b8565b906131726003548210614b17565b600052600260205260406000209060018060a01b03166000526020526020604060002054604051908152f35b346102ce576020806003193601126102ce57600435906131c16003548310614b17565b816000526000815260018060a01b038060056040600020015460081c16331490811561338d575b501561333957816000526000815260ff600b6040600020015460a81c16600681101561080d576002036132dd578160005260008152600b6040600020019061323860ff835460a81c168093614f89565b600083815280825260409020600b01805460ff60a81b1916600560a81b179081905560a81c60ff16600681101561080d5761328f9084600052600083521560056040600020019060ff801983541691151516179055565b600682101561080d5760057fe992bd2ee9f3c9a89bf16dcbadd0eab1f2b2bdedd79ee0bf255b586a5e35f9ac928460008051602061593f83398151915284604051428152a4604051428152a2005b6084906040519062461bcd60e51b82526004820152602f60248201527f506f6c6c206d75737420626520696e20464f525f434c41494d494e472073746160448201526e74757320746f2066696e616c697a6560881b6064820152fd5b6084906040519062461bcd60e51b82526004820152602760248201527f4f6e6c792063726561746f72206f72206f776e65722063616e2066696e616c696044820152661e99481c1bdb1b60ca1b6064820152fd5b90506000805160206158ff83398151915254163314836131e8565b346102ce5760003660031901126102ce577f00000000000000000000000000000000000000000000000000000000000000006001600160a01b031630036134135760206040517f360894a13ba1a3210667c828492db98dca3e2076cc3735a920a3ca505d382bbc8152f35b60405163703e46dd60e11b8152600490fd5b346102ce5760403660031901126102ce576004356134416147b8565b9061344f6003548210614b17565b600052600060205260086040600020019060018060a01b03166000526020526020604060002054604051908152f35b60403660031901126102ce576134926147ce565b6024356001600160401b0381116102ce57366023820112156102ce576134c2903690602481600401359101614923565b906001600160a01b037f00000000000000000000000000000000000000000000000000000000000000008116308114908115613657575b50613413576135066156e1565b8116906040516352d1902d60e01b8152602081600481865afa60009181613623575b5061354657604051634c9c8ce360e01b815260048101849052602490fd5b7f360894a13ba1a3210667c828492db98dca3e2076cc3735a920a3ca505d382bbc9291929081810361360b5750823b156135f25780546001600160a01b03191682179055604051907fbc7cd75a20ee27fd9adebab32041f755214dbc6bffa90cc0225b39da2e5c2d3b600080a28251156135d957506000808360206103f495519101845af46135d3614df0565b9161587b565b915050346135e357005b63b398979f60e01b8152600490fd5b604051634c9c8ce360e01b815260048101839052602490fd5b60249060405190632a87526960e21b82526004820152fd5b9091506020813d60201161364f575b8161363f602093836148e7565b810103126102ce57519085613528565b3d9150613632565b9050817f360894a13ba1a3210667c828492db98dca3e2076cc3735a920a3ca505d382bbc54161415846134f9565b346102ce5760603660031901126102ce57600435602435906044356136ad6003548310614b17565b81600052602090600082526136cc60ff60056040600020015416614ca0565b82600052600082526136e76004604060002001544210614ce1565b82600052600082526137026002604060002001548510614d1e565b61370a61571a565b826000526000825260406000209160ff600b84015460b81c16600281101561080d5760016137389114614d5b565b81156138af576005546001600160a01b03908116939084156138745760065416938415613839579060099161378b600d8301913360005282865261378187604060002054614c1f565b978891339061574a565b33600052835260406000206137a1858254614bff565b90556137c36137b38860038401614d9e565b6118788783548360031b1c614bff565b600c81016137d2858254614bff565b9055336000520181526040600020600160ff1982541617905560405194855284015260408301524260608301527f6120a7151a4abbbff162d5f92bb062f652dfa01d1b00cf31d10cfe8456ec3cdd60803393a3600160008051602061595f83398151915255005b60405162461bcd60e51b81526004810184905260136024820152721455881d1c99585cdd5c9e481b9bdd081cd95d606a1b6044820152606490fd5b60405162461bcd60e51b815260048101849052601360248201527214155314d1481d1bdad95b881b9bdd081cd95d606a1b6044820152606490fd5b6064906040519062461bcd60e51b82526004820152601860248201527f4d75737420627579206174206c65617374203120766f746500000000000000006044820152fd5b346102ce5760003660031901126102ce5760206040516107d08152f35b346102ce5760203660031901126102ce576004356139316003548210614b17565b60005260006020526020604060002060ff600582015416908161395a575b506040519015158152f35b60049150015442108261394f565b346102ce5760003660031901126102ce576020600354604051908152f35b346102ce5760403660031901126102ce576004356139a26147b8565b906139b06003548210614b17565b6000526000602052600d6040600020019060018060a01b03166000526020526020604060002054604051908152f35b346102ce5760003660031901126102ce576020604051610e108152f35b346102ce5760803660031901126102ce57613a156147b8565b6001600160401b03906044358281116102ce57613a369036906004016148b7565b9190926064359081116102ce57613a519036906004016148b7565b93613a6160035460043510614b17565b613a6961571a565b600435600052600060205260018060a01b0360056040600020015460081c1633148015613f00575b15613ea65760043560005260006020526004604060002001544210613e50576004356000526000602052600160ff60076040600020015416613ad28161481f565b148015613e27575b15613dc757848403613d89578315613d45576000805b868110613d2557506004356000526002602052604060002060018060a01b03851660005260205260406000205410613ce05760005b848110613b4057600160008051602061595f83398151915255005b613b4b818785614dcc565b3515613cd8576004356000526002602052604060002060018060a01b038516600052602052604060002054613b81828886614dcc565b3511613c855780613b956001928886614dcc565b3560043560005260026020526040600020838060a01b038716600052602052613bc46040600020918254614eec565b9055613bd4612957828886614dcc565b613bdf828987614dcc565b35838060a01b03871615600014613c6f57600080808093613c04955af1612a03614df0565b613c12612957828886614dcc565b613c1d828987614dcc565b3590604051918252838060a01b0387166020830152426040830152838060a01b0316907f40ff55f580dfcbbcdccf65c1e06700d124f4190644783eca909a23f5b37b65ca606060043592a35b01613b25565b613c8091848060a01b0388166157a2565b613c04565b60405162461bcd60e51b815260206004820152602560248201527f496e73756666696369656e742062616c616e636520666f7220646973747269626044820152643aba34b7b760d91b6064820152608490fd5b600190613c69565b60405162461bcd60e51b815260206004820152601a60248201527f496e73756666696369656e7420746f6b656e2062616c616e63650000000000006044820152606490fd5b90613d3e600191613d37848a88614dcc565b3590614bff565b9101613af0565b606460405162461bcd60e51b815260206004820152602060248201527f4d7573742068617665206174206c65617374206f6e6520726563697069656e746044820152fd5b60405162461bcd60e51b8152602060048201526016602482015275082e4e4c2f2e640d8cadccee8d040dad2e6dac2e8c6d60531b6044820152606490fd5b60405162461bcd60e51b815260206004820152603260248201527f446973747269627574696f6e206d6f6465206d757374206265204d414e55414c60448201527117d41554d2081bdc8810555513d35055115160721b6064820152608490fd5b506004356000526000602052600260ff60076040600020015416613e4a8161481f565b14613ada565b60405162461bcd60e51b815260206004820152602860248201527f506f6c6c206d75737420626520656e64656420746f2064697374726962757465604482015267207265776172647360c01b6064820152608490fd5b60405162461bcd60e51b815260206004820152602c60248201527f4f6e6c792063726561746f72206f72206f776e65722063616e2064697374726960448201526b62757465207265776172647360a01b6064820152608490fd5b506000805160206158ff833981519152546001600160a01b03163314613a91565b346102ce576020806003193601126102ce5760043590613f446003548310614b17565b816000526000815260018060a01b038060056040600020015460081c1633149081156141a1575b501561414f57816000526000815260ff600b6040600020015460a81c16600681101561080d5760030361410c5781600052600081526004604060002001544210156140c857816000526000815260ff600b6040600020015460b01c1690600682101561080d57600382146140bf575b8260005260008152600b60406000200191613ffd60ff845460a81c168094614f89565b8360005260008252600b604060002001600682101561080d57805460ff60a81b8360a81b169060ff60a81b1916179055836000526000825260ff600b6040600020015460a81c16600681101561080d576140739085600052600084521560056040600020019060ff801983541691151516179055565b600683101561080d577f229fc85594800ec48ab3f1ef11b9275bbe2ef32ef63eac3ac3dabe23a548b4d5928460008051602061593f83398151915284604051428152a4604051428152a2005b60009150613fda565b6064906040519062461bcd60e51b82526004820152601a60248201527f43616e6e6f7420726573756d65206578706972656420706f6c6c0000000000006044820152fd5b6064906040519062461bcd60e51b825280600483015260248201527f4f6e6c792070617573656420706f6c6c732063616e20626520726573756d65646044820152fd5b6084906040519062461bcd60e51b82526004820152602560248201527f4f6e6c792063726561746f72206f72206f776e65722063616e20726573756d65604482015264081c1bdb1b60da1b6064820152fd5b90506000805160206158ff8339815191525416331483613f6b565b346102ce5760203660031901126102ce576004356141dd6003548210614b17565b6000526000602052604060002080546004820154600583015492600681015460ff60078301541690600b83015495600c8401549361421d60018201614a48565b9060028101549161422d83614978565b9061423b60405192836148e7565b8382526020820193846002850160005260206000206000915b8383106143e857505050506040518093849160036020818401549283815201920160005260206000209060005b8181106143cf575050506142b3929161429b9103856148e7565b6040519a6101e0908c528060208d01528b0190614829565b9089820360408b015251808252602082019160208260051b82010194926000915b8383106143a2575050505050916142fa8261439896948a809c97950360608c0152614869565b608089019790975260ff8116151560a089015260081c6001600160a01b031660c088015260e087015261432c8161481f565b6101008601526001600160a01b03811661012086015261435260a082901c60ff1661481f565b60ff8160a01c16610140860152614373610160860160ff8360a81c1661489d565b614387610180860160ff8360b01c1661489d565b60ff6101a086019160b81c166148aa565b6101c08301520390f35b90919293956020806143c0600193601f198682030187528a51614829565b980193019301919392906142d4565b8254845287945060209093019260019283019201614281565b6001602081926143f785614a48565b815201920192019190614254565b346102ce5760403660031901126102ce5760043560243560038110156102ce576144326003548310614b17565b81600052600060205260018060a01b038060056040600020015460081c16331490811561451e575b50156144c15760407febc8e2e3cc1c0ea11d2c53fea531218ede3b90bf14f750a73e457cbf95129d0a918360005260006020526007826000200161449d8261481f565b60ff1981541660ff83161790558151906144b68161481f565b8152426020820152a2005b60405162461bcd60e51b815260206004820152602f60248201527f4f6e6c792063726561746f72206f72206f776e65722063616e2073657420646960448201526e73747269627574696f6e206d6f646560881b6064820152608490fd5b90506000805160206158ff833981519152541633148361445a565b346102ce5760203660031901126102ce5760043561455a6003548210614b17565b6000526000602052602060ff600760406000200154166040519061457d8161481f565b8152f35b346102ce5760203660031901126102ce5760043561459d6156e1565b6107d081116145df5760407fd347e206f25a89b917fc9482f1a2d294d749baa4dc9bde7fb495ee11fe49164391600754908060075582519182526020820152a1005b60405162461bcd60e51b81526020600482015260136024820152724665652065786365656473206d6178696d756d60681b6044820152606490fd5b346102ce5760403660031901126102ce576146336147ce565b60243590811515908183036102ce577fef81a9943b96c8df4ef243401c9bf5159146166211356898b52d382086168d92916146996020926146726156e1565b60018060a01b031694856000526001845260406000209060ff801983541691151516179055565b604051908152a2005b346102ce5760203660031901126102ce576020610359600435614c7e565b346102ce5760206103596146d3366147fa565b90614c1f565b346102ce5760403660031901126102ce5760043560243560038110156102ce576103f4916147056156e1565b6147126003548210614b17565b6000526000602052600b604060002001614bb6565b346102ce5760403660031901126102ce576004356147436147b8565b61474b6156e1565b6147586003548310614b17565b6001600160a01b031690811580156147a0575b61477490614b59565b6000526000602052600b604060002001906bffffffffffffffffffffffff60a01b825416179055600080f35b5060008281526001602052604090205460ff1661476b565b602435906001600160a01b03821682036102ce57565b600435906001600160a01b03821682036102ce57565b606435906001600160a01b03821682036102ce57565b60409060031901126102ce576004359060243590565b60c4359081151582036102ce57565b6003111561080d57565b919082519283825260005b848110614855575050826000602080949584010152601f8019910116010190565b602081830181015184830182015201614834565b90815180825260208080930193019160005b828110614889575050505090565b83518552938101939281019260010161487b565b90600682101561080d5752565b90600282101561080d5752565b9181601f840112156102ce578235916001600160401b0383116102ce576020808501948460051b0101116102ce57565b90601f801991011681019081106001600160401b03821117610d1057604052565b6001600160401b038111610d1057601f01601f191660200190565b92919261492f82614908565b9161493d60405193846148e7565b8294818452818301116102ce578281602093846000960137010152565b9080601f830112156102ce5781602061497593359101614923565b90565b6001600160401b038111610d105760051b60200190565b81601f820112156102ce578035916020916149a984614978565b936149b760405195866148e7565b808552838086019160051b830101928084116102ce57848301915b8483106149e25750505050505090565b82356001600160401b0381116102ce578691614a038484809489010161495a565b8152019201916149d2565b90600182811c92168015614a3e575b6020831014614a2857565b634e487b7160e01b600052602260045260246000fd5b91607f1691614a1d565b90604051918260008254614a5b81614a0e565b90818452602094600191600181169081600014614acb5750600114614a8c575b505050614a8a925003836148e7565b565b600090815285812095935091905b818310614ab3575050614a8a9350820101388080614a7b565b85548884018501529485019487945091830191614a9a565b92505050614a8a94925060ff191682840152151560051b820101388080614a7b565b60609060031901126102ce57600435906024356001600160a01b03811681036102ce579060443590565b15614b1e57565b60405162461bcd60e51b8152602060048201526013602482015272141bdb1b08191bd95cc81b9bdd08195e1a5cdd606a1b6044820152606490fd5b15614b6057565b60405162461bcd60e51b815260206004820152602860248201527f46756e64696e6720746f6b656e206d75737420626520455448206f72207768696044820152671d195b1a5cdd195960c21b6064820152608490fd5b90614bc08161481f565b815460ff60a01b191660a09190911b60ff60a01b16179055565b6000198114614be95760010190565b634e487b7160e01b600052601160045260246000fd5b91908201809211614be957565b81810292918115918404141715614be957565b6000916001915b81831115614c4e57505050670de0b6b3a764000090818102918183041490151715614be95790565b909192614c71614c7791614c6b614c658786614bff565b80614c0c565b90614bff565b93614bda565b9190614c26565b600754908115614c995761271091614c9591614c0c565b0490565b5050600090565b15614ca757565b60405162461bcd60e51b8152602060048201526012602482015271506f6c6c206973206e6f742061637469766560701b6044820152606490fd5b15614ce857565b60405162461bcd60e51b815260206004820152600e60248201526d141bdb1b081a185cc8195b99195960921b6044820152606490fd5b15614d2557565b60405162461bcd60e51b815260206004820152600e60248201526d24b73b30b634b21037b83a34b7b760911b6044820152606490fd5b15614d6257565b60405162461bcd60e51b8152602060048201526014602482015273139bdd0818481c5d58591c985d1a58c81c1bdb1b60621b6044820152606490fd5b8054821015614db65760005260206000200190600090565b634e487b7160e01b600052603260045260246000fd5b9190811015614db65760051b0190565b356001600160a01b03811681036102ce5790565b3d15614e1b573d90614e0182614908565b91614e0f60405193846148e7565b82523d6000602084013e565b606090565b15614e2757565b60405162461bcd60e51b8152602060048201526013602482015272115512081d1c985b9cd9995c8819985a5b1959606a1b6044820152606490fd5b90614e6c82614978565b614e7960405191826148e7565b8281528092614e8a601f1991614978565b0190602036910137565b8051821015614db65760209160051b010190565b15614eaf57565b60405162461bcd60e51b815260206004820152601560248201527424b73b30b634b2103837b63610323ab930ba34b7b760591b6044820152606490fd5b91908203918211614be957565b15614f0057565b60405162461bcd60e51b8152602060048201526015602482015274151bdad95b881b9bdd081dda1a5d195b1a5cdd1959605a1b6044820152606490fd5b15614f4457565b60405162461bcd60e51b815260206004820152601c60248201527f506c6174666f726d20666565207472616e73666572206661696c6564000000006044820152606490fd5b90600681101561080d57815460ff60b01b191660b09190911b60ff60b01b16179055565b15614fb457565b60405162461bcd60e51b815260206004820152602760248201527f5468697320706f6c6c206f6e6c7920616363657074732061207370656369666960448201526631903a37b5b2b760c91b6064820152608490fd5b6001600160a01b03908116908115615064576000805160206158ff83398151915280546001600160a01b031981168417909155167f8be0079c531659141344cd1fd0a4f28419497f9722a3daafe3b4186f6b6457e0600080a3565b604051631e4fbdf760e01b815260006004820152602490fd5b818110615088575050565b6000815560010161507d565b949093918551156131085760028551106130b957600a85511161306657610e10811015806156d4575b6150c690614ea8565b6001600160a01b03918483161580156156b9575b6150e390614b59565b600281101561080d57600181146155ab575b6003549761510289614bda565b60035588600052600060205260406000209689885588516001600160401b038111610d105761513460018a0154614a0e565b601f8111615576575b506020601f821160011461550957908061516c926000916154fe57508160011b916000199060031b1c19161790565b60018901555b8051600160401b8111610d105760028901548160028b0155808210615486575b50602082019060028a016000526020600020916000905b82821061537657505050506151be9051614e62565b600388018151916001600160401b038311610d1057600160401b8311610d10576020908254848455808510615359575b50908c9a9998979695949392910190600052602060002060005b83811061534257505050600588018054610100600160a81b0319163360081b610100600160a81b0316178155600060068a015560078901805460ff19908116909155600b8a0180546001600160a01b031916979099169690961788557f9dbafd4116dcead87280b4bad16e92c851a647fbf87a77e05cf6b29c8fcdc33c98600498909790969195919491939192506152a09087614bb6565b855460ff60b81b19811660b89390931b60ff60b81b16928317875591901561530f575050906152d160019242614bff565b85870155825416179055805461ffff60a81b191690555b01549261530060405191604083526040830190614829565b9360208201528033940390a390565b86880192909255835490921690925562ff00ff60a81b191617600160aa1b1760ff60b01b1916600160b21b1790556152e8565b8251818301558d9b50602090920191600101615208565b61537090846000528584600020918201910161507d565b386151ee565b80518051906001600160401b038211610d10576153938654614a0e565b601f8111615454575b50602090601f83116001146153e457926153d583600195946020948796600092610d955750508160011b916000199060031b1c19161790565b87555b019401910190926151a9565b908660005260206000209160005b601f198516811061543c575083602093600196938796938794601f19811610615423575b505050811b0187556153d8565b015160001960f88460031b161c19169055388080615416565b919260206001819286850151815501940192016153f2565b615480908760005260206000206005601f8601811c82019260208710610e4357601f01901c019061507d565b3861539c565b60028a016000526020600020908282015b81830181106154a7575050615192565b806154b460019254614a0e565b806154c1575b5001615497565b601f811183146154d75750600081555b386154ba565b6000908282526154f5601f60208420920160051c820185830161507d565b818355556154d1565b90508b015138610b4c565b9060018a0160005260206000206000925b8c601f198416851061555f57506001935082601f19811610615546575b5050811b016001890155615172565b8c015160001960f88460031b161c191690553880615537565b81015182556020938401936001909201910161551a565b6155a59060018b016000526020600020601f840160051c81019160208510610f7257601f0160051c019061507d565b3861513d565b8260045416801561567957602060249160405192838092630e76e53360e41b82523360048301525afa90811561104257600091615637575b506150f55760405162461bcd60e51b815260206004820152602160248201527f51756164726174696320766f74696e67207265717569726573207072656d69756044820152606d60f81b6064820152608490fd5b6020813d602011615671575b81615650602093836148e7565b8101031261566d575190811515820361566a5750386155e3565b80fd5b5080fd5b3d9150615643565b60405162461bcd60e51b8152602060048201526018602482015277141c995b5a5d5b4818dbdb9d1c9858dd081b9bdd081cd95d60421b6044820152606490fd5b5084831660009081526001602052604090205460ff166150da565b5062278d008111156150bd565b6000805160206158ff833981519152546001600160a01b0316330361570257565b60405163118cdaa760e01b8152336004820152602490fd5b60008051602061595f83398151915260028154146157385760029055565b604051633ee5aeb560e01b8152600490fd5b6040516323b872dd60e01b60208201526001600160a01b03928316602482015292909116604483015260648083019390935291815260a08101918183106001600160401b03841117610d1057614a8a926040526157de565b60405163a9059cbb60e01b60208201526001600160a01b03929092166024830152604480830193909352918152614a8a916157de6064836148e7565b906000602091828151910182855af115611042576000513d61583157506001600160a01b0381163b155b61580f5750565b604051635274afe760e01b81526001600160a01b039091166004820152602490fd5b60011415615808565b60ff7ff0c57e16840df040f15088dc2f81fe391c3923bec73e23a9662efc9c229c6a005460401c161561586957565b604051631afcd79f60e31b8152600490fd5b906158a2575080511561589057602081519101fd5b60405163d6bda27560e01b8152600490fd5b815115806158d5575b6158b3575090565b604051639996b31560e01b81526001600160a01b039091166004820152602490fd5b50803b156158ab56fe08598a13ecc389f337a1d3d328285b1a0c0775752c2068a18ef2d00f2be415cc9016d09d72d40fdae2fd8ceac6b6234c7706214fd39c1cd1e609a0528c1993003e231b10c827a2698b8e84aa3d395d37d5620225e01463563fd196b02ef77ec40e3da9f587b3fa2df2f1db3bde132c95d4065333c6197afe541940b11b5173029b779b17422d0df92223018b32b4d1fa46e071723d6817e2486d003becc55f00a2646970667358221220ef47fd60fd8d5e9ef2b50b40396bfa677a7445850b717ba8cbab2f42307dd2b464736f6c63430008160033",
  "linkReferences": {},
  "deployedLinkReferences": {}
}