{
  "_format": "hh-sol-artifact-1",
  "contractName": "PollsContract",
  "sourceName": "contracts/PollsContract.sol",
  "abi": [
    {
      "inputs": [],
      "stateMutability": "nonpayable",
      "type": "constructor"
    },
    {
      "inputs": [
        {
          "internalType": "address",
          "name": "target",
          "type": "address"
        }
      ],
      "name": "AddressEmptyCode",
      "type": "error"
    },
    {
      "inputs": [
        {
          "internalType": "address",
          "name": "implementation",
          "type": "address"
        }
      ],
      "name": "ERC1967InvalidImplementation",
      "type": "error"
    },
    {
      "inputs": [],
      "name": "ERC1967NonPayable",
      "type": "error"
    },
    {
      "inputs": [],
      "name": "FailedCall",
      "type": "error"
    },
    {
      "inputs": [],
      "name": "InvalidInitialization",
      "type": "error"
    },
    {
      "inputs": [],
      "name": "NotInitializing",
      "type": "error"
    },
    {
      "inputs": [
        {
          "internalType": "address",
          "name": "owner",
          "type": "address"
        }
      ],
      "name": "OwnableInvalidOwner",
      "type": "error"
    },
    {
      "inputs": [
        {
          "internalType": "address",
          "name": "account",
          "type": "address"
        }
      ],
      "name": "OwnableUnauthorizedAccount",
      "type": "error"
    },
    {
      "inputs": [],
      "name": "ReentrancyGuardReentrantCall",
      "type": "error"
    },
    {
      "inputs": [
        {
          "internalType": "address",
          "name": "token",
          "type": "address"
        }
      ],
      "name": "SafeERC20FailedOperation",
      "type": "error"
    },
    {
      "inputs": [],
      "name": "UUPSUnauthorizedCallContext",
      "type": "error"
    },
    {
      "inputs": [
        {
          "internalType": "bytes32",
          "name": "slot",
          "type": "bytes32"
        }
      ],
      "name": "UUPSUnsupportedProxiableUUID",
      "type": "error"
    },
    {
      "anonymous": false,
      "inputs": [
        {
          "indexed": true,
          "internalType": "uint256",
          "name": "pollId",
          "type": "uint256"
        },
        {
          "indexed": false,
          "internalType": "enum PollsContract.DistributionMode",
          "name": "mode",
          "type": "uint8"
        },
        {
          "indexed": false,
          "internalType": "uint256",
          "name": "timestamp",
          "type": "uint256"
        }
      ],
      "name": "DistributionModeSet",
      "type": "event"
    },
    {
      "anonymous": false,
      "inputs": [
        {
          "indexed": true,
          "internalType": "uint256",
          "name": "pollId",
          "type": "uint256"
        },
        {
          "indexed": true,
          "internalType": "address",
          "name": "recipient",
          "type": "address"
        },
        {
          "indexed": false,
          "internalType": "address",
          "name": "token",
          "type": "address"
        },
        {
          "indexed": false,
          "internalType": "uint256",
          "name": "amount",
          "type": "uint256"
        }
      ],
      "name": "FundsWithdrawn",
      "type": "event"
    },
    {
      "anonymous": false,
      "inputs": [
        {
          "indexed": false,
          "internalType": "uint64",
          "name": "version",
          "type": "uint64"
        }
      ],
      "name": "Initialized",
      "type": "event"
    },
    {
      "anonymous": false,
      "inputs": [
        {
          "indexed": true,
          "internalType": "address",
          "name": "previousOwner",
          "type": "address"
        },
        {
          "indexed": true,
          "internalType": "address",
          "name": "newOwner",
          "type": "address"
        }
      ],
      "name": "OwnershipTransferred",
      "type": "event"
    },
    {
      "anonymous": false,
      "inputs": [
        {
          "indexed": true,
          "internalType": "uint256",
          "name": "pollId",
          "type": "uint256"
        },
        {
          "indexed": true,
          "internalType": "address",
          "name": "creator",
          "type": "address"
        },
        {
          "indexed": false,
          "internalType": "string",
          "name": "question",
          "type": "string"
        },
        {
          "indexed": false,
          "internalType": "uint256",
          "name": "endTime",
          "type": "uint256"
        }
      ],
      "name": "PollCreated",
      "type": "event"
    },
    {
      "anonymous": false,
      "inputs": [
        {
          "indexed": true,
          "internalType": "uint256",
          "name": "pollId",
          "type": "uint256"
        },
        {
          "indexed": false,
          "internalType": "uint256",
          "name": "timestamp",
          "type": "uint256"
        }
      ],
      "name": "PollFinalized",
      "type": "event"
    },
    {
      "anonymous": false,
      "inputs": [
        {
          "indexed": true,
          "internalType": "uint256",
          "name": "pollId",
          "type": "uint256"
        },
        {
          "indexed": true,
          "internalType": "address",
          "name": "funder",
          "type": "address"
        },
        {
          "indexed": false,
          "internalType": "address",
          "name": "token",
          "type": "address"
        },
        {
          "indexed": false,
          "internalType": "uint256",
          "name": "amount",
          "type": "uint256"
        }
      ],
      "name": "PollFunded",
      "type": "event"
    },
    {
      "anonymous": false,
      "inputs": [
        {
          "indexed": true,
          "internalType": "uint256",
          "name": "pollId",
          "type": "uint256"
        },
        {
          "indexed": false,
          "internalType": "uint256",
          "name": "timestamp",
          "type": "uint256"
        }
      ],
      "name": "PollPaused",
      "type": "event"
    },
    {
      "anonymous": false,
      "inputs": [
        {
          "indexed": true,
          "internalType": "uint256",
          "name": "pollId",
          "type": "uint256"
        },
        {
          "indexed": false,
          "internalType": "uint256",
          "name": "timestamp",
          "type": "uint256"
        }
      ],
      "name": "PollPublished",
      "type": "event"
    },
    {
      "anonymous": false,
      "inputs": [
        {
          "indexed": true,
          "internalType": "uint256",
          "name": "pollId",
          "type": "uint256"
        },
        {
          "indexed": false,
          "internalType": "uint256",
          "name": "timestamp",
          "type": "uint256"
        }
      ],
      "name": "PollResumed",
      "type": "event"
    },
    {
      "anonymous": false,
      "inputs": [
        {
          "indexed": true,
          "internalType": "uint256",
          "name": "pollId",
          "type": "uint256"
        },
        {
          "indexed": true,
          "internalType": "enum PollsContract.PollStatus",
          "name": "oldStatus",
          "type": "uint8"
        },
        {
          "indexed": true,
          "internalType": "enum PollsContract.PollStatus",
          "name": "newStatus",
          "type": "uint8"
        },
        {
          "indexed": false,
          "internalType": "uint256",
          "name": "timestamp",
          "type": "uint256"
        }
      ],
      "name": "PollStatusChanged",
      "type": "event"
    },
    {
      "anonymous": false,
      "inputs": [
        {
          "indexed": true,
          "internalType": "address",
          "name": "oldContract",
          "type": "address"
        },
        {
          "indexed": true,
          "internalType": "address",
          "name": "newContract",
          "type": "address"
        }
      ],
      "name": "PremiumContractUpdated",
      "type": "event"
    },
    {
      "anonymous": false,
      "inputs": [
        {
          "indexed": true,
          "internalType": "address",
          "name": "oldToken",
          "type": "address"
        },
        {
          "indexed": true,
          "internalType": "address",
          "name": "newToken",
          "type": "address"
        }
      ],
      "name": "PulseTokenUpdated",
      "type": "event"
    },
    {
      "anonymous": false,
      "inputs": [
        {
          "indexed": true,
          "internalType": "address",
          "name": "oldTreasury",
          "type": "address"
        },
        {
          "indexed": true,
          "internalType": "address",
          "name": "newTreasury",
          "type": "address"
        }
      ],
      "name": "QuadraticVotingTreasuryUpdated",
      "type": "event"
    },
    {
      "anonymous": false,
      "inputs": [
        {
          "indexed": true,
          "internalType": "uint256",
          "name": "pollId",
          "type": "uint256"
        },
        {
          "indexed": true,
          "internalType": "address",
          "name": "claimer",
          "type": "address"
        },
        {
          "indexed": false,
          "internalType": "uint256",
          "name": "amount",
          "type": "uint256"
        },
        {
          "indexed": false,
          "internalType": "address",
          "name": "token",
          "type": "address"
        },
        {
          "indexed": false,
          "internalType": "uint256",
          "name": "timestamp",
          "type": "uint256"
        }
      ],
      "name": "RewardClaimed",
      "type": "event"
    },
    {
      "anonymous": false,
      "inputs": [
        {
          "indexed": true,
          "internalType": "uint256",
          "name": "pollId",
          "type": "uint256"
        },
        {
          "indexed": true,
          "internalType": "address",
          "name": "recipient",
          "type": "address"
        },
        {
          "indexed": false,
          "internalType": "uint256",
          "name": "amount",
          "type": "uint256"
        },
        {
          "indexed": false,
          "internalType": "address",
          "name": "token",
          "type": "address"
        },
        {
          "indexed": false,
          "internalType": "uint256",
          "name": "timestamp",
          "type": "uint256"
        }
      ],
      "name": "RewardDistributed",
      "type": "event"
    },
    {
      "anonymous": false,
      "inputs": [
        {
          "indexed": true,
          "internalType": "address",
          "name": "token",
          "type": "address"
        },
        {
          "indexed": false,
          "internalType": "bool",
          "name": "status",
          "type": "bool"
        }
      ],
      "name": "TokenWhitelisted",
      "type": "event"
    },
    {
      "anonymous": false,
      "inputs": [
        {
          "indexed": true,
          "internalType": "address",
          "name": "implementation",
          "type": "address"
        }
      ],
      "name": "Upgraded",
      "type": "event"
    },
    {
      "anonymous": false,
      "inputs": [
        {
          "indexed": true,
          "internalType": "uint256",
          "name": "pollId",
          "type": "uint256"
        },
        {
          "indexed": true,
          "internalType": "address",
          "name": "voter",
          "type": "address"
        },
        {
          "indexed": false,
          "internalType": "uint256",
          "name": "optionIndex",
          "type": "uint256"
        }
      ],
      "name": "Voted",
      "type": "event"
    },
    {
      "anonymous": false,
      "inputs": [
        {
          "indexed": true,
          "internalType": "uint256",
          "name": "pollId",
          "type": "uint256"
        },
        {
          "indexed": true,
          "internalType": "address",
          "name": "voter",
          "type": "address"
        },
        {
          "indexed": false,
          "internalType": "uint256",
          "name": "optionIndex",
          "type": "uint256"
        },
        {
          "indexed": false,
          "internalType": "uint256",
          "name": "numVotes",
          "type": "uint256"
        },
        {
          "indexed": false,
          "internalType": "uint256",
          "name": "cost",
          "type": "uint256"
        },
        {
          "indexed": false,
          "internalType": "uint256",
          "name": "timestamp",
          "type": "uint256"
        }
      ],
      "name": "VotesBought",
      "type": "event"
    },
    {
      "inputs": [],
      "name": "MAX_POLL_DURATION",
      "outputs": [
        {
          "internalType": "uint256",
          "name": "",
          "type": "uint256"
        }
      ],
      "stateMutability": "view",
      "type": "function"
    },
    {
      "inputs": [],
      "name": "MIN_POLL_DURATION",
      "outputs": [
        {
          "internalType": "uint256",
          "name": "",
          "type": "uint256"
        }
      ],
      "stateMutability": "view",
      "type": "function"
    },
    {
      "inputs": [],
      "name": "UPGRADE_INTERFACE_VERSION",
      "outputs": [
        {
          "internalType": "string",
          "name": "",
          "type": "string"
        }
      ],
      "stateMutability": "view",
      "type": "function"
    },
    {
      "inputs": [
        {
          "internalType": "uint256",
          "name": "pollId",
          "type": "uint256"
        },
        {
          "internalType": "uint256",
          "name": "optionIndex",
          "type": "uint256"
        },
        {
          "internalType": "uint256",
          "name": "numVotes",
          "type": "uint256"
        }
      ],
      "name": "buyVotes",
      "outputs": [],
      "stateMutability": "nonpayable",
      "type": "function"
    },
    {
      "inputs": [
        {
          "internalType": "uint256",
          "name": "currentVotes",
          "type": "uint256"
        },
        {
          "internalType": "uint256",
          "name": "additionalVotes",
          "type": "uint256"
        }
      ],
      "name": "calculateQuadraticCost",
      "outputs": [
        {
          "internalType": "uint256",
          "name": "",
          "type": "uint256"
        }
      ],
      "stateMutability": "pure",
      "type": "function"
    },
    {
      "inputs": [
        {
          "internalType": "uint256",
          "name": "pollId",
          "type": "uint256"
        }
      ],
      "name": "closePoll",
      "outputs": [],
      "stateMutability": "nonpayable",
      "type": "function"
    },
    {
      "inputs": [
        {
          "internalType": "string",
          "name": "question",
          "type": "string"
        },
        {
          "internalType": "string[]",
          "name": "options",
          "type": "string[]"
        },
        {
          "internalType": "uint256",
          "name": "duration",
          "type": "uint256"
        },
        {
          "internalType": "address",
          "name": "fundingToken",
          "type": "address"
        },
        {
          "internalType": "enum PollsContract.FundingType",
          "name": "fundingType",
          "type": "uint8"
        }
      ],
      "name": "createPoll",
      "outputs": [
        {
          "internalType": "uint256",
          "name": "",
          "type": "uint256"
        }
      ],
      "stateMutability": "nonpayable",
      "type": "function"
    },
    {
      "inputs": [
        {
          "internalType": "string",
          "name": "question",
          "type": "string"
        },
        {
          "internalType": "string[]",
          "name": "options",
          "type": "string[]"
        },
        {
          "internalType": "uint256",
          "name": "duration",
          "type": "uint256"
        },
        {
          "internalType": "address",
          "name": "fundingToken",
          "type": "address"
        },
        {
          "internalType": "enum PollsContract.FundingType",
          "name": "fundingType",
          "type": "uint8"
        },
        {
          "internalType": "enum PollsContract.VotingType",
          "name": "votingType",
          "type": "uint8"
        }
      ],
      "name": "createPollWithVotingType",
      "outputs": [
        {
          "internalType": "uint256",
          "name": "",
          "type": "uint256"
        }
      ],
      "stateMutability": "nonpayable",
      "type": "function"
    },
    {
      "inputs": [
        {
          "internalType": "string",
          "name": "question",
          "type": "string"
        },
        {
          "internalType": "string[]",
          "name": "options",
          "type": "string[]"
        },
        {
          "internalType": "uint256",
          "name": "duration",
          "type": "uint256"
        },
        {
          "internalType": "address",
          "name": "fundingToken",
          "type": "address"
        },
        {
          "internalType": "enum PollsContract.FundingType",
          "name": "fundingType",
          "type": "uint8"
        },
        {
          "internalType": "enum PollsContract.VotingType",
          "name": "votingType",
          "type": "uint8"
        },
        {
          "internalType": "bool",
          "name": "publish",
          "type": "bool"
        }
      ],
      "name": "createPollWithVotingTypeAndPublish",
      "outputs": [
        {
          "internalType": "uint256",
          "name": "",
          "type": "uint256"
        }
      ],
      "stateMutability": "nonpayable",
      "type": "function"
    },
    {
      "inputs": [
        {
          "internalType": "uint256",
          "name": "pollId",
          "type": "uint256"
        },
        {
          "internalType": "address",
          "name": "token",
          "type": "address"
        },
        {
          "internalType": "address[]",
          "name": "recipients",
          "type": "address[]"
        },
        {
          "internalType": "uint256[]",
          "name": "amounts",
          "type": "uint256[]"
        }
      ],
      "name": "distributeRewards",
      "outputs": [],
      "stateMutability": "nonpayable",
      "type": "function"
    },
    {
      "inputs": [
        {
          "internalType": "uint256",
          "name": "pollId",
          "type": "uint256"
        }
      ],
      "name": "finalizePoll",
      "outputs": [],
      "stateMutability": "nonpayable",
      "type": "function"
    },
    {
      "inputs": [
        {
          "internalType": "uint256",
          "name": "pollId",
          "type": "uint256"
        }
      ],
      "name": "fundPollWithETH",
      "outputs": [],
      "stateMutability": "payable",
      "type": "function"
    },
    {
      "inputs": [
        {
          "internalType": "uint256",
          "name": "pollId",
          "type": "uint256"
        },
        {
          "internalType": "address",
          "name": "token",
          "type": "address"
        },
        {
          "internalType": "uint256",
          "name": "amount",
          "type": "uint256"
        }
      ],
      "name": "fundPollWithToken",
      "outputs": [],
      "stateMutability": "nonpayable",
      "type": "function"
    },
    {
      "inputs": [],
      "name": "getActivePolls",
      "outputs": [
        {
          "internalType": "uint256[]",
          "name": "",
          "type": "uint256[]"
        }
      ],
      "stateMutability": "view",
      "type": "function"
    },
    {
      "inputs": [
        {
          "internalType": "uint256",
          "name": "pollId",
          "type": "uint256"
        }
      ],
      "name": "getDistributionMode",
      "outputs": [
        {
          "internalType": "enum PollsContract.DistributionMode",
          "name": "",
          "type": "uint8"
        }
      ],
      "stateMutability": "view",
      "type": "function"
    },
    {
      "inputs": [
        {
          "internalType": "address",
          "name": "creator",
          "type": "address"
        }
      ],
      "name": "getDraftPolls",
      "outputs": [
        {
          "internalType": "uint256[]",
          "name": "",
          "type": "uint256[]"
        }
      ],
      "stateMutability": "view",
      "type": "function"
    },
    {
      "inputs": [
        {
          "internalType": "uint256",
          "name": "pollId",
          "type": "uint256"
        }
      ],
      "name": "getPoll",
      "outputs": [
        {
          "internalType": "uint256",
          "name": "id",
          "type": "uint256"
        },
        {
          "internalType": "string",
          "name": "question",
          "type": "string"
        },
        {
          "internalType": "string[]",
          "name": "options",
          "type": "string[]"
        },
        {
          "internalType": "uint256[]",
          "name": "votes",
          "type": "uint256[]"
        },
        {
          "internalType": "uint256",
          "name": "endTime",
          "type": "uint256"
        },
        {
          "internalType": "bool",
          "name": "isActive",
          "type": "bool"
        },
        {
          "internalType": "address",
          "name": "creator",
          "type": "address"
        },
        {
          "internalType": "uint256",
          "name": "totalFunding",
          "type": "uint256"
        },
        {
          "internalType": "enum PollsContract.DistributionMode",
          "name": "distributionMode",
          "type": "uint8"
        },
        {
          "internalType": "address",
          "name": "fundingToken",
          "type": "address"
        },
        {
          "internalType": "enum PollsContract.FundingType",
          "name": "fundingType",
          "type": "uint8"
        },
        {
          "internalType": "enum PollsContract.PollStatus",
          "name": "status",
          "type": "uint8"
        },
        {
          "internalType": "enum PollsContract.PollStatus",
          "name": "previousStatus",
          "type": "uint8"
        },
        {
          "internalType": "enum PollsContract.VotingType",
          "name": "votingType",
          "type": "uint8"
        },
        {
          "internalType": "uint256",
          "name": "totalVotesBought",
          "type": "uint256"
        }
      ],
      "stateMutability": "view",
      "type": "function"
    },
    {
      "inputs": [
        {
          "internalType": "uint256",
          "name": "pollId",
          "type": "uint256"
        },
        {
          "internalType": "address",
          "name": "token",
          "type": "address"
        }
      ],
      "name": "getPollTokenBalance",
      "outputs": [
        {
          "internalType": "uint256",
          "name": "",
          "type": "uint256"
        }
      ],
      "stateMutability": "view",
      "type": "function"
    },
    {
      "inputs": [
        {
          "internalType": "uint256",
          "name": "pollId",
          "type": "uint256"
        }
      ],
      "name": "getTotalVotesBought",
      "outputs": [
        {
          "internalType": "uint256",
          "name": "",
          "type": "uint256"
        }
      ],
      "stateMutability": "view",
      "type": "function"
    },
    {
      "inputs": [
        {
          "internalType": "uint256",
          "name": "pollId",
          "type": "uint256"
        },
        {
          "internalType": "address",
          "name": "user",
          "type": "address"
        }
      ],
      "name": "getUserFunding",
      "outputs": [
        {
          "internalType": "uint256",
          "name": "",
          "type": "uint256"
        }
      ],
      "stateMutability": "view",
      "type": "function"
    },
    {
      "inputs": [
        {
          "internalType": "uint256",
          "name": "pollId",
          "type": "uint256"
        },
        {
          "internalType": "address",
          "name": "voter",
          "type": "address"
        }
      ],
      "name": "getUserVotesInPoll",
      "outputs": [
        {
          "internalType": "uint256",
          "name": "",
          "type": "uint256"
        }
      ],
      "stateMutability": "view",
      "type": "function"
    },
    {
      "inputs": [
        {
          "internalType": "uint256",
          "name": "pollId",
          "type": "uint256"
        }
      ],
      "name": "getVotingType",
      "outputs": [
        {
          "internalType": "enum PollsContract.VotingType",
          "name": "",
          "type": "uint8"
        }
      ],
      "stateMutability": "view",
      "type": "function"
    },
    {
      "inputs": [
        {
          "internalType": "uint256",
          "name": "pollId",
          "type": "uint256"
        },
        {
          "internalType": "address",
          "name": "user",
          "type": "address"
        }
      ],
      "name": "hasUserVoted",
      "outputs": [
        {
          "internalType": "bool",
          "name": "",
          "type": "bool"
        }
      ],
      "stateMutability": "view",
      "type": "function"
    },
    {
      "inputs": [],
      "name": "initialize",
      "outputs": [],
      "stateMutability": "nonpayable",
      "type": "function"
    },
    {
      "inputs": [
        {
          "internalType": "uint256",
          "name": "pollId",
          "type": "uint256"
        }
      ],
      "name": "isPollActive",
      "outputs": [
        {
          "internalType": "bool",
          "name": "",
          "type": "bool"
        }
      ],
      "stateMutability": "view",
      "type": "function"
    },
    {
      "inputs": [
        {
          "internalType": "uint256",
          "name": "startPollId",
          "type": "uint256"
        },
        {
          "internalType": "uint256",
          "name": "endPollId",
          "type": "uint256"
        }
      ],
      "name": "migratePolls",
      "outputs": [],
      "stateMutability": "nonpayable",
      "type": "function"
    },
    {
      "inputs": [],
      "name": "nextPollId",
      "outputs": [
        {
          "internalType": "uint256",
          "name": "",
          "type": "uint256"
        }
      ],
      "stateMutability": "view",
      "type": "function"
    },
    {
      "inputs": [],
      "name": "owner",
      "outputs": [
        {
          "internalType": "address",
          "name": "",
          "type": "address"
        }
      ],
      "stateMutability": "view",
      "type": "function"
    },
    {
      "inputs": [
        {
          "internalType": "uint256",
          "name": "pollId",
          "type": "uint256"
        }
      ],
      "name": "pausePoll",
      "outputs": [],
      "stateMutability": "nonpayable",
      "type": "function"
    },
    {
      "inputs": [
        {
          "internalType": "uint256",
          "name": "",
          "type": "uint256"
        },
        {
          "internalType": "address",
          "name": "",
          "type": "address"
        }
      ],
      "name": "pollTokenBalances",
      "outputs": [
        {
          "internalType": "uint256",
          "name": "",
          "type": "uint256"
        }
      ],
      "stateMutability": "view",
      "type": "function"
    },
    {
      "inputs": [
        {
          "internalType": "uint256",
          "name": "",
          "type": "uint256"
        }
      ],
      "name": "polls",
      "outputs": [
        {
          "internalType": "uint256",
          "name": "id",
          "type": "uint256"
        },
        {
          "internalType": "string",
          "name": "question",
          "type": "string"
        },
        {
          "internalType": "uint256",
          "name": "endTime",
          "type": "uint256"
        },
        {
          "internalType": "bool",
          "name": "isActive",
          "type": "bool"
        },
        {
          "internalType": "address",
          "name": "creator",
          "type": "address"
        },
        {
          "internalType": "uint256",
          "name": "totalFunding",
          "type": "uint256"
        },
        {
          "internalType": "enum PollsContract.DistributionMode",
          "name": "distributionMode",
          "type": "uint8"
        },
        {
          "internalType": "address",
          "name": "fundingToken",
          "type": "address"
        },
        {
          "internalType": "enum PollsContract.FundingType",
          "name": "fundingType",
          "type": "uint8"
        },
        {
          "internalType": "enum PollsContract.PollStatus",
          "name": "status",
          "type": "uint8"
        },
        {
          "internalType": "enum PollsContract.PollStatus",
          "name": "previousStatus",
          "type": "uint8"
        },
        {
          "internalType": "enum PollsContract.VotingType",
          "name": "votingType",
          "type": "uint8"
        },
        {
          "internalType": "uint256",
          "name": "totalVotesBought",
          "type": "uint256"
        }
      ],
      "stateMutability": "view",
      "type": "function"
    },
    {
      "inputs": [],
      "name": "premiumContract",
      "outputs": [
        {
          "internalType": "contract IPremiumSubscription",
          "name": "",
          "type": "address"
        }
      ],
      "stateMutability": "view",
      "type": "function"
    },
    {
      "inputs": [
        {
          "internalType": "uint256",
          "name": "pollId",
          "type": "uint256"
        },
        {
          "internalType": "address",
          "name": "voter",
          "type": "address"
        },
        {
          "internalType": "uint256",
          "name": "numVotes",
          "type": "uint256"
        }
      ],
      "name": "previewVoteCost",
      "outputs": [
        {
          "internalType": "uint256",
          "name": "",
          "type": "uint256"
        }
      ],
      "stateMutability": "view",
      "type": "function"
    },
    {
      "inputs": [],
      "name": "proxiableUUID",
      "outputs": [
        {
          "internalType": "bytes32",
          "name": "",
          "type": "bytes32"
        }
      ],
      "stateMutability": "view",
      "type": "function"
    },
    {
      "inputs": [
        {
          "internalType": "uint256",
          "name": "pollId",
          "type": "uint256"
        }
      ],
      "name": "publishPoll",
      "outputs": [],
      "stateMutability": "nonpayable",
      "type": "function"
    },
    {
      "inputs": [],
      "name": "pulseToken",
      "outputs": [
        {
          "internalType": "contract IERC20",
          "name": "",
          "type": "address"
        }
      ],
      "stateMutability": "view",
      "type": "function"
    },
    {
      "inputs": [],
      "name": "quadraticVotingTreasury",
      "outputs": [
        {
          "internalType": "address",
          "name": "",
          "type": "address"
        }
      ],
      "stateMutability": "view",
      "type": "function"
    },
    {
      "inputs": [],
      "name": "renounceOwnership",
      "outputs": [],
      "stateMutability": "nonpayable",
      "type": "function"
    },
    {
      "inputs": [
        {
          "internalType": "uint256",
          "name": "pollId",
          "type": "uint256"
        }
      ],
      "name": "resumePoll",
      "outputs": [],
      "stateMutability": "nonpayable",
      "type": "function"
    },
    {
      "inputs": [
        {
          "internalType": "uint256",
          "name": "pollId",
          "type": "uint256"
        },
        {
          "internalType": "enum PollsContract.DistributionMode",
          "name": "mode",
          "type": "uint8"
        }
      ],
      "name": "setDistributionMode",
      "outputs": [],
      "stateMutability": "nonpayable",
      "type": "function"
    },
    {
      "inputs": [
        {
          "internalType": "uint256",
          "name": "pollId",
          "type": "uint256"
        }
      ],
      "name": "setForClaiming",
      "outputs": [],
      "stateMutability": "nonpayable",
      "type": "function"
    },
    {
      "inputs": [
        {
          "internalType": "uint256",
          "name": "pollId",
          "type": "uint256"
        },
        {
          "internalType": "address",
          "name": "fundingToken",
          "type": "address"
        }
      ],
      "name": "setFundingToken",
      "outputs": [],
      "stateMutability": "nonpayable",
      "type": "function"
    },
    {
      "inputs": [
        {
          "internalType": "uint256",
          "name": "pollId",
          "type": "uint256"
        },
        {
          "internalType": "enum PollsContract.FundingType",
          "name": "fundingType",
          "type": "uint8"
        }
      ],
      "name": "setFundingType",
      "outputs": [],
      "stateMutability": "nonpayable",
      "type": "function"
    },
    {
      "inputs": [
        {
          "internalType": "address",
          "name": "_premiumContract",
          "type": "address"
        }
      ],
      "name": "setPremiumContract",
      "outputs": [],
      "stateMutability": "nonpayable",
      "type": "function"
    },
    {
      "inputs": [
        {
          "internalType": "address",
          "name": "_pulseToken",
          "type": "address"
        }
      ],
      "name": "setPulseToken",
      "outputs": [],
      "stateMutability": "nonpayable",
      "type": "function"
    },
    {
      "inputs": [
        {
          "internalType": "address",
          "name": "_treasury",
          "type": "address"
        }
      ],
      "name": "setQuadraticVotingTreasury",
      "outputs": [],
      "stateMutability": "nonpayable",
      "type": "function"
    },
    {
      "inputs": [
        {
          "internalType": "address",
          "name": "newOwner",
          "type": "address"
        }
      ],
      "name": "transferOwnership",
      "outputs": [],
      "stateMutability": "nonpayable",
      "type": "function"
    },
    {
      "inputs": [
        {
          "internalType": "address",
          "name": "newImplementation",
          "type": "address"
        },
        {
          "internalType": "bytes",
          "name": "data",
          "type": "bytes"
        }
      ],
      "name": "upgradeToAndCall",
      "outputs": [],
      "stateMutability": "payable",
      "type": "function"
    },
    {
      "inputs": [
        {
          "internalType": "uint256",
          "name": "pollId",
          "type": "uint256"
        },
        {
          "internalType": "uint256",
          "name": "optionIndex",
          "type": "uint256"
        }
      ],
      "name": "vote",
      "outputs": [],
      "stateMutability": "nonpayable",
      "type": "function"
    },
    {
      "inputs": [
        {
          "internalType": "address",
          "name": "token",
          "type": "address"
        },
        {
          "internalType": "bool",
          "name": "status",
          "type": "bool"
        }
      ],
      "name": "whitelistToken",
      "outputs": [],
      "stateMutability": "nonpayable",
      "type": "function"
    },
    {
      "inputs": [
        {
          "internalType": "address",
          "name": "",
          "type": "address"
        }
      ],
      "name": "whitelistedTokens",
      "outputs": [
        {
          "internalType": "bool",
          "name": "",
          "type": "bool"
        }
      ],
      "stateMutability": "view",
      "type": "function"
    },
    {
      "inputs": [
        {
          "internalType": "uint256",
          "name": "pollId",
          "type": "uint256"
        },
        {
          "internalType": "address",
          "name": "recipient",
          "type": "address"
        },
        {
          "internalType": "address[]",
          "name": "tokens",
          "type": "address[]"
        }
      ],
      "name": "withdrawFunds",
      "outputs": [],
      "stateMutability": "nonpayable",
      "type": "function"
    }
  ],
  "bytecode": "0x60a08060405234620000d157306080527ff0c57e16840df040f15088dc2f81fe391c3923bec73e23a9662efc9c229c6a009081549060ff8260401c16620000c257506001600160401b036002600160401b0319828216016200007c575b60405161523b9081620000d78239608051818181613478015261358a0152f35b6001600160401b031990911681179091556040519081527fc7f505b2f371ae2175ee4913f4499e1f2633a7b5936321eed1cdaeb6115181d290602090a13880806200005c565b63f92ee8a960e01b8152600490fd5b600080fdfe6080604052600436101561001257600080fd5b60003560e01c806302421743146147295780630b404a53146146db5780630c68a3d3146146c25780630ffb1d8b1461463a57806313910ea2146145f257806317657c9b146144be5780631a8cbcaa146142755780631bd3528e14613fda5780631c4bf2e614613a9c5780631d59fd7814613a7f5780631f77932214613a265780632b78657114613a085780632ec15480146139b0578063498ecc0b146137425780634f1ef2861461353b57806350af6282146134e257806352d1902d1461346557806356597e4f1461325b57806356cf9b61146132055780635a63e72714612bf55780635b0fc6e814612bcc578063638e4efb1461293e57806363a9492f1461285357806369c5029414612644578063715018a6146125da5780637f7c62141461242f5780638129fc1c146122d9578063816fc9341461226f5780638da5cb5b146122395780639534e6371461207b578063aa618ecd14612032578063ac2f007414611f2b578063ad3cb1cc14611ed3578063b384abef14611d10578063b394c5e614611b11578063cbb2327c14611ad5578063cc7dfc40146119a3578063cde202c4146117b8578063cfef17a71461178f578063d492cf4d1461107e578063d6dd31ad14610fff578063daf9c21014610fc0578063dc296ae114610f62578063dd9f9b6114610d37578063dfa8056a14610cef578063e238b76414610cd1578063e81e08de14610b5e578063e987624614610af4578063f2fde38b14610ac9578063f49b07ae14610a5f578063f562c338146102865763faa4274a1461025857600080fd5b34610281576000366003190112610281576006546040516001600160a01b039091168152602090f35b600080fd5b346102815760e0366003190112610281576004356001600160401b038111610281576102b690369060040161494d565b6024356001600160401b038111610281576102d5903690600401614982565b906044906102e16147e6565b926003608435101561028157600260a43510156102815760c435151560c4350361028157815115610a205760028151106109d257600a81511161098057610e108335101580610972575b61033490614e59565b6001600160a01b0393808516158015610957575b61035190614b4c565b600160a43514610846575b6003549361036985614bcd565b60035584600052600060205260406000209285845584516001600160401b0381116105da5761039b6001860154614a01565b601f8111610806575b506020601f821160011461079a5790806103d49260009161078f575b508160011b916000199060031b1c19161790565b60018501555b8051600160401b81116105da576002850154816002870155808210610717575b506020820190600286016000526020600020916000905b8282106105f057505050506104269051614e13565b958651966001600160401b0388116105da57600160401b88116105da576020906003860154896003880155808a106105ba575b5001966003850160005260206000209760005b8281106105a657600587018054610100600160a81b0319163360081b610100600160a81b03161781556000600689015560078801805460ff19908116909155600b890180546001600160a01b031916878a161781556020928c928c9284927f9dbafd4116dcead87280b4bad16e92c851a647fbf87a77e05cf6b29c8fcdc33c926004928f9290918e61050060843585614ba9565b835460ff60b81b60a43560b81b1660ff60b81b1982168117865560c43515610574575050906105326001923542614bdc565b85870155825416179055805461ffff60a81b191690555b0154926105616040519160408352604083019061481c565b93868201528033940390a3604051908152f35b913586880155835490921690925562ff00ff60a81b191617600160aa1b1760ff60b01b1916600160b21b179055610549565b60019060208351930192818c01550161046c565b6105d490600388016000528a846000209182019101614f91565b89610459565b634e487b7160e01b600052604160045260246000fd5b80518051906001600160401b0382116105da5761060d8654614a01565b601f81116106da575b50602090601f831160011461066a57926106508360019594602094879660009261065f575b50508160011b916000199060031b1c19161790565b87555b01940191019092610411565b01519050388061063b565b908660005260206000209160005b601f19851681106106c2575083602093600196938796938794601f198116106106a9575b505050811b018755610653565b015160001960f88460031b161c1916905538808061069c565b91926020600181928685015181550194019201610678565b610707908760005260206000206005601f8601811c8201926020871061070d575b601f01901c0190614f91565b8d610616565b91925082916106fb565b600286016000526020600020908282015b81830181106107385750506103fa565b8061074560019254614a01565b80610752575b5001610728565b601f811183146107685750600081555b8c61074b565b600090828252610786601f60208420920160051c8201858301614f91565b81835555610762565b90508701518a6103c0565b906001860160005260206000206000925b601f19831684106107ee576001935082601f198116106107d5575b5050811b0160018501556103da565b88015160001960f88460031b161c1916905589806107c6565b888101518255602093840193600190920191016107ab565b61083690600187016000526020600020601f840160051c8101916020851061083c575b601f0160051c0190614f91565b886103a4565b9091508190610829565b8460045416801561091857602060249160405192838092630e76e53360e41b82523360048301525afa90811561090c576000916108d1575b5061035c5760405162461bcd60e51b815260206004820152602160248201527f51756164726174696320766f74696e67207265717569726573207072656d697581860152606d60f81b6064820152608490fd5b90506020813d602011610904575b816108ec602093836148da565b8101031261028157518015158103610281578661087e565b3d91506108df565b6040513d6000823e3d90fd5b60405162461bcd60e51b8152602060048201526018602482015277141c995b5a5d5b4818dbdb9d1c9858dd081b9bdd081cd95d60421b81870152606490fd5b5080851660009081526001602052604090205460ff16610348565b5062278d008335111561032b565b60405162461bcd60e51b815260206004820152602560248201527f506f6c6c2063616e6e6f742068617665206d6f7265207468616e203130206f70818501526474696f6e7360d81b6064820152608490fd5b60405162461bcd60e51b815260206004820152602160248201527f506f6c6c206d7573742068617665206174206c656173742032206f7074696f6e81850152607360f81b6064820152608490fd5b60405162461bcd60e51b81526020600482015260186024820152775175657374696f6e2063616e6e6f7420626520656d70747960401b81850152606490fd5b3461028157602036600319011261028157610a786147d0565b610a80614fa8565b600580546001600160a01b039283166001600160a01b0319821681179092559091167fbc98504bb5da5db837c6ce28eee385408c2ff863f91416c31dc2e3d494a8ea69600080a3005b3461028157602036600319011261028157610af2610ae56147d0565b610aed614fa8565b614f1d565b005b3461028157602036600319011261028157610b0d6147d0565b610b15614fa8565b600680546001600160a01b039283166001600160a01b0319821681179092559091167f36f8d10b5dc1a8144145766e3d81607a942276461f8e4bd08b58d1861eda4cd4600080a3005b60208060031936011261028157600435610b7b6003548210614b0a565b8060005260008252610b9760ff60056040600020015416614c51565b8060005260008252610bb26004604060002001544210614c92565b610bba614fe1565b3415610c9457600081815280835260409020600b0154610be3906001600160a01b031615614ec1565b80600052600082526006604060002001610bfe348254614bdc565b9055806000526000825260086040600020013360005282526040600020610c26348254614bdc565b9055806000526002825260406000206000805282526040600020610c4b348254614bdc565b9055604051916000835234908301527f3e231b10c827a2698b8e84aa3d395d37d5620225e01463563fd196b02ef77ec460403393a360016000805160206151e683398151915255005b60405162461bcd60e51b8152600481018390526015602482015274135d5cdd081cd95b9908115512081d1bc8199d5b99605a1b6044820152606490fd5b3461028157600036600319011261028157602060405162278d008152f35b3461028157604036600319011261028157610d086147ba565b600435600052600260205260406000209060018060a01b03166000526020526020604060002054604051908152f35b346102815760208060031936011261028157600435610d596003548210614b0a565b806000526000825260018060a01b038060056040600020015460081c163314908115610f47575b5015610eef57806000526000825260ff600b6040600020015460a81c166006811015610e6257600103610eb45780600052600082526004604060002001544210610e78578060005260008252600b60406000200190610de760ff835460a81c168093614e9d565b600081815280845260409020600b01805460ff60a81b1916600160a91b179081905560a81c60ff166006811015610e6257610e3e9082600052600085521560056040600020019060ff801983541691151516179055565b6006821015610e62576000805160206151c6833981519152600293604051428152a4005b634e487b7160e01b600052602160045260246000fd5b60405162461bcd60e51b8152600481018390526014602482015273141bdb1b081b5d5cdd081a185d9948195b99195960621b6044820152606490fd5b60405162461bcd60e51b8152600481018390526013602482015272141bdb1b081b5d5cdd0818994818db1bdcd959606a1b6044820152606490fd5b60405162461bcd60e51b815260048101839052602a60248201527f4f6e6c792063726561746f72206f72206f776e65722063616e2073657420666f6044820152697220636c61696d696e6760b01b6064820152608490fd5b90506000805160206151a68339815191525416331483610d80565b3461028157604036600319011261028157600435610f7e6147ba565b90610f8c6003548210614b0a565b600052600060205260096040600020019060018060a01b0316600052602052602060ff604060002054166040519015158152f35b34610281576020366003190112610281576001600160a01b03610fe16147d0565b166000526001602052602060ff604060002054166040519015158152f35b346102815761100d36614ae0565b61101a6003548410614b0a565b82600052600060205260ff600b6040600020015460b81c16916002831015610e625760209361104e60016110769514614d0c565b60005260008452600d6040600020019060018060a01b03166000528352604060002054614be9565b604051908152f35b346102815760c0366003190112610281576004356001600160401b038111610281576110ae90369060040161494d565b6024356001600160401b038111610281576110cd903690600401614982565b6044916110d86147e6565b6003608435101561028157600260a43510156102815781511561175057600283511061170257600a8351116116b057610e1084351015806116a2575b61111d90614e59565b6001600160a01b0393818516158015611687575b61113a90614b4c565b600160a43514611582575b6003549361115285614bcd565b60035584600052600060205260406000209085825584516001600160401b0381116105da576111846001840154614a01565b601f811161154d575b506020601f82116001146114e15790806111bc9260009161078f57508160011b916000199060031b1c19161790565b60018301555b8051600160401b81116105da576002830154816002850155808210611469575b506020820190600284016000526020600020916000905b828210611359575050505061120e9051614e13565b80516003830197916001600160401b0382116105da57600160401b82116105da576020908954838b5580841061133c575b50019760005260206000209760005b82811061132857600585018054610100600160a81b0319163360081b610100600160a81b03161781556000600687015560078601805460ff19908116909155600b870180546001600160a01b031916878b161781556020928c9260049284927f9dbafd4116dcead87280b4bad16e92c851a647fbf87a77e05cf6b29c8fcdc33c928f92918e916001908f6112e460843587614ba9565b6112f18654953542614bdc565b990189905582541617905562ffffff60a81b191660a43560b81b60ff60b81b1617905560408051818152916105619183019061481c565b60019060208351930192818c01550161124e565b611353908b60005284846000209182019101614f91565b8a61123f565b80518051906001600160401b0382116105da576113768654614a01565b601f8111611437575b50602090601f83116001146113c757926113b88360019594602094879660009261065f5750508160011b916000199060031b1c19161790565b87555b019401910190926111f9565b908660005260206000209160005b601f198516811061141f575083602093600196938796938794601f19811610611406575b505050811b0187556113bb565b015160001960f88460031b161c191690553880806113f9565b919260206001819286850151815501940192016113d5565b611463908760005260206000206005601f8601811c8201926020871061070d57601f01901c0190614f91565b8d61137f565b600284016000526020600020908282015b818301811061148a5750506111e2565b8061149760019254614a01565b806114a4575b500161147a565b601f811183146114ba5750600081555b8c61149d565b6000908282526114d8601f60208420920160051c8201858301614f91565b818355556114b4565b906001840160005260206000206000925b601f1983168410611535576001935082601f1981161061151c575b5050811b0160018301556111c2565b88015160001960f88460031b161c19169055898061150d565b888101518255602093840193600190920191016114f2565b61157c90600185016000526020600020601f840160051c8101916020851061083c57601f0160051c0190614f91565b8861118d565b8460045416801561164857602060249160405192838092630e76e53360e41b82523360048301525afa90811561090c5760009161160d575b50611145576084907f51756164726174696320766f74696e67207265717569726573207072656d69756040519162461bcd60e51b83526020600484015260216024840152820152606d60f81b6064820152fd5b90506020813d602011611640575b81611628602093836148da565b810103126102815751801515810361028157866115ba565b3d915061161b565b60405162461bcd60e51b8152602060048201526018602482015277141c995b5a5d5b4818dbdb9d1c9858dd081b9bdd081cd95d60421b81840152606490fd5b5081851660009081526001602052604090205460ff16611131565b5062278d0084351115611114565b60405162461bcd60e51b815260206004820152602560248201527f506f6c6c2063616e6e6f742068617665206d6f7265207468616e203130206f70818601526474696f6e7360d81b6064820152608490fd5b60405162461bcd60e51b815260206004820152602160248201527f506f6c6c206d7573742068617665206174206c656173742032206f7074696f6e81860152607360f81b6064820152608490fd5b60405162461bcd60e51b81526020600482015260186024820152775175657374696f6e2063616e6e6f7420626520656d70747960401b81860152606490fd5b34610281576000366003190112610281576004546040516001600160a01b039091168152602090f35b346102815760208060031936011261028157600435906117db6003548310614b0a565b816000526000815260018060a01b038060056040600020015460081c163314908115611988575b501561193857816000526000815260ff600b6040600020015460a81c166006811015610e62576118f4578160005260008152600b6040600020019061184f60ff835460a81c168093614e9d565b600083815280825260409020600b01805460ff60a81b1916600360a81b179081905560a81c60ff166006811015610e62576118a69084600052600083521560056040600020019060ff801983541691151516179055565b6006821015610e625760037fdb60f2dea048e4e773fc1838826049d2c8e6f4242ebcdecf7640a25175ff592492846000805160206151c683398151915284604051428152a4604051428152a2005b6064906040519062461bcd60e51b82526004820152601f60248201527f4f6e6c792061637469766520706f6c6c732063616e20626520706175736564006044820152fd5b6084906040519062461bcd60e51b825260048201526024808201527f4f6e6c792063726561746f72206f72206f776e65722063616e207061757365206044820152631c1bdb1b60e21b6064820152fd5b90506000805160206151a68339815191525416331483611802565b3461028157602080600319360112610281576119bd6147d0565b6003546001600160a01b03918216916000805b838110611a7557506119e190614e13565b9260009460005b848110611a095760405160208082528190611a059082018961485c565b0390f35b806000526000825260406000208385600583015460081c16149081611a57575b50611a37575b6001016119e8565b95611a4f8188611a496001948a614e45565b52614bcd565b969050611a2f565b60ff9150600b015460a81c166006811015610e625760041488611a29565b806000526000865260406000208584600583015460081c16149081611ab7575b50611aa3575b6001016119d0565b90611aaf600191614bcd565b919050611a9b565b60ff9150600b015460a81c166006811015610e625760041487611a95565b3461028157602036600319011261028157600435611af66003548210614b0a565b60005260006020526020600c60406000200154604051908152f35b3461028157611b1f36614ae0565b611b2f6003939293548310614b0a565b81600052602060008152611b4d60ff60056040600020015416614c51565b8260005260008152611b686004604060002001544210614c92565b611b70614fe1565b6001600160a01b0384811660008181526001845260409020549092919060ff1615611cd3578315611c8e57917f3e231b10c827a2698b8e84aa3d395d37d5620225e01463563fd196b02ef77ec49391611bdf82611c77958860005260008452600b604060002001541614614ec1565b611beb83303385615011565b85600052600081526006604060002001611c06848254614bdc565b9055856000526000815260086040600020013360005281526040600020611c2e848254614bdc565b90558560005260028152604060002091600052526040600020611c52828254614bdc565b9055604080516001600160a01b03909616865260208601919091523394918291820190565b0390a360016000805160206151e683398151915255005b60405162461bcd60e51b815260048101839052601d60248201527f416d6f756e74206d7573742062652067726561746572207468616e20300000006044820152606490fd5b60405162461bcd60e51b8152600481018390526015602482015274151bdad95b881b9bdd081dda1a5d195b1a5cdd1959605a1b6044820152606490fd5b3461028157611d1e366147fc565b90611d2c6003548210614b0a565b80600052602060008152611d4a60ff60056040600020015416614c51565b8160005260008152611d656004604060002001544210614c92565b8160005260008152611d806002604060002001548410614ccf565b816000526000815260ff600b6040600020015460b81c166002811015610e6257611e90578160005260008152600960406000200133600052815260ff60406000205416611e5c577f1abe610cf2bf87e57dcc1181fcf5ac0934e843d8344ab9eed6e86c799f62585e90826000526000815260096040600020013360005281526040600020600160ff198254161790558260005260008152611e51611e2b856003604060002001614d4f565b611e3a82548260031b1c614bcd565b825460001960039390931b92831b1916911b179055565b6040519384523393a3005b6064906040519062461bcd60e51b82526004820152600d60248201526c105b1c9958591e481d9bdd1959609a1b6044820152fd5b6064906040519062461bcd60e51b825280600483015260248201527f55736520627579566f74657320666f722071756164726174696320706f6c6c736044820152fd5b346102815760003660031901126102815760405160408101908082106001600160401b038311176105da57611a059160405260058152640352e302e360dc1b602082015260405191829160208352602083019061481c565b3461028157602036600319011261028157600435600052600060205260406000208054611f5a60018301614a3b565b9160048101549061202860058201549160ff60018060a01b039160068101549282600783015416600b8301549482600c868860a01c1695015498611fb16040519d8e9d8e6101a0918152816020820152019061481c565b9a60408d0152868116151560608d015260081c1660808b015260a08a0152611fd881614812565b60c0890152831660e0880152611fed81614812565b6101008701526120066101208701828460a81c16614890565b6120196101408701828460b01c16614890565b61016086019160b81c1661489d565b6101808301520390f35b34610281576020366003190112610281576004356120536003548210614b0a565b6000526000602052602060ff600b6040600020015460b81c16612079604051809261489d565bf35b34610281576020806003193601126102815760043561209d6003548210614b0a565b806000526000825260018060a01b038060056040600020015460081c16331490811561221e575b50156121cd57806000526000825260ff600b6040600020015460a81c166006811015610e625760011461218f578060005260008252600b6040600020019061211460ff835460a81c168093614e9d565b600081815280845260409020600b01805460ff60a81b1916600160a81b179081905560a81c60ff166006811015610e625761216b9082600052600085521560056040600020019060ff801983541691151516179055565b6006821015610e62576000805160206151c6833981519152600193604051428152a4005b60405162461bcd60e51b8152600481018390526016602482015275141bdb1b081a5cc8185b1c9958591e4818db1bdcd95960521b6044820152606490fd5b60405162461bcd60e51b8152600481018390526024808201527f4f6e6c792063726561746f72206f72206f776e65722063616e20636c6f7365206044820152631c1bdb1b60e21b6064820152608490fd5b90506000805160206151a683398151915254163314836120c4565b34610281576000366003190112610281576000805160206151a6833981519152546040516001600160a01b039091168152602090f35b34610281576020366003190112610281576122886147d0565b612290614fa8565b600480546001600160a01b039283166001600160a01b0319821681179092559091167f2116cb6f3ebde8e13019bd5040ae80452bcbf4c007a1cd5d3825a992f25da27e600080a3005b34610281576000366003190112610281577ff0c57e16840df040f15088dc2f81fe391c3923bec73e23a9662efc9c229c6a00805460ff8160401c1615906001600160401b03811680159081612427575b600114908161241d575b159081612414575b506124025767ffffffffffffffff1981166001178355816123e3575b50612360615101565b612368615101565b61237133614f1d565b612379615101565b612381615101565b60016000805160206151e68339815191525561239b615101565b60006003556123a657005b68ff00000000000000001981541690557fc7f505b2f371ae2175ee4913f4499e1f2633a7b5936321eed1cdaeb6115181d2602060405160018152a1005b68ffffffffffffffffff19166801000000000000000117825582612357565b60405163f92ee8a960e01b8152600490fd5b9050158461233b565b303b159150612333565b839150612329565b346102815761243d366147fc565b90612446614fa8565b818110156125a5576003548211612560575b81811061246157005b806000526000602052604060002090600b8201805460ff808260a81c16946006808710159687610e6257159687918215908199612548575b506124d8575b5050600501546001955016156124c35750805461ffff60a81b191690555b01612458565b61ffff60a81b191660a884901b1790556124bd565b8360058401541680928161253c575b508215612518575b5050600196508061250f575b61250657878061249f565b505050506124bd565b508415156124fb565b1591508161252d575b506001965088806124ef565b9050610e625760019588612521565b9250600091508a6124e7565b9050848660b01c1690811015610e625715158a612499565b60405162461bcd60e51b815260206004820152601f60248201527f456e6420706f6c6c204944206578636565647320746f74616c20706f6c6c73006044820152606490fd5b60405162461bcd60e51b815260206004820152600d60248201526c496e76616c69642072616e676560981b6044820152606490fd5b34610281576000366003190112610281576125f3614fa8565b6000805160206151a683398151915280546001600160a01b031981169091556000906001600160a01b03167f8be0079c531659141344cd1fd0a4f28419497f9722a3daafe3b4186f6b6457e08280a3005b346102815760208060031936011261028157600435906126676003548310614b0a565b816000526000815260018060a01b038060056040600020015460081c163314908115612838575b50156127e557816000526000815260ff600b6040600020015460a81c166006811015610e6257600403612797578160005260008152600b6126ec600460406000200154610e108110158061278a575b6126e690614e59565b42614bdc565b83600052600083526040600020906004820155019061271360ff835460a81c168093614e9d565b600083815280825260409020600b8101805460ff60a81b19169055600501805460ff191660011790556006821015610e625760007f10436d73e2f4f7ac1de5b6f996d0b6db0221c8973cbff40e9305d3d5b9c6c71292846000805160206151c683398151915284604051428152a4604051428152a2005b5062278d008111156126dd565b6084906040519062461bcd60e51b82526004820152602160248201527f4f6e6c7920647261667420706f6c6c732063616e206265207075626c697368656044820152601960fa1b6064820152fd5b6084906040519062461bcd60e51b82526004820152602660248201527f4f6e6c792063726561746f72206f72206f776e65722063616e207075626c69736044820152651a081c1bdb1b60d21b6064820152fd5b90506000805160206151a6833981519152541633148361268e565b34610281576000366003190112610281576003546000805b8281106128f1575061287c90614e13565b906000805b82811061289e5760405160208082528190611a059082018761485c565b806000526000602052604060002060ff60058201541690816128e3575b506128c9575b600101612881565b906128db8183611a4960019488614e45565b9190506128c1565b6004915001544210856128bb565b806000526000602052604060002060ff6005820154169081612930575b5061291c575b60010161286b565b90612928600191614bcd565b919050612914565b60049150015442108461290e565b346102815760603660031901126102815760043561295a6147ba565b6044356001600160401b038111610281576129799036906004016148aa565b90926129886003548210614b0a565b612990614fe1565b806000526020916000835260018060a01b038060056040600020015460081c1633148015612bb2575b15612b625782600052600084526004604060002001544210612b1d5760005b8281106129f35760016000805160206151e683398151915255005b6001908460005260028087528884612a19612a148589604060002095614d7d565b614d8d565b1660005287528585858a8c8b604060002054968888612a42575b505050505050505050016129d8565b7f9467881c16409d70790ef2aa073424972ede02854453f7ff5036d66e860ee42f96612af294612acb94612a14948b600052815260406000209089612a8b612a14878787614d7d565b1660005252600060408120558a88612aa7612a14868686614d7d565b16612b03576000808080612ac6948c5af1612ac0614da1565b50614dd1565b614d7d565b604080516001600160a01b0390921682526020820197909752919092169490918291820190565b0390a3888585858a8c8b8688612a33565b612ac690888a612b17612a14888888614d7d565b16615069565b60405162461bcd60e51b815260048101859052601e60248201527f506f6c6c206d75737420626520656e64656420746f20776974686472617700006044820152606490fd5b60405162461bcd60e51b815260048101859052602260248201527f4f6e6c792063726561746f72206f72206f776e65722063616e20776974686472604482015261617760f01b6064820152608490fd5b50806000805160206151a6833981519152541633146129b9565b34610281576000366003190112610281576005546040516001600160a01b039091168152602090f35b346102815760a0366003190112610281576004356001600160401b03811161028157612c2590369060040161494d565b6024356001600160401b03811161028157612c44903690600401614982565b90612c4d6147e6565b9060036084351015610281578051156131c557600283511061317657600a83511161312357610e10604435101580613114575b612c8990614e59565b6001600160a01b0382161580156130f2575b612ca490614b4c565b60035491612cb183614bcd565b60035582600052600060205260406000209383855582516001600160401b0381116105da57612ce36001870154614a01565b601f81116130bd575b506020601f8211600114613051579080612d1b9260009161304657508160011b916000199060031b1c19161790565b60018601555b8051600160401b81116105da576002860154816002880155808210612fce575b506020820190600287016000526020600020916000905b828210612eb35750505050612d6d9051614e13565b80516003860195916001600160401b0382116105da57600160401b82116105da576020908754838955808410612e96575b50019560005260206000209560005b828110612e8257600584018054610100600160a81b0319163360081b610100600160a81b03161781556000600686015560078501805460ff19908116909155600b860180546001600160a01b0319166001600160a01b0389161781556020928a9260049284927f9dbafd4116dcead87280b4bad16e92c851a647fbf87a77e05cf6b29c8fcdc33c928d92918c91600190612e4960843586614ba9565b845493612e5860443542614bdc565b990189905582541617905562ffffff60a81b1916905560408051818152916105619183019061481c565b60019060208351930192818a015501612dad565b612ead908960005284846000209182019101614f91565b88612d9e565b80518051906001600160401b0382116105da57612ed08654614a01565b601f8111612f9c575b50602090601f8311600114612f2c5792612f1283600195946020948796600092612f215750508160011b916000199060031b1c19161790565b87555b01940191019092612d58565b015190508f8061063b565b908660005260206000209160005b601f1985168110612f84575083602093600196938796938794601f19811610612f6b575b505050811b018755612f15565b015160001960f88460031b161c191690558e8080612f5e565b91926020600181928685015181550194019201612f3a565b612fc8908760005260206000206005601f8601811c8201926020871061070d57601f01901c0190614f91565b8b612ed9565b600287016000526020600020908282015b8183018110612fef575050612d41565b80612ffc60019254614a01565b80613009575b5001612fdf565b601f8111831461301f5750600081555b8a613002565b60009082825261303d601f60208420920160051c8201858301614f91565b81835555613019565b9050850151886103c0565b906001870160005260206000206000925b601f19831684106130a5576001935082601f1981161061308c575b5050811b016001860155612d21565b86015160001960f88460031b161c19169055878061307d565b86810151825560209384019360019092019101613062565b6130ec90600188016000526020600020601f840160051c8101916020851061083c57601f0160051c0190614f91565b86612cec565b506001600160a01b03821660009081526001602052604090205460ff16612c9b565b5062278d006044351115612c80565b60405162461bcd60e51b815260206004820152602560248201527f506f6c6c2063616e6e6f742068617665206d6f7265207468616e203130206f7060448201526474696f6e7360d81b6064820152608490fd5b60405162461bcd60e51b815260206004820152602160248201527f506f6c6c206d7573742068617665206174206c656173742032206f7074696f6e6044820152607360f81b6064820152608490fd5b60405162461bcd60e51b81526020600482015260186024820152775175657374696f6e2063616e6e6f7420626520656d70747960401b6044820152606490fd5b34610281576040366003190112610281576004356132216147ba565b9061322f6003548210614b0a565b600052600260205260406000209060018060a01b03166000526020526020604060002054604051908152f35b3461028157602080600319360112610281576004359061327e6003548310614b0a565b816000526000815260018060a01b038060056040600020015460081c16331490811561344a575b50156133f657816000526000815260ff600b6040600020015460a81c166006811015610e625760020361339a578160005260008152600b604060002001906132f560ff835460a81c168093614e9d565b600083815280825260409020600b01805460ff60a81b1916600560a81b179081905560a81c60ff166006811015610e625761334c9084600052600083521560056040600020019060ff801983541691151516179055565b6006821015610e625760057fe992bd2ee9f3c9a89bf16dcbadd0eab1f2b2bdedd79ee0bf255b586a5e35f9ac92846000805160206151c683398151915284604051428152a4604051428152a2005b6084906040519062461bcd60e51b82526004820152602f60248201527f506f6c6c206d75737420626520696e20464f525f434c41494d494e472073746160448201526e74757320746f2066696e616c697a6560881b6064820152fd5b6084906040519062461bcd60e51b82526004820152602760248201527f4f6e6c792063726561746f72206f72206f776e65722063616e2066696e616c696044820152661e99481c1bdb1b60ca1b6064820152fd5b90506000805160206151a683398151915254163314836132a5565b34610281576000366003190112610281577f00000000000000000000000000000000000000000000000000000000000000006001600160a01b031630036134d05760206040517f360894a13ba1a3210667c828492db98dca3e2076cc3735a920a3ca505d382bbc8152f35b60405163703e46dd60e11b8152600490fd5b34610281576040366003190112610281576004356134fe6147ba565b9061350c6003548210614b0a565b600052600060205260086040600020019060018060a01b03166000526020526020604060002054604051908152f35b60403660031901126102815761354f6147d0565b6024356001600160401b03811161028157366023820112156102815761357f903690602481600401359101614916565b906001600160a01b037f00000000000000000000000000000000000000000000000000000000000000008116308114908115613714575b506134d0576135c3614fa8565b8116906040516352d1902d60e01b8152602081600481865afa600091816136e0575b5061360357604051634c9c8ce360e01b815260048101849052602490fd5b7f360894a13ba1a3210667c828492db98dca3e2076cc3735a920a3ca505d382bbc929192908181036136c85750823b156136af5780546001600160a01b03191682179055604051907fbc7cd75a20ee27fd9adebab32041f755214dbc6bffa90cc0225b39da2e5c2d3b600080a28251156136965750600080836020610af295519101845af4613690614da1565b91615142565b915050346136a057005b63b398979f60e01b8152600490fd5b604051634c9c8ce360e01b815260048101839052602490fd5b60249060405190632a87526960e21b82526004820152fd5b9091506020813d60201161370c575b816136fc602093836148da565b81010312610281575190856135e5565b3d91506136ef565b9050817f360894a13ba1a3210667c828492db98dca3e2076cc3735a920a3ca505d382bbc54161415846135b6565b34610281576060366003190112610281576004356024359060443561376a6003548310614b0a565b816000526020906000825261378960ff60056040600020015416614c51565b82600052600082526137a46004604060002001544210614c92565b82600052600082526137bf6002604060002001548510614ccf565b6137c7614fe1565b826000526000825260406000209160ff600b84015460b81c166002811015610e625760016137f59114614d0c565b811561396c576005546001600160a01b039081169390841561393157600654169384156138f65790600991613848600d8301913360005282865261383e87604060002054614be9565b9788913390615011565b336000528352604060002061385e858254614bdc565b90556138806138708860038401614d4f565b611e3a8783548360031b1c614bdc565b600c810161388f858254614bdc565b9055336000520181526040600020600160ff1982541617905560405194855284015260408301524260608301527f6120a7151a4abbbff162d5f92bb062f652dfa01d1b00cf31d10cfe8456ec3cdd60803393a360016000805160206151e683398151915255005b60405162461bcd60e51b81526004810184905260136024820152721455881d1c99585cdd5c9e481b9bdd081cd95d606a1b6044820152606490fd5b60405162461bcd60e51b815260048101849052601360248201527214155314d1481d1bdad95b881b9bdd081cd95d606a1b6044820152606490fd5b6064906040519062461bcd60e51b82526004820152601860248201527f4d75737420627579206174206c65617374203120766f746500000000000000006044820152fd5b34610281576020366003190112610281576004356139d16003548210614b0a565b60005260006020526020604060002060ff60058201541690816139fa575b506040519015158152f35b6004915001544210826139ef565b34610281576000366003190112610281576020600354604051908152f35b3461028157604036600319011261028157600435613a426147ba565b90613a506003548210614b0a565b6000526000602052600d6040600020019060018060a01b03166000526020526020604060002054604051908152f35b34610281576000366003190112610281576020604051610e108152f35b3461028157608036600319011261028157613ab56147ba565b6001600160401b0360443581811161028157613ad59036906004016148aa565b92909160643590811161028157613af09036906004016148aa565b93613b0060035460043510614b0a565b613b08614fe1565b600435600052600060205260018060a01b0360056040600020015460081c1633148015613fb9575b15613f5f5760043560005260006020526004604060002001544210613f09576004356000526000602052600160ff60076040600020015416613b7181614812565b148015613ee0575b15613e8057848103613e42578015613dfe576000805b868110613dde57506004356000526002602052604060002060018060a01b03851660005260205260406000205410613d995760005b818110613bdf5760016000805160206151e683398151915255005b613bea818785614d7d565b3515613d91576004356000526002602052604060002060018060a01b038516600052602052604060002054613c20828886614d7d565b3511613d3e57613c31818785614d7d565b35906004356000526002602052604060002060018060a01b03861660005260205260406000208054928381810311613d2857600193039055613c77612a14828589614d7d565b613c82828987614d7d565b35838060a01b03871615600014613d1257600080808093613ca7955af1612ac0614da1565b613cb5612a14828589614d7d565b613cc0828987614d7d565b3590604051918252838060a01b0387166020830152426040830152838060a01b0316907f40ff55f580dfcbbcdccf65c1e06700d124f4190644783eca909a23f5b37b65ca606060043592a35b01613bc4565b613d2391848060a01b038816615069565b613ca7565b634e487b7160e01b600052601160045260246000fd5b60405162461bcd60e51b815260206004820152602560248201527f496e73756666696369656e742062616c616e636520666f7220646973747269626044820152643aba34b7b760d91b6064820152608490fd5b600190613d0c565b60405162461bcd60e51b815260206004820152601a60248201527f496e73756666696369656e7420746f6b656e2062616c616e63650000000000006044820152606490fd5b90613df7600191613df0848a88614d7d565b3590614bdc565b9101613b8f565b606460405162461bcd60e51b815260206004820152602060248201527f4d7573742068617665206174206c65617374206f6e6520726563697069656e746044820152fd5b60405162461bcd60e51b8152602060048201526016602482015275082e4e4c2f2e640d8cadccee8d040dad2e6dac2e8c6d60531b6044820152606490fd5b60405162461bcd60e51b815260206004820152603260248201527f446973747269627574696f6e206d6f6465206d757374206265204d414e55414c60448201527117d41554d2081bdc8810555513d35055115160721b6064820152608490fd5b506004356000526000602052600260ff60076040600020015416613f0381614812565b14613b79565b60405162461bcd60e51b815260206004820152602860248201527f506f6c6c206d75737420626520656e64656420746f2064697374726962757465604482015267207265776172647360c01b6064820152608490fd5b60405162461bcd60e51b815260206004820152602c60248201527f4f6e6c792063726561746f72206f72206f776e65722063616e2064697374726960448201526b62757465207265776172647360a01b6064820152608490fd5b506000805160206151a6833981519152546001600160a01b03163314613b30565b34610281576020806003193601126102815760043590613ffd6003548310614b0a565b816000526000815260018060a01b038060056040600020015460081c16331490811561425a575b501561420857816000526000815260ff600b6040600020015460a81c166006811015610e62576003036141c557816000526000815260046040600020015442101561418157816000526000815260ff600b6040600020015460b01c16906006821015610e625760038214614178575b8260005260008152600b604060002001916140b660ff845460a81c168094614e9d565b8360005260008252600b6040600020016006821015610e6257805460ff60a81b8360a81b169060ff60a81b1916179055836000526000825260ff600b6040600020015460a81c166006811015610e625761412c9085600052600084521560056040600020019060ff801983541691151516179055565b6006831015610e62577f229fc85594800ec48ab3f1ef11b9275bbe2ef32ef63eac3ac3dabe23a548b4d592846000805160206151c683398151915284604051428152a4604051428152a2005b60009150614093565b6064906040519062461bcd60e51b82526004820152601a60248201527f43616e6e6f7420726573756d65206578706972656420706f6c6c0000000000006044820152fd5b6064906040519062461bcd60e51b825280600483015260248201527f4f6e6c792070617573656420706f6c6c732063616e20626520726573756d65646044820152fd5b6084906040519062461bcd60e51b82526004820152602560248201527f4f6e6c792063726561746f72206f72206f776e65722063616e20726573756d65604482015264081c1bdb1b60da1b6064820152fd5b90506000805160206151a68339815191525416331483614024565b34610281576020366003190112610281576004356142966003548210614b0a565b6000526000602052604060002080546004820154600583015492600681015460ff60078301541690600b83015495600c840154936142d660018201614a3b565b906002810154916142e68361496b565b906142f460405192836148da565b8382526020820193846002850160005260206000206000915b8383106144a157505050506040518093849160036020818401549283815201920160005260206000209060005b8181106144885750505061436c92916143549103856148da565b6040519a6101e0908c528060208d01528b019061481c565b9089820360408b015251808252602082019160208260051b82010194926000915b83831061445b575050505050916143b38261445196948a809c97950360608c015261485c565b608089019790975260ff8116151560a089015260081c6001600160a01b031660c088015260e08701526143e581614812565b6101008601526001600160a01b03811661012086015261440b60a082901c60ff16614812565b60ff8160a01c1661014086015261442c610160860160ff8360a81c16614890565b614440610180860160ff8360b01c16614890565b60ff6101a086019160b81c1661489d565b6101c08301520390f35b9091929395602080614479600193601f198682030187528a5161481c565b9801930193019193929061438d565b825484528794506020909301926001928301920161433a565b6001602081926144b085614a3b565b81520192019201919061430d565b34610281576040366003190112610281576004356024356003811015610281576144eb6003548310614b0a565b81600052600060205260018060a01b038060056040600020015460081c1633149081156145d7575b501561457a5760407febc8e2e3cc1c0ea11d2c53fea531218ede3b90bf14f750a73e457cbf95129d0a918360005260006020526007826000200161455682614812565b60ff1981541660ff831617905581519061456f81614812565b8152426020820152a2005b60405162461bcd60e51b815260206004820152602f60248201527f4f6e6c792063726561746f72206f72206f776e65722063616e2073657420646960448201526e73747269627574696f6e206d6f646560881b6064820152608490fd5b90506000805160206151a68339815191525416331483614513565b34610281576020366003190112610281576004356146136003548210614b0a565b6000526000602052602060ff600760406000200154166040519061463681614812565b8152f35b34610281576040366003190112610281576146536147d0565b6024359081151590818303610281577fef81a9943b96c8df4ef243401c9bf5159146166211356898b52d382086168d92916146b9602092614692614fa8565b60018060a01b031694856000526001845260406000209060ff801983541691151516179055565b604051908152a2005b346102815760206110766146d5366147fc565b90614be9565b3461028157604036600319011261028157600435602435600381101561028157610af291614707614fa8565b6147146003548210614b0a565b6000526000602052600b604060002001614ba9565b34610281576040366003190112610281576004356147456147ba565b61474d614fa8565b61475a6003548310614b0a565b6001600160a01b031690811580156147a2575b61477690614b4c565b6000526000602052600b604060002001906bffffffffffffffffffffffff60a01b825416179055600080f35b5060008281526001602052604090205460ff1661476d565b602435906001600160a01b038216820361028157565b600435906001600160a01b038216820361028157565b606435906001600160a01b038216820361028157565b6040906003190112610281576004359060243590565b60031115610e6257565b919082519283825260005b848110614848575050826000602080949584010152601f8019910116010190565b602081830181015184830182015201614827565b90815180825260208080930193019160005b82811061487c575050505090565b83518552938101939281019260010161486e565b906006821015610e625752565b906002821015610e625752565b9181601f84011215610281578235916001600160401b038311610281576020808501948460051b01011161028157565b90601f801991011681019081106001600160401b038211176105da57604052565b6001600160401b0381116105da57601f01601f191660200190565b929192614922826148fb565b9161493060405193846148da565b829481845281830111610281578281602093846000960137010152565b9080601f830112156102815781602061496893359101614916565b90565b6001600160401b0381116105da5760051b60200190565b81601f820112156102815780359160209161499c8461496b565b936149aa60405195866148da565b808552838086019160051b8301019280841161028157848301915b8483106149d55750505050505090565b82356001600160401b0381116102815786916149f68484809489010161494d565b8152019201916149c5565b90600182811c92168015614a31575b6020831014614a1b57565b634e487b7160e01b600052602260045260246000fd5b91607f1691614a10565b90604051918260008254614a4e81614a01565b90818452602094600191600181169081600014614abe5750600114614a7f575b505050614a7d925003836148da565b565b600090815285812095935091905b818310614aa6575050614a7d9350820101388080614a6e565b85548884018501529485019487945091830191614a8d565b92505050614a7d94925060ff191682840152151560051b820101388080614a6e565b606090600319011261028157600435906024356001600160a01b0381168103610281579060443590565b15614b1157565b60405162461bcd60e51b8152602060048201526013602482015272141bdb1b08191bd95cc81b9bdd08195e1a5cdd606a1b6044820152606490fd5b15614b5357565b60405162461bcd60e51b815260206004820152602860248201527f46756e64696e6720746f6b656e206d75737420626520455448206f72207768696044820152671d195b1a5cdd195960c21b6064820152608490fd5b90614bb381614812565b815460ff60a01b191660a09190911b60ff60a01b16179055565b6000198114613d285760010190565b91908201809211613d2857565b6000916001915b81831115614c1857505050670de0b6b3a764000090818102918183041490151715613d285790565b909192614c258483614bdc565b9081800291808304811490151715613d2857614c4a91614c4491614bdc565b93614bcd565b9190614bf0565b15614c5857565b60405162461bcd60e51b8152602060048201526012602482015271506f6c6c206973206e6f742061637469766560701b6044820152606490fd5b15614c9957565b60405162461bcd60e51b815260206004820152600e60248201526d141bdb1b081a185cc8195b99195960921b6044820152606490fd5b15614cd657565b60405162461bcd60e51b815260206004820152600e60248201526d24b73b30b634b21037b83a34b7b760911b6044820152606490fd5b15614d1357565b60405162461bcd60e51b8152602060048201526014602482015273139bdd0818481c5d58591c985d1a58c81c1bdb1b60621b6044820152606490fd5b8054821015614d675760005260206000200190600090565b634e487b7160e01b600052603260045260246000fd5b9190811015614d675760051b0190565b356001600160a01b03811681036102815790565b3d15614dcc573d90614db2826148fb565b91614dc060405193846148da565b82523d6000602084013e565b606090565b15614dd857565b60405162461bcd60e51b8152602060048201526013602482015272115512081d1c985b9cd9995c8819985a5b1959606a1b6044820152606490fd5b90614e1d8261496b565b614e2a60405191826148da565b8281528092614e3b601f199161496b565b0190602036910137565b8051821015614d675760209160051b010190565b15614e6057565b60405162461bcd60e51b815260206004820152601560248201527424b73b30b634b2103837b63610323ab930ba34b7b760591b6044820152606490fd5b906006811015610e6257815460ff60b01b191660b09190911b60ff60b01b16179055565b15614ec857565b60405162461bcd60e51b815260206004820152602760248201527f5468697320706f6c6c206f6e6c7920616363657074732061207370656369666960448201526631903a37b5b2b760c91b6064820152608490fd5b6001600160a01b03908116908115614f78576000805160206151a683398151915280546001600160a01b031981168417909155167f8be0079c531659141344cd1fd0a4f28419497f9722a3daafe3b4186f6b6457e0600080a3565b604051631e4fbdf760e01b815260006004820152602490fd5b818110614f9c575050565b60008155600101614f91565b6000805160206151a6833981519152546001600160a01b03163303614fc957565b60405163118cdaa760e01b8152336004820152602490fd5b6000805160206151e68339815191526002815414614fff5760029055565b604051633ee5aeb560e01b8152600490fd5b6040516323b872dd60e01b60208201526001600160a01b03928316602482015292909116604483015260648083019390935291815260a08101918183106001600160401b038411176105da57614a7d926040526150a5565b60405163a9059cbb60e01b60208201526001600160a01b03929092166024830152604480830193909352918152614a7d916150a56064836148da565b906000602091828151910182855af11561090c576000513d6150f857506001600160a01b0381163b155b6150d65750565b604051635274afe760e01b81526001600160a01b039091166004820152602490fd5b600114156150cf565b60ff7ff0c57e16840df040f15088dc2f81fe391c3923bec73e23a9662efc9c229c6a005460401c161561513057565b604051631afcd79f60e31b8152600490fd5b90615169575080511561515757602081519101fd5b60405163d6bda27560e01b8152600490fd5b8151158061519c575b61517a575090565b604051639996b31560e01b81526001600160a01b039091166004820152602490fd5b50803b1561517256fe9016d09d72d40fdae2fd8ceac6b6234c7706214fd39c1cd1e609a0528c1993000e3da9f587b3fa2df2f1db3bde132c95d4065333c6197afe541940b11b5173029b779b17422d0df92223018b32b4d1fa46e071723d6817e2486d003becc55f00a2646970667358221220403a1e1756ff6c3302ed6fe27af618d9ef7fd9a0c4425b28daa3d81451cfef2664736f6c63430008160033",
  "linkReferences": {},
  "deployedLinkReferences": {}
}