{
  "_format": "hh-sol-artifact-1",
  "contractName": "PollsContract",
  "sourceName": "contracts/PollsContract.sol",
  "abi": [
    {
      "inputs": [],
      "stateMutability": "nonpayable",
      "type": "constructor"
    },
    {
      "inputs": [
        {
          "internalType": "address",
          "name": "target",
          "type": "address"
        }
      ],
      "name": "AddressEmptyCode",
      "type": "error"
    },
    {
      "inputs": [
        {
          "internalType": "address",
          "name": "implementation",
          "type": "address"
        }
      ],
      "name": "ERC1967InvalidImplementation",
      "type": "error"
    },
    {
      "inputs": [],
      "name": "ERC1967NonPayable",
      "type": "error"
    },
    {
      "inputs": [],
      "name": "FailedCall",
      "type": "error"
    },
    {
      "inputs": [],
      "name": "InvalidInitialization",
      "type": "error"
    },
    {
      "inputs": [],
      "name": "NotInitializing",
      "type": "error"
    },
    {
      "inputs": [
        {
          "internalType": "address",
          "name": "owner",
          "type": "address"
        }
      ],
      "name": "OwnableInvalidOwner",
      "type": "error"
    },
    {
      "inputs": [
        {
          "internalType": "address",
          "name": "account",
          "type": "address"
        }
      ],
      "name": "OwnableUnauthorizedAccount",
      "type": "error"
    },
    {
      "inputs": [],
      "name": "ReentrancyGuardReentrantCall",
      "type": "error"
    },
    {
      "inputs": [
        {
          "internalType": "address",
          "name": "token",
          "type": "address"
        }
      ],
      "name": "SafeERC20FailedOperation",
      "type": "error"
    },
    {
      "inputs": [],
      "name": "UUPSUnauthorizedCallContext",
      "type": "error"
    },
    {
      "inputs": [
        {
          "internalType": "bytes32",
          "name": "slot",
          "type": "bytes32"
        }
      ],
      "name": "UUPSUnsupportedProxiableUUID",
      "type": "error"
    },
    {
      "anonymous": false,
      "inputs": [
        {
          "indexed": true,
          "internalType": "uint256",
          "name": "pollId",
          "type": "uint256"
        },
        {
          "indexed": false,
          "internalType": "uint256",
          "name": "deadline",
          "type": "uint256"
        }
      ],
      "name": "ClaimDeadlineSet",
      "type": "event"
    },
    {
      "anonymous": false,
      "inputs": [
        {
          "indexed": true,
          "internalType": "uint256",
          "name": "pollId",
          "type": "uint256"
        },
        {
          "indexed": false,
          "internalType": "enum PollsContract.DistributionMode",
          "name": "mode",
          "type": "uint8"
        },
        {
          "indexed": false,
          "internalType": "uint256",
          "name": "timestamp",
          "type": "uint256"
        }
      ],
      "name": "DistributionModeSet",
      "type": "event"
    },
    {
      "anonymous": false,
      "inputs": [
        {
          "indexed": true,
          "internalType": "uint256",
          "name": "pollId",
          "type": "uint256"
        },
        {
          "indexed": false,
          "internalType": "address",
          "name": "token",
          "type": "address"
        },
        {
          "indexed": false,
          "internalType": "uint256",
          "name": "amount",
          "type": "uint256"
        }
      ],
      "name": "DonatedToTreasury",
      "type": "event"
    },
    {
      "anonymous": false,
      "inputs": [
        {
          "indexed": true,
          "internalType": "uint256",
          "name": "pollId",
          "type": "uint256"
        },
        {
          "indexed": true,
          "internalType": "address",
          "name": "recipient",
          "type": "address"
        },
        {
          "indexed": false,
          "internalType": "address",
          "name": "token",
          "type": "address"
        },
        {
          "indexed": false,
          "internalType": "uint256",
          "name": "amount",
          "type": "uint256"
        }
      ],
      "name": "FundsWithdrawn",
      "type": "event"
    },
    {
      "anonymous": false,
      "inputs": [
        {
          "indexed": false,
          "internalType": "uint64",
          "name": "version",
          "type": "uint64"
        }
      ],
      "name": "Initialized",
      "type": "event"
    },
    {
      "anonymous": false,
      "inputs": [
        {
          "indexed": true,
          "internalType": "address",
          "name": "previousOwner",
          "type": "address"
        },
        {
          "indexed": true,
          "internalType": "address",
          "name": "newOwner",
          "type": "address"
        }
      ],
      "name": "OwnershipTransferred",
      "type": "event"
    },
    {
      "anonymous": false,
      "inputs": [
        {
          "indexed": true,
          "internalType": "uint256",
          "name": "pollId",
          "type": "uint256"
        },
        {
          "indexed": false,
          "internalType": "address",
          "name": "token",
          "type": "address"
        },
        {
          "indexed": false,
          "internalType": "uint256",
          "name": "amount",
          "type": "uint256"
        },
        {
          "indexed": false,
          "internalType": "address",
          "name": "treasury",
          "type": "address"
        }
      ],
      "name": "PlatformFeePaid",
      "type": "event"
    },
    {
      "anonymous": false,
      "inputs": [
        {
          "indexed": false,
          "internalType": "uint256",
          "name": "oldFee",
          "type": "uint256"
        },
        {
          "indexed": false,
          "internalType": "uint256",
          "name": "newFee",
          "type": "uint256"
        }
      ],
      "name": "PlatformFeeUpdated",
      "type": "event"
    },
    {
      "anonymous": false,
      "inputs": [
        {
          "indexed": true,
          "internalType": "address",
          "name": "oldTreasury",
          "type": "address"
        },
        {
          "indexed": true,
          "internalType": "address",
          "name": "newTreasury",
          "type": "address"
        }
      ],
      "name": "PlatformTreasuryUpdated",
      "type": "event"
    },
    {
      "anonymous": false,
      "inputs": [
        {
          "indexed": true,
          "internalType": "uint256",
          "name": "pollId",
          "type": "uint256"
        },
        {
          "indexed": true,
          "internalType": "address",
          "name": "creator",
          "type": "address"
        },
        {
          "indexed": false,
          "internalType": "string",
          "name": "question",
          "type": "string"
        },
        {
          "indexed": false,
          "internalType": "uint256",
          "name": "endTime",
          "type": "uint256"
        }
      ],
      "name": "PollCreated",
      "type": "event"
    },
    {
      "anonymous": false,
      "inputs": [
        {
          "indexed": true,
          "internalType": "uint256",
          "name": "pollId",
          "type": "uint256"
        },
        {
          "indexed": false,
          "internalType": "uint256",
          "name": "timestamp",
          "type": "uint256"
        }
      ],
      "name": "PollFinalized",
      "type": "event"
    },
    {
      "anonymous": false,
      "inputs": [
        {
          "indexed": true,
          "internalType": "uint256",
          "name": "pollId",
          "type": "uint256"
        },
        {
          "indexed": true,
          "internalType": "address",
          "name": "funder",
          "type": "address"
        },
        {
          "indexed": false,
          "internalType": "address",
          "name": "token",
          "type": "address"
        },
        {
          "indexed": false,
          "internalType": "uint256",
          "name": "amount",
          "type": "uint256"
        }
      ],
      "name": "PollFunded",
      "type": "event"
    },
    {
      "anonymous": false,
      "inputs": [
        {
          "indexed": true,
          "internalType": "uint256",
          "name": "pollId",
          "type": "uint256"
        },
        {
          "indexed": false,
          "internalType": "uint256",
          "name": "timestamp",
          "type": "uint256"
        }
      ],
      "name": "PollPaused",
      "type": "event"
    },
    {
      "anonymous": false,
      "inputs": [
        {
          "indexed": true,
          "internalType": "uint256",
          "name": "pollId",
          "type": "uint256"
        },
        {
          "indexed": false,
          "internalType": "uint256",
          "name": "timestamp",
          "type": "uint256"
        }
      ],
      "name": "PollPublished",
      "type": "event"
    },
    {
      "anonymous": false,
      "inputs": [
        {
          "indexed": true,
          "internalType": "uint256",
          "name": "pollId",
          "type": "uint256"
        },
        {
          "indexed": false,
          "internalType": "uint256",
          "name": "timestamp",
          "type": "uint256"
        }
      ],
      "name": "PollResumed",
      "type": "event"
    },
    {
      "anonymous": false,
      "inputs": [
        {
          "indexed": true,
          "internalType": "uint256",
          "name": "pollId",
          "type": "uint256"
        },
        {
          "indexed": true,
          "internalType": "enum PollsContract.PollStatus",
          "name": "oldStatus",
          "type": "uint8"
        },
        {
          "indexed": true,
          "internalType": "enum PollsContract.PollStatus",
          "name": "newStatus",
          "type": "uint8"
        },
        {
          "indexed": false,
          "internalType": "uint256",
          "name": "timestamp",
          "type": "uint256"
        }
      ],
      "name": "PollStatusChanged",
      "type": "event"
    },
    {
      "anonymous": false,
      "inputs": [
        {
          "indexed": true,
          "internalType": "address",
          "name": "oldContract",
          "type": "address"
        },
        {
          "indexed": true,
          "internalType": "address",
          "name": "newContract",
          "type": "address"
        }
      ],
      "name": "PremiumContractUpdated",
      "type": "event"
    },
    {
      "anonymous": false,
      "inputs": [
        {
          "indexed": true,
          "internalType": "address",
          "name": "oldToken",
          "type": "address"
        },
        {
          "indexed": true,
          "internalType": "address",
          "name": "newToken",
          "type": "address"
        }
      ],
      "name": "PulseTokenUpdated",
      "type": "event"
    },
    {
      "anonymous": false,
      "inputs": [
        {
          "indexed": true,
          "internalType": "address",
          "name": "oldTreasury",
          "type": "address"
        },
        {
          "indexed": true,
          "internalType": "address",
          "name": "newTreasury",
          "type": "address"
        }
      ],
      "name": "QuadraticVotingTreasuryUpdated",
      "type": "event"
    },
    {
      "anonymous": false,
      "inputs": [
        {
          "indexed": true,
          "internalType": "uint256",
          "name": "pollId",
          "type": "uint256"
        },
        {
          "indexed": true,
          "internalType": "address",
          "name": "claimer",
          "type": "address"
        },
        {
          "indexed": false,
          "internalType": "uint256",
          "name": "amount",
          "type": "uint256"
        },
        {
          "indexed": false,
          "internalType": "address",
          "name": "token",
          "type": "address"
        },
        {
          "indexed": false,
          "internalType": "uint256",
          "name": "timestamp",
          "type": "uint256"
        }
      ],
      "name": "RewardClaimed",
      "type": "event"
    },
    {
      "anonymous": false,
      "inputs": [
        {
          "indexed": true,
          "internalType": "uint256",
          "name": "pollId",
          "type": "uint256"
        },
        {
          "indexed": true,
          "internalType": "address",
          "name": "recipient",
          "type": "address"
        },
        {
          "indexed": false,
          "internalType": "uint256",
          "name": "amount",
          "type": "uint256"
        },
        {
          "indexed": false,
          "internalType": "address",
          "name": "token",
          "type": "address"
        },
        {
          "indexed": false,
          "internalType": "uint256",
          "name": "timestamp",
          "type": "uint256"
        }
      ],
      "name": "RewardDistributed",
      "type": "event"
    },
    {
      "anonymous": false,
      "inputs": [
        {
          "indexed": true,
          "internalType": "address",
          "name": "token",
          "type": "address"
        },
        {
          "indexed": false,
          "internalType": "bool",
          "name": "status",
          "type": "bool"
        }
      ],
      "name": "TokenWhitelisted",
      "type": "event"
    },
    {
      "anonymous": false,
      "inputs": [
        {
          "indexed": true,
          "internalType": "address",
          "name": "implementation",
          "type": "address"
        }
      ],
      "name": "Upgraded",
      "type": "event"
    },
    {
      "anonymous": false,
      "inputs": [
        {
          "indexed": true,
          "internalType": "uint256",
          "name": "pollId",
          "type": "uint256"
        },
        {
          "indexed": true,
          "internalType": "address",
          "name": "voter",
          "type": "address"
        },
        {
          "indexed": false,
          "internalType": "uint256",
          "name": "optionIndex",
          "type": "uint256"
        }
      ],
      "name": "Voted",
      "type": "event"
    },
    {
      "anonymous": false,
      "inputs": [
        {
          "indexed": true,
          "internalType": "uint256",
          "name": "pollId",
          "type": "uint256"
        },
        {
          "indexed": true,
          "internalType": "address",
          "name": "voter",
          "type": "address"
        },
        {
          "indexed": false,
          "internalType": "uint256",
          "name": "optionIndex",
          "type": "uint256"
        },
        {
          "indexed": false,
          "internalType": "uint256",
          "name": "numVotes",
          "type": "uint256"
        },
        {
          "indexed": false,
          "internalType": "uint256",
          "name": "cost",
          "type": "uint256"
        },
        {
          "indexed": false,
          "internalType": "uint256",
          "name": "timestamp",
          "type": "uint256"
        }
      ],
      "name": "VotesBought",
      "type": "event"
    },
    {
      "inputs": [],
      "name": "MAX_PLATFORM_FEE",
      "outputs": [
        {
          "internalType": "uint256",
          "name": "",
          "type": "uint256"
        }
      ],
      "stateMutability": "view",
      "type": "function"
    },
    {
      "inputs": [],
      "name": "MAX_POLL_DURATION",
      "outputs": [
        {
          "internalType": "uint256",
          "name": "",
          "type": "uint256"
        }
      ],
      "stateMutability": "view",
      "type": "function"
    },
    {
      "inputs": [],
      "name": "MIN_POLL_DURATION",
      "outputs": [
        {
          "internalType": "uint256",
          "name": "",
          "type": "uint256"
        }
      ],
      "stateMutability": "view",
      "type": "function"
    },
    {
      "inputs": [],
      "name": "UPGRADE_INTERFACE_VERSION",
      "outputs": [
        {
          "internalType": "string",
          "name": "",
          "type": "string"
        }
      ],
      "stateMutability": "view",
      "type": "function"
    },
    {
      "inputs": [
        {
          "internalType": "uint256",
          "name": "pollId",
          "type": "uint256"
        },
        {
          "internalType": "uint256",
          "name": "optionIndex",
          "type": "uint256"
        },
        {
          "internalType": "uint256",
          "name": "numVotes",
          "type": "uint256"
        }
      ],
      "name": "buyVotes",
      "outputs": [],
      "stateMutability": "nonpayable",
      "type": "function"
    },
    {
      "inputs": [
        {
          "internalType": "uint256",
          "name": "amount",
          "type": "uint256"
        }
      ],
      "name": "calculatePlatformFee",
      "outputs": [
        {
          "internalType": "uint256",
          "name": "",
          "type": "uint256"
        }
      ],
      "stateMutability": "view",
      "type": "function"
    },
    {
      "inputs": [
        {
          "internalType": "uint256",
          "name": "currentVotes",
          "type": "uint256"
        },
        {
          "internalType": "uint256",
          "name": "additionalVotes",
          "type": "uint256"
        }
      ],
      "name": "calculateQuadraticCost",
      "outputs": [
        {
          "internalType": "uint256",
          "name": "",
          "type": "uint256"
        }
      ],
      "stateMutability": "pure",
      "type": "function"
    },
    {
      "inputs": [
        {
          "internalType": "uint256",
          "name": "pollId",
          "type": "uint256"
        }
      ],
      "name": "closePoll",
      "outputs": [],
      "stateMutability": "nonpayable",
      "type": "function"
    },
    {
      "inputs": [
        {
          "internalType": "string",
          "name": "question",
          "type": "string"
        },
        {
          "internalType": "string[]",
          "name": "options",
          "type": "string[]"
        },
        {
          "internalType": "uint256",
          "name": "duration",
          "type": "uint256"
        },
        {
          "internalType": "address",
          "name": "fundingToken",
          "type": "address"
        },
        {
          "internalType": "enum PollsContract.FundingType",
          "name": "fundingType",
          "type": "uint8"
        }
      ],
      "name": "createPoll",
      "outputs": [
        {
          "internalType": "uint256",
          "name": "",
          "type": "uint256"
        }
      ],
      "stateMutability": "nonpayable",
      "type": "function"
    },
    {
      "inputs": [
        {
          "internalType": "string",
          "name": "question",
          "type": "string"
        },
        {
          "internalType": "string[]",
          "name": "options",
          "type": "string[]"
        },
        {
          "internalType": "uint256",
          "name": "duration",
          "type": "uint256"
        },
        {
          "internalType": "address",
          "name": "fundingToken",
          "type": "address"
        },
        {
          "internalType": "enum PollsContract.FundingType",
          "name": "fundingType",
          "type": "uint8"
        },
        {
          "internalType": "enum PollsContract.VotingType",
          "name": "votingType",
          "type": "uint8"
        },
        {
          "internalType": "bool",
          "name": "publish",
          "type": "bool"
        },
        {
          "internalType": "uint256",
          "name": "fundingAmount",
          "type": "uint256"
        },
        {
          "internalType": "uint256",
          "name": "expectedResponses",
          "type": "uint256"
        },
        {
          "internalType": "uint256",
          "name": "rewardPerResponse",
          "type": "uint256"
        }
      ],
      "name": "createPollWithFundingAndPublish",
      "outputs": [
        {
          "internalType": "uint256",
          "name": "",
          "type": "uint256"
        }
      ],
      "stateMutability": "payable",
      "type": "function"
    },
    {
      "inputs": [
        {
          "internalType": "string",
          "name": "question",
          "type": "string"
        },
        {
          "internalType": "string[]",
          "name": "options",
          "type": "string[]"
        },
        {
          "internalType": "uint256",
          "name": "duration",
          "type": "uint256"
        },
        {
          "internalType": "address",
          "name": "fundingToken",
          "type": "address"
        },
        {
          "internalType": "enum PollsContract.FundingType",
          "name": "fundingType",
          "type": "uint8"
        },
        {
          "internalType": "enum PollsContract.VotingType",
          "name": "votingType",
          "type": "uint8"
        }
      ],
      "name": "createPollWithVotingType",
      "outputs": [
        {
          "internalType": "uint256",
          "name": "",
          "type": "uint256"
        }
      ],
      "stateMutability": "nonpayable",
      "type": "function"
    },
    {
      "inputs": [
        {
          "internalType": "string",
          "name": "question",
          "type": "string"
        },
        {
          "internalType": "string[]",
          "name": "options",
          "type": "string[]"
        },
        {
          "internalType": "uint256",
          "name": "duration",
          "type": "uint256"
        },
        {
          "internalType": "address",
          "name": "fundingToken",
          "type": "address"
        },
        {
          "internalType": "enum PollsContract.FundingType",
          "name": "fundingType",
          "type": "uint8"
        },
        {
          "internalType": "enum PollsContract.VotingType",
          "name": "votingType",
          "type": "uint8"
        },
        {
          "internalType": "bool",
          "name": "publish",
          "type": "bool"
        }
      ],
      "name": "createPollWithVotingTypeAndPublish",
      "outputs": [
        {
          "internalType": "uint256",
          "name": "",
          "type": "uint256"
        }
      ],
      "stateMutability": "nonpayable",
      "type": "function"
    },
    {
      "inputs": [
        {
          "internalType": "uint256",
          "name": "pollId",
          "type": "uint256"
        },
        {
          "internalType": "address",
          "name": "token",
          "type": "address"
        },
        {
          "internalType": "address[]",
          "name": "recipients",
          "type": "address[]"
        },
        {
          "internalType": "uint256[]",
          "name": "amounts",
          "type": "uint256[]"
        }
      ],
      "name": "distributeRewards",
      "outputs": [],
      "stateMutability": "nonpayable",
      "type": "function"
    },
    {
      "inputs": [
        {
          "internalType": "uint256",
          "name": "pollId",
          "type": "uint256"
        },
        {
          "internalType": "address[]",
          "name": "tokens",
          "type": "address[]"
        }
      ],
      "name": "donateToTreasury",
      "outputs": [],
      "stateMutability": "nonpayable",
      "type": "function"
    },
    {
      "inputs": [
        {
          "internalType": "uint256",
          "name": "pollId",
          "type": "uint256"
        }
      ],
      "name": "finalizePoll",
      "outputs": [],
      "stateMutability": "nonpayable",
      "type": "function"
    },
    {
      "inputs": [
        {
          "internalType": "uint256",
          "name": "pollId",
          "type": "uint256"
        }
      ],
      "name": "fundPollWithETH",
      "outputs": [],
      "stateMutability": "payable",
      "type": "function"
    },
    {
      "inputs": [
        {
          "internalType": "uint256",
          "name": "pollId",
          "type": "uint256"
        },
        {
          "internalType": "address",
          "name": "token",
          "type": "address"
        },
        {
          "internalType": "uint256",
          "name": "amount",
          "type": "uint256"
        }
      ],
      "name": "fundPollWithToken",
      "outputs": [],
      "stateMutability": "nonpayable",
      "type": "function"
    },
    {
      "inputs": [],
      "name": "getActivePolls",
      "outputs": [
        {
          "internalType": "uint256[]",
          "name": "",
          "type": "uint256[]"
        }
      ],
      "stateMutability": "view",
      "type": "function"
    },
    {
      "inputs": [
        {
          "internalType": "uint256",
          "name": "pollId",
          "type": "uint256"
        }
      ],
      "name": "getDistributionMode",
      "outputs": [
        {
          "internalType": "enum PollsContract.DistributionMode",
          "name": "",
          "type": "uint8"
        }
      ],
      "stateMutability": "view",
      "type": "function"
    },
    {
      "inputs": [
        {
          "internalType": "address",
          "name": "creator",
          "type": "address"
        }
      ],
      "name": "getDraftPolls",
      "outputs": [
        {
          "internalType": "uint256[]",
          "name": "",
          "type": "uint256[]"
        }
      ],
      "stateMutability": "view",
      "type": "function"
    },
    {
      "inputs": [
        {
          "internalType": "uint256",
          "name": "pollId",
          "type": "uint256"
        }
      ],
      "name": "getPoll",
      "outputs": [
        {
          "internalType": "uint256",
          "name": "id",
          "type": "uint256"
        },
        {
          "internalType": "string",
          "name": "question",
          "type": "string"
        },
        {
          "internalType": "string[]",
          "name": "options",
          "type": "string[]"
        },
        {
          "internalType": "uint256[]",
          "name": "votes",
          "type": "uint256[]"
        },
        {
          "internalType": "uint256",
          "name": "endTime",
          "type": "uint256"
        },
        {
          "internalType": "bool",
          "name": "isActive",
          "type": "bool"
        },
        {
          "internalType": "address",
          "name": "creator",
          "type": "address"
        },
        {
          "internalType": "uint256",
          "name": "totalFunding",
          "type": "uint256"
        },
        {
          "internalType": "enum PollsContract.DistributionMode",
          "name": "distributionMode",
          "type": "uint8"
        },
        {
          "internalType": "address",
          "name": "fundingToken",
          "type": "address"
        },
        {
          "internalType": "enum PollsContract.FundingType",
          "name": "fundingType",
          "type": "uint8"
        },
        {
          "internalType": "enum PollsContract.PollStatus",
          "name": "status",
          "type": "uint8"
        },
        {
          "internalType": "enum PollsContract.PollStatus",
          "name": "previousStatus",
          "type": "uint8"
        },
        {
          "internalType": "enum PollsContract.VotingType",
          "name": "votingType",
          "type": "uint8"
        },
        {
          "internalType": "uint256",
          "name": "totalVotesBought",
          "type": "uint256"
        }
      ],
      "stateMutability": "view",
      "type": "function"
    },
    {
      "inputs": [
        {
          "internalType": "uint256",
          "name": "pollId",
          "type": "uint256"
        }
      ],
      "name": "getPollFundingBreakdown",
      "outputs": [
        {
          "internalType": "uint256",
          "name": "totalFunded",
          "type": "uint256"
        },
        {
          "internalType": "uint256",
          "name": "expectedDistribution",
          "type": "uint256"
        },
        {
          "internalType": "uint256",
          "name": "actualParticipants",
          "type": "uint256"
        },
        {
          "internalType": "uint256",
          "name": "distributed",
          "type": "uint256"
        },
        {
          "internalType": "uint256",
          "name": "remaining",
          "type": "uint256"
        },
        {
          "internalType": "uint256",
          "name": "claimDeadline",
          "type": "uint256"
        },
        {
          "internalType": "bool",
          "name": "claimPeriodExpired",
          "type": "bool"
        }
      ],
      "stateMutability": "view",
      "type": "function"
    },
    {
      "inputs": [
        {
          "internalType": "uint256",
          "name": "pollId",
          "type": "uint256"
        },
        {
          "internalType": "address",
          "name": "token",
          "type": "address"
        }
      ],
      "name": "getPollTokenBalance",
      "outputs": [
        {
          "internalType": "uint256",
          "name": "",
          "type": "uint256"
        }
      ],
      "stateMutability": "view",
      "type": "function"
    },
    {
      "inputs": [
        {
          "internalType": "uint256",
          "name": "pollId",
          "type": "uint256"
        }
      ],
      "name": "getTotalVotesBought",
      "outputs": [
        {
          "internalType": "uint256",
          "name": "",
          "type": "uint256"
        }
      ],
      "stateMutability": "view",
      "type": "function"
    },
    {
      "inputs": [
        {
          "internalType": "uint256",
          "name": "pollId",
          "type": "uint256"
        },
        {
          "internalType": "address",
          "name": "user",
          "type": "address"
        }
      ],
      "name": "getUserFunding",
      "outputs": [
        {
          "internalType": "uint256",
          "name": "",
          "type": "uint256"
        }
      ],
      "stateMutability": "view",
      "type": "function"
    },
    {
      "inputs": [
        {
          "internalType": "uint256",
          "name": "pollId",
          "type": "uint256"
        },
        {
          "internalType": "address",
          "name": "voter",
          "type": "address"
        }
      ],
      "name": "getUserVotesInPoll",
      "outputs": [
        {
          "internalType": "uint256",
          "name": "",
          "type": "uint256"
        }
      ],
      "stateMutability": "view",
      "type": "function"
    },
    {
      "inputs": [
        {
          "internalType": "uint256",
          "name": "pollId",
          "type": "uint256"
        }
      ],
      "name": "getVotingType",
      "outputs": [
        {
          "internalType": "enum PollsContract.VotingType",
          "name": "",
          "type": "uint8"
        }
      ],
      "stateMutability": "view",
      "type": "function"
    },
    {
      "inputs": [
        {
          "internalType": "uint256",
          "name": "pollId",
          "type": "uint256"
        },
        {
          "internalType": "address",
          "name": "user",
          "type": "address"
        }
      ],
      "name": "hasUserVoted",
      "outputs": [
        {
          "internalType": "bool",
          "name": "",
          "type": "bool"
        }
      ],
      "stateMutability": "view",
      "type": "function"
    },
    {
      "inputs": [],
      "name": "initialize",
      "outputs": [],
      "stateMutability": "nonpayable",
      "type": "function"
    },
    {
      "inputs": [
        {
          "internalType": "uint256",
          "name": "pollId",
          "type": "uint256"
        }
      ],
      "name": "isClaimPeriodExpired",
      "outputs": [
        {
          "internalType": "bool",
          "name": "",
          "type": "bool"
        }
      ],
      "stateMutability": "view",
      "type": "function"
    },
    {
      "inputs": [
        {
          "internalType": "uint256",
          "name": "pollId",
          "type": "uint256"
        }
      ],
      "name": "isPollActive",
      "outputs": [
        {
          "internalType": "bool",
          "name": "",
          "type": "bool"
        }
      ],
      "stateMutability": "view",
      "type": "function"
    },
    {
      "inputs": [
        {
          "internalType": "uint256",
          "name": "startPollId",
          "type": "uint256"
        },
        {
          "internalType": "uint256",
          "name": "endPollId",
          "type": "uint256"
        }
      ],
      "name": "migratePolls",
      "outputs": [],
      "stateMutability": "nonpayable",
      "type": "function"
    },
    {
      "inputs": [],
      "name": "nextPollId",
      "outputs": [
        {
          "internalType": "uint256",
          "name": "",
          "type": "uint256"
        }
      ],
      "stateMutability": "view",
      "type": "function"
    },
    {
      "inputs": [],
      "name": "owner",
      "outputs": [
        {
          "internalType": "address",
          "name": "",
          "type": "address"
        }
      ],
      "stateMutability": "view",
      "type": "function"
    },
    {
      "inputs": [
        {
          "internalType": "uint256",
          "name": "pollId",
          "type": "uint256"
        }
      ],
      "name": "pausePoll",
      "outputs": [],
      "stateMutability": "nonpayable",
      "type": "function"
    },
    {
      "inputs": [],
      "name": "platformFeePercent",
      "outputs": [
        {
          "internalType": "uint256",
          "name": "",
          "type": "uint256"
        }
      ],
      "stateMutability": "view",
      "type": "function"
    },
    {
      "inputs": [],
      "name": "platformTreasury",
      "outputs": [
        {
          "internalType": "address",
          "name": "",
          "type": "address"
        }
      ],
      "stateMutability": "view",
      "type": "function"
    },
    {
      "inputs": [
        {
          "internalType": "uint256",
          "name": "",
          "type": "uint256"
        }
      ],
      "name": "pollClaimDeadline",
      "outputs": [
        {
          "internalType": "uint256",
          "name": "",
          "type": "uint256"
        }
      ],
      "stateMutability": "view",
      "type": "function"
    },
    {
      "inputs": [
        {
          "internalType": "uint256",
          "name": "",
          "type": "uint256"
        }
      ],
      "name": "pollDistributedAmount",
      "outputs": [
        {
          "internalType": "uint256",
          "name": "",
          "type": "uint256"
        }
      ],
      "stateMutability": "view",
      "type": "function"
    },
    {
      "inputs": [
        {
          "internalType": "uint256",
          "name": "",
          "type": "uint256"
        }
      ],
      "name": "pollExpectedResponses",
      "outputs": [
        {
          "internalType": "uint256",
          "name": "",
          "type": "uint256"
        }
      ],
      "stateMutability": "view",
      "type": "function"
    },
    {
      "inputs": [
        {
          "internalType": "uint256",
          "name": "",
          "type": "uint256"
        }
      ],
      "name": "pollRewardPerResponse",
      "outputs": [
        {
          "internalType": "uint256",
          "name": "",
          "type": "uint256"
        }
      ],
      "stateMutability": "view",
      "type": "function"
    },
    {
      "inputs": [
        {
          "internalType": "uint256",
          "name": "",
          "type": "uint256"
        },
        {
          "internalType": "address",
          "name": "",
          "type": "address"
        }
      ],
      "name": "pollTokenBalances",
      "outputs": [
        {
          "internalType": "uint256",
          "name": "",
          "type": "uint256"
        }
      ],
      "stateMutability": "view",
      "type": "function"
    },
    {
      "inputs": [
        {
          "internalType": "uint256",
          "name": "",
          "type": "uint256"
        }
      ],
      "name": "pollVoterCount",
      "outputs": [
        {
          "internalType": "uint256",
          "name": "",
          "type": "uint256"
        }
      ],
      "stateMutability": "view",
      "type": "function"
    },
    {
      "inputs": [
        {
          "internalType": "uint256",
          "name": "",
          "type": "uint256"
        }
      ],
      "name": "polls",
      "outputs": [
        {
          "internalType": "uint256",
          "name": "id",
          "type": "uint256"
        },
        {
          "internalType": "string",
          "name": "question",
          "type": "string"
        },
        {
          "internalType": "uint256",
          "name": "endTime",
          "type": "uint256"
        },
        {
          "internalType": "bool",
          "name": "isActive",
          "type": "bool"
        },
        {
          "internalType": "address",
          "name": "creator",
          "type": "address"
        },
        {
          "internalType": "uint256",
          "name": "totalFunding",
          "type": "uint256"
        },
        {
          "internalType": "enum PollsContract.DistributionMode",
          "name": "distributionMode",
          "type": "uint8"
        },
        {
          "internalType": "address",
          "name": "fundingToken",
          "type": "address"
        },
        {
          "internalType": "enum PollsContract.FundingType",
          "name": "fundingType",
          "type": "uint8"
        },
        {
          "internalType": "enum PollsContract.PollStatus",
          "name": "status",
          "type": "uint8"
        },
        {
          "internalType": "enum PollsContract.PollStatus",
          "name": "previousStatus",
          "type": "uint8"
        },
        {
          "internalType": "enum PollsContract.VotingType",
          "name": "votingType",
          "type": "uint8"
        },
        {
          "internalType": "uint256",
          "name": "totalVotesBought",
          "type": "uint256"
        }
      ],
      "stateMutability": "view",
      "type": "function"
    },
    {
      "inputs": [],
      "name": "premiumContract",
      "outputs": [
        {
          "internalType": "contract IPremiumSubscription",
          "name": "",
          "type": "address"
        }
      ],
      "stateMutability": "view",
      "type": "function"
    },
    {
      "inputs": [
        {
          "internalType": "uint256",
          "name": "pollId",
          "type": "uint256"
        },
        {
          "internalType": "address",
          "name": "voter",
          "type": "address"
        },
        {
          "internalType": "uint256",
          "name": "numVotes",
          "type": "uint256"
        }
      ],
      "name": "previewVoteCost",
      "outputs": [
        {
          "internalType": "uint256",
          "name": "",
          "type": "uint256"
        }
      ],
      "stateMutability": "view",
      "type": "function"
    },
    {
      "inputs": [],
      "name": "proxiableUUID",
      "outputs": [
        {
          "internalType": "bytes32",
          "name": "",
          "type": "bytes32"
        }
      ],
      "stateMutability": "view",
      "type": "function"
    },
    {
      "inputs": [
        {
          "internalType": "uint256",
          "name": "pollId",
          "type": "uint256"
        }
      ],
      "name": "publishPoll",
      "outputs": [],
      "stateMutability": "nonpayable",
      "type": "function"
    },
    {
      "inputs": [],
      "name": "pulseToken",
      "outputs": [
        {
          "internalType": "contract IERC20",
          "name": "",
          "type": "address"
        }
      ],
      "stateMutability": "view",
      "type": "function"
    },
    {
      "inputs": [],
      "name": "quadraticVotingTreasury",
      "outputs": [
        {
          "internalType": "address",
          "name": "",
          "type": "address"
        }
      ],
      "stateMutability": "view",
      "type": "function"
    },
    {
      "inputs": [],
      "name": "renounceOwnership",
      "outputs": [],
      "stateMutability": "nonpayable",
      "type": "function"
    },
    {
      "inputs": [
        {
          "internalType": "uint256",
          "name": "pollId",
          "type": "uint256"
        }
      ],
      "name": "resumePoll",
      "outputs": [],
      "stateMutability": "nonpayable",
      "type": "function"
    },
    {
      "inputs": [
        {
          "internalType": "uint256",
          "name": "pollId",
          "type": "uint256"
        },
        {
          "internalType": "uint256",
          "name": "deadline",
          "type": "uint256"
        }
      ],
      "name": "setClaimDeadline",
      "outputs": [],
      "stateMutability": "nonpayable",
      "type": "function"
    },
    {
      "inputs": [
        {
          "internalType": "uint256",
          "name": "pollId",
          "type": "uint256"
        },
        {
          "internalType": "enum PollsContract.DistributionMode",
          "name": "mode",
          "type": "uint8"
        }
      ],
      "name": "setDistributionMode",
      "outputs": [],
      "stateMutability": "nonpayable",
      "type": "function"
    },
    {
      "inputs": [
        {
          "internalType": "uint256",
          "name": "pollId",
          "type": "uint256"
        }
      ],
      "name": "setForClaiming",
      "outputs": [],
      "stateMutability": "nonpayable",
      "type": "function"
    },
    {
      "inputs": [
        {
          "internalType": "uint256",
          "name": "pollId",
          "type": "uint256"
        },
        {
          "internalType": "address",
          "name": "fundingToken",
          "type": "address"
        }
      ],
      "name": "setFundingToken",
      "outputs": [],
      "stateMutability": "nonpayable",
      "type": "function"
    },
    {
      "inputs": [
        {
          "internalType": "uint256",
          "name": "pollId",
          "type": "uint256"
        },
        {
          "internalType": "enum PollsContract.FundingType",
          "name": "fundingType",
          "type": "uint8"
        }
      ],
      "name": "setFundingType",
      "outputs": [],
      "stateMutability": "nonpayable",
      "type": "function"
    },
    {
      "inputs": [
        {
          "internalType": "uint256",
          "name": "_feePercent",
          "type": "uint256"
        }
      ],
      "name": "setPlatformFee",
      "outputs": [],
      "stateMutability": "nonpayable",
      "type": "function"
    },
    {
      "inputs": [
        {
          "internalType": "address",
          "name": "_treasury",
          "type": "address"
        }
      ],
      "name": "setPlatformTreasury",
      "outputs": [],
      "stateMutability": "nonpayable",
      "type": "function"
    },
    {
      "inputs": [
        {
          "internalType": "address",
          "name": "_premiumContract",
          "type": "address"
        }
      ],
      "name": "setPremiumContract",
      "outputs": [],
      "stateMutability": "nonpayable",
      "type": "function"
    },
    {
      "inputs": [
        {
          "internalType": "address",
          "name": "_pulseToken",
          "type": "address"
        }
      ],
      "name": "setPulseToken",
      "outputs": [],
      "stateMutability": "nonpayable",
      "type": "function"
    },
    {
      "inputs": [
        {
          "internalType": "address",
          "name": "_treasury",
          "type": "address"
        }
      ],
      "name": "setQuadraticVotingTreasury",
      "outputs": [],
      "stateMutability": "nonpayable",
      "type": "function"
    },
    {
      "inputs": [
        {
          "internalType": "address",
          "name": "newOwner",
          "type": "address"
        }
      ],
      "name": "transferOwnership",
      "outputs": [],
      "stateMutability": "nonpayable",
      "type": "function"
    },
    {
      "inputs": [
        {
          "internalType": "address",
          "name": "newImplementation",
          "type": "address"
        },
        {
          "internalType": "bytes",
          "name": "data",
          "type": "bytes"
        }
      ],
      "name": "upgradeToAndCall",
      "outputs": [],
      "stateMutability": "payable",
      "type": "function"
    },
    {
      "inputs": [
        {
          "internalType": "uint256",
          "name": "pollId",
          "type": "uint256"
        },
        {
          "internalType": "uint256",
          "name": "optionIndex",
          "type": "uint256"
        }
      ],
      "name": "vote",
      "outputs": [],
      "stateMutability": "nonpayable",
      "type": "function"
    },
    {
      "inputs": [
        {
          "internalType": "address",
          "name": "token",
          "type": "address"
        },
        {
          "internalType": "bool",
          "name": "status",
          "type": "bool"
        }
      ],
      "name": "whitelistToken",
      "outputs": [],
      "stateMutability": "nonpayable",
      "type": "function"
    },
    {
      "inputs": [
        {
          "internalType": "address",
          "name": "",
          "type": "address"
        }
      ],
      "name": "whitelistedTokens",
      "outputs": [
        {
          "internalType": "bool",
          "name": "",
          "type": "bool"
        }
      ],
      "stateMutability": "view",
      "type": "function"
    },
    {
      "inputs": [
        {
          "internalType": "uint256",
          "name": "pollId",
          "type": "uint256"
        },
        {
          "internalType": "address",
          "name": "recipient",
          "type": "address"
        },
        {
          "internalType": "address[]",
          "name": "tokens",
          "type": "address[]"
        }
      ],
      "name": "withdrawFunds",
      "outputs": [],
      "stateMutability": "nonpayable",
      "type": "function"
    }
  ],
  "bytecode": "0x60a08060405234620000d157306080527ff0c57e16840df040f15088dc2f81fe391c3923bec73e23a9662efc9c229c6a009081549060ff8260401c16620000c257506001600160401b036002600160401b0319828216016200007c575b604051615f749081620000d7823960805181818161377701526138770152f35b6001600160401b031990911681179091556040519081527fc7f505b2f371ae2175ee4913f4499e1f2633a7b5936321eed1cdaeb6115181d290602090a13880806200005c565b63f92ee8a960e01b8152600490fd5b600080fdfe6080604052600436101561001257600080fd5b60003560e01c80630242174314614bd65780630b404a5314614b885780630c68a3d314614b6f5780630cbab4f714614b515780630f0970b014614a775780630ffb1d8b146149f857806312e8e2c31461495f57806313910ea21461491757806317657c9b146147e35780631a8cbcaa1461459a5780631bd3528e1461430e5780631c4bf2e614613daa5780631d59fd7814613d8d5780631f77932214613d345780632b78657114613d165780632ec1548014613cbe5780633998a68114613ca1578063498ecc0b14613a0b5780634f1ef2861461382857806350af6282146137cf57806352d1902d1461376457806356597e4f1461356657806356cf9b61146135105780635a63e72714612f535780635b0fc6e814612f2a578063638e4efb14612cbf57806363a9492f14612bd457806363b9f29f1461293357806366130fb11461290757806369c50294146126f8578063715018a6146126a05780637a8f3649146126745780637cd86d60146125c55780637f7c62141461241a5780638129fc1c146122dd578063816fc93414612273578063840e1ce71461223e5780638a8aff7a146122125780638c639a85146121f45780638da5cb5b146121be5780639534e6371461200c578063a61fe0fd14611fe0578063aa618ecd14611f97578063ac2f007414611e90578063ad3cb1cc14611e38578063b11c19e114611e0c578063b384abef14611c30578063b394c5e614611a34578063b8d2ce7f146118f6578063b9836f8b146114ea578063cbb2327c146114ae578063cc7dfc401461137c578063cde202c41461119d578063cfef17a714611174578063d492cf4d14610a65578063d6dd31ad146109ee578063daf9c210146109af578063dc296ae114610951578063dd9f9b6114610732578063dfa8056a146106ea578063e138818c146106c1578063e238b764146106a3578063e81e08de146104c3578063e987624614610459578063f2fde38b1461042e578063f49b07ae146103c4578063f562c338146103365763faa4274a1461030857600080fd5b34610331576000366003190112610331576006546040516001600160a01b039091168152602090f35b600080fd5b346103315760e0366003190112610331576001600160401b0360043581811161033157610367903690600401614e03565b9060243590811161033157610380903690600401614e38565b90610389614c8b565b9160843560038110156103315760a435906002821015610331576020946103bc946103b2614cb7565b94604435916155cd565b604051908152f35b34610331576020366003190112610331576103dd614c75565b6103e5615bda565b600580546001600160a01b039283166001600160a01b0319821681179092559091167fbc98504bb5da5db837c6ce28eee385408c2ff863f91416c31dc2e3d494a8ea69600080a3005b346103315760203660031901126103315761045761044a614c75565b610452615bda565b615541565b005b3461033157602036600319011261033157610472614c75565b61047a615bda565b600680546001600160a01b039283166001600160a01b0319821681179092559091167f36f8d10b5dc1a8144145766e3d81607a942276461f8e4bd08b58d1861eda4cd4600080a3005b602080600319360112610331576004356104e06003548210614fc0565b80600052600082526104fc60ff6005604060002001541661515a565b8060005260008252610517600460406000200154421061519b565b61051f615c13565b341561066657600081815280835260409020600b01546001600160a01b039061054a90821615615448565b8161055434615127565b9161055f83346154a4565b9280151580610659575b61060c575b505060005260008352600660406000200161058a8282546150a8565b90558160005260008352600860406000200133600052835260406000206105b28282546150a8565b90558160005260028352604060002060008052835260406000206105d78282546150a8565b90556040519260008452830152600080516020615e1f83398151915260403393a36001600080516020615edf83398151915255005b8161063a600080808086600080516020615dbf83398151915298600854165af16106346152aa565b506154f6565b600854169061064e604051928392836154b1565b0390a281848061056e565b5081600854161515610569565b60405162461bcd60e51b8152600481018390526015602482015274135d5cdd081cd95b9908115512081d1bc8199d5b99605a1b6044820152606490fd5b3461033157600036600319011261033157602060405162278d008152f35b34610331576000366003190112610331576008546040516001600160a01b039091168152602090f35b3461033157604036600319011261033157610703614c5f565b600435600052600260205260406000209060018060a01b03166000526020526020604060002054604051908152f35b3461033157602080600319360112610331576004356107546003548210614fc0565b806000526000825260018060a01b038060056040600020015460081c163314908115610936575b50156108de57806000526000825260ff600b6040600020015460a81c166006811015610851576001036108a35780600052600082526004604060002001544210610867578060005260008252600b604060002001906107e260ff835460a81c1680936153c1565b600081815280845260409020600b01805460ff60a81b1916600160a91b179081905560a81c60ff1660068110156108515761082d908260005260008552156005604060002001615149565b600682101561085157600080516020615e5f833981519152600293604051428152a4005b634e487b7160e01b600052602160045260246000fd5b60405162461bcd60e51b8152600481018390526014602482015273141bdb1b081b5d5cdd081a185d9948195b99195960621b6044820152606490fd5b60405162461bcd60e51b8152600481018390526013602482015272141bdb1b081b5d5cdd0818994818db1bdcd959606a1b6044820152606490fd5b60405162461bcd60e51b815260048101839052602a60248201527f4f6e6c792063726561746f72206f72206f776e65722063616e2073657420666f6044820152697220636c61696d696e6760b01b6064820152608490fd5b9050600080516020615ddf833981519152541633148361077b565b346103315760403660031901126103315760043561096d614c5f565b9061097b6003548210614fc0565b600052600060205260096040600020019060018060a01b0316600052602052602060ff604060002054166040519015158152f35b34610331576020366003190112610331576001600160a01b036109d0614c75565b166000526001602052602060ff604060002054166040519015158152f35b34610331576109fc36614f96565b610a096003548410614fc0565b82600052600060205260ff600b6040600020015460b81c1691600283101561085157602093610a3d60016103bc9514615215565b60005260008452600d6040600020019060018060a01b031660005283526040600020546150c8565b346103315760c0366003190112610331576004356001600160401b03811161033157610a95903690600401614e03565b6024356001600160401b03811161033157610ab4903690600401614e38565b604491610abf614c8b565b6003608435101561033157600260a4351015610331578151156111355760028351106110f957600a8351116110b957610e1084351015806110ab575b610b049061537d565b6001600160a01b0393818516158015611090575b610b2190615002565b600160a43514610f91575b60035493610b3985615083565b600355846000526000602052604060002090858255845160018060401b038111610d3357610b6a6001840154614eb7565b601f8111610f51575b506020601f8211600114610ee5579080610b9592600091610eda575b506155ba565b60018301555b8051600160401b8111610d33576002830154816002850155808210610e62575b506020820190600284016000526020600020916000905b828210610d495750505050610be79051615337565b80516003830197916001600160401b038211610d3357600160401b8211610d33576020908954838b55808410610d16575b50019760005260206000209760005b828110610d0257600585018054610100600160a81b0319163360081b610100600160a81b03161781556000600687015560078601805460ff19908116909155600b870180546001600160a01b031916878b161781556020928c926004928492600080516020615ebf833981519152928f92918e916001908f610cab6084358761505f565b610cb886549535426150a8565b990189905582541617905562ffffff60a81b191660a43560b81b60ff60b81b161790556040805181815291610cef91830190614cd0565b93868201528033940390a3604051908152f35b60019060208351930192818c015501610c27565b610d2d908b600052848460002091820191016155a3565b8a610c18565b634e487b7160e01b600052604160045260246000fd5b80518051906001600160401b038211610d3357610d668654614eb7565b601f8111610e25575b50602090601f8311600114610db55792610d9b83600195946020948796600092610daa575b50506155ba565b87555b01940191019092610bd2565b015190503880610d94565b908660005260206000209160005b601f1985168110610e0d575083602093600196938796938794601f19811610610df4575b505050811b018755610d9e565b015160001960f88460031b161c19169055388080610de7565b91926020600181928685015181550194019201610dc3565b610e52908760005260206000206005601f8601811c82019260208710610e58575b601f01901c01906155a3565b8d610d6f565b9192508291610e46565b600284016000526020600020908282015b8183018110610e83575050610bbb565b80610e9060019254614eb7565b80610e9d575b5001610e73565b601f81118314610eb35750600081555b8c610e96565b600090828252610ed1601f60208420920160051c82018583016155a3565b81835555610ead565b90508701518a610b8f565b906001840160005260206000206000925b601f1983168410610f39576001935082601f19811610610f20575b5050811b016001830155610b9b565b88015160001960f88460031b161c191690558980610f11565b88810151825560209384019360019092019101610ef6565b610f8190600185016000526020600020601f840160051c81019160208510610f87575b601f0160051c01906155a3565b88610b73565b9091508190610f74565b8460045416801561105157602060249160405192838092630e76e53360e41b82523360048301525afa9081156110455760009161100a575b50610b2c57608490600080516020615e3f8339815191526040519162461bcd60e51b83526020600484015260216024840152820152606d60f81b6064820152fd5b90506020813d60201161103d575b8161102560209383614d8e565b81010312610331575180151581036103315786610fc9565b3d9150611018565b6040513d6000823e3d90fd5b60405162461bcd60e51b8152602060048201526018602482015277141c995b5a5d5b4818dbdb9d1c9858dd081b9bdd081cd95d60421b81840152606490fd5b5081851660009081526001602052604090205460ff16610b18565b5062278d0084351115610afb565b60405162461bcd60e51b81526020600482015260256024820152600080516020615eff833981519152818601526474696f6e7360d81b6064820152608490fd5b60405162461bcd60e51b81526020600482015260216024820152600080516020615e9f83398151915281860152607360f81b6064820152608490fd5b60405162461bcd60e51b81526020600482015260186024820152775175657374696f6e2063616e6e6f7420626520656d70747960401b81860152606490fd5b34610331576000366003190112610331576004546040516001600160a01b039091168152602090f35b346103315760208060031936011261033157600435906111c06003548310614fc0565b816000526000815260018060a01b038060056040600020015460081c163314908115611361575b501561131157816000526000815260ff600b6040600020015460a81c166006811015610851576112cd578160005260008152600b6040600020019061123460ff835460a81c1680936153c1565b600083815280825260409020600b01805460ff60a81b1916600360a81b179081905560a81c60ff1660068110156108515761127f908460005260008352156005604060002001615149565b60068210156108515760037fdb60f2dea048e4e773fc1838826049d2c8e6f4242ebcdecf7640a25175ff59249284600080516020615e5f83398151915284604051428152a4604051428152a2005b6064906040519062461bcd60e51b82526004820152601f60248201527f4f6e6c792061637469766520706f6c6c732063616e20626520706175736564006044820152fd5b6084906040519062461bcd60e51b825260048201526024808201527f4f6e6c792063726561746f72206f72206f776e65722063616e207061757365206044820152631c1bdb1b60e21b6064820152fd5b9050600080516020615ddf83398151915254163314836111e7565b346103315760208060031936011261033157611396614c75565b6003546001600160a01b03918216916000805b83811061144e57506113ba90615337565b9260009460005b8481106113e257604051602080825281906113de90820189614d10565b0390f35b806000526000825260406000208385600583015460081c16149081611430575b50611410575b6001016113c1565b9561142881886114226001948a615369565b52615083565b969050611408565b60ff9150600b015460a81c1660068110156108515760041488611402565b806000526000865260406000208584600583015460081c16149081611490575b5061147c575b6001016113a9565b90611488600191615083565b919050611474565b60ff9150600b015460a81c166006811015610851576004148761146e565b34610331576020366003190112610331576004356114cf6003548210614fc0565b60005260006020526020600c60406000200154604051908152f35b610140366003190112610331576001600160401b0360043581811161033157611517903690600401614e03565b9060243590811161033157611530903690600401614e38565b611538614c8b565b6084359260038410156103315760a43590600282101561033157611576918584611560614cb7565b9360e4359761156d615c13565b604435916155cd565b91826000526020936009855261010435604060002055600a855261012435604060002055816115bd575b5050506001600080516020615edf83398151915255604051908152f35b806115c9600192614cc6565b03611898576115d781615127565b906115e282826154a4565b916001600160a01b039184831680611734575034036116f957849283600080516020615e1f833981519152938361169a941515806116ec575b6116a5575b505060005260008752600660406000200161163c8282546150a8565b90558360005260008752600860406000200133600052875260406000206116648282546150a8565b90558360005260028752604060002060008052875260406000206116898282546150a8565b90555b60405191829133968361531c565b0390a38280806115a0565b816116cd600080808086600080516020615dbf83398151915298600854165af16106346152aa565b60085416906116e1604051928392836154b1565b0390a2838880611620565b508160085416151561161b565b60405162461bcd60e51b815260048101879052601360248201527208aa89040c2dadeeadce840dad2e6dac2e8c6d606b1b6044820152606490fd5b929190836000526001885261175060ff60406000205416615404565b3461184357928661169a93819693611779600080516020615e1f83398151915297303387615c43565b80151580611836575b6117f7575b50506000526000885260066040600020016117a38382546150a8565b90558460005260008852600860406000200133600052885260406000206117cb8382546150a8565b90558460005260028852604060002090600052875260406000206117f08282546150a8565b905561168c565b8161181682600080516020615dbf833981519152946008541687615c9b565b600854169061182b6040519283928c846154d3565b0390a2848980611787565b5081600854161515611782565b60405162461bcd60e51b815260048101899052602760248201527f455448206e6f7420616363657074656420666f7220746f6b656e2d66756e64656044820152666420706f6c6c7360c81b6064820152608490fd5b60405162461bcd60e51b815260048101859052603060248201527f4f6e6c792073656c662d66756e64656420706f6c6c732063616e20626520667560448201526f373232b21030ba1031b932b0ba34b7b760811b6064820152608490fd5b346103315761190436614ca1565b6119116003548310614fc0565b81600052600060205260018060a01b038060056040600020015460081c163314908115611a19575b50156119c557428111156119835760207f5eaab1e293315c8744aba328675653e0756bb83edb8916fd1ccd83fedbd685f99183600052600c825280604060002055604051908152a2005b60405162461bcd60e51b815260206004820152601a602482015279446561646c696e65206d75737420626520696e2066757475726560301b6044820152606490fd5b60405162461bcd60e51b815260206004820152602660248201527f4f6e6c792063726561746f72206f72206f776e65722063616e2073657420646560448201526561646c696e6560d01b6064820152608490fd5b9050600080516020615ddf8339815191525416331483611939565b3461033157611a4236614f96565b611a526003939293548310614fc0565b81600052602060008152611a7060ff6005604060002001541661515a565b8260005260008152611a8b600460406000200154421061519b565b611a93615c13565b60018060a01b0390818516918260005260018252611ab860ff60406000205416615404565b8315611beb5791600080516020615e1f833981519152939185611b88948160005260008352611af28482600b604060002001541614615448565b611afe85303387615c43565b611b11611b0a86615127565b80966154a4565b9480151580611bde575b611b9f575b5050600052600081526006604060002001611b3c8482546150a8565b9055856000526000815260086040600020013360005281526040600020611b648482546150a8565b905585600052600281526040600020916000525260406000206116898282546150a8565b0390a36001600080516020615edf83398151915255005b81611bbe82600080516020615dbf833981519152946008541688615c9b565b6008541690611bd36040519283928d846154d3565b0390a2858880611b20565b5081600854161515611b1b565b60405162461bcd60e51b815260048101839052601d60248201527f416d6f756e74206d7573742062652067726561746572207468616e20300000006044820152606490fd5b3461033157611c3e36614ca1565b90611c4c6003548210614fc0565b80600052602060008152611c6a60ff6005604060002001541661515a565b8160005260008152611c85600460406000200154421061519b565b8160005260008152611ca060026040600020015484106151d8565b816000526000815260ff600b6040600020015460b81c16600281101561085157611dc9578160005260008152600960406000200133600052815260ff60406000205416611d95577f1abe610cf2bf87e57dcc1181fcf5ac0934e843d8344ab9eed6e86c799f62585e90826000526000815260096040600020013360005281526040600020600160ff198254161790558260005260008152611d71611d4b856003604060002001615258565b611d5a82548260031b1c615083565b825460001960039390931b92831b1916911b179055565b82600052600d81526040600020611d888154615083565b90556040519384523393a3005b6064906040519062461bcd60e51b82526004820152600d60248201526c105b1c9958591e481d9bdd1959609a1b6044820152fd5b6064906040519062461bcd60e51b825280600483015260248201527f55736520627579566f74657320666f722071756164726174696320706f6c6c736044820152fd5b3461033157602036600319011261033157600435600052600c6020526020604060002054604051908152f35b346103315760003660031901126103315760408051908101906001600160401b03821181831017610d33576113de9160405260058152640352e302e360dc1b6020820152604051918291602083526020830190614cd0565b3461033157602036600319011261033157600435600052600060205260406000208054611ebf60018301614ef1565b91600481015490611f8d60058201549160ff60018060a01b039160068101549282600783015416600b8301549482600c868860a01c1695015498611f166040519d8e9d8e6101a09181528160208201520190614cd0565b9a60408d0152868116151560608d015260081c1660808b015260a08a0152611f3d81614cc6565b60c0890152831660e0880152611f5281614cc6565b610100870152611f6b6101208701828460a81c16614d44565b611f7e6101408701828460b01c16614d44565b61016086019160b81c16614d51565b6101808301520390f35b3461033157602036600319011261033157600435611fb86003548210614fc0565b6000526000602052602060ff600b6040600020015460b81c16611fde6040518092614d51565bf35b3461033157602036600319011261033157600435600052600d6020526020604060002054604051908152f35b34610331576020806003193601126103315760043561202e6003548210614fc0565b806000526000825260018060a01b038060056040600020015460081c1633149081156121a3575b501561215257806000526000825260ff600b6040600020015460a81c16600681101561085157600114612114578060005260008252600b604060002001906120a560ff835460a81c1680936153c1565b600081815280845260409020600b01805460ff60a81b1916600160a81b179081905560a81c60ff166006811015610851576120f0908260005260008552156005604060002001615149565b600682101561085157600080516020615e5f833981519152600193604051428152a4005b60405162461bcd60e51b8152600481018390526016602482015275141bdb1b081a5cc8185b1c9958591e4818db1bdcd95960521b6044820152606490fd5b60405162461bcd60e51b8152600481018390526024808201527f4f6e6c792063726561746f72206f72206f776e65722063616e20636c6f7365206044820152631c1bdb1b60e21b6064820152608490fd5b9050600080516020615ddf8339815191525416331483612055565b3461033157600036600319011261033157600080516020615ddf833981519152546040516001600160a01b039091168152602090f35b34610331576000366003190112610331576020600754604051908152f35b3461033157602036600319011261033157600435600052600a6020526020604060002054604051908152f35b346103315760203660031901126103315760206122696004356122646003548210614fc0565b6153e5565b6040519015158152f35b346103315760203660031901126103315761228c614c75565b612294615bda565b600480546001600160a01b039283166001600160a01b0319821681179092559091167f2116cb6f3ebde8e13019bd5040ae80452bcbf4c007a1cd5d3825a992f25da27e600080a3005b3461033157600036600319011261033157600080516020615f1f8339815191528054604081901c60ff1615906001600160401b03811680159081612412575b6001149081612408575b1590816123ff575b506123ed576001600160401b031981166001178355816123d2575b50612352615d2c565b61235a615d2c565b61236333615541565b61236b615d2c565b612373615d2c565b6001600080516020615edf8339815191525561238d615d2c565b600060035561239857005b805460ff60401b19169055604051600181527fc7f505b2f371ae2175ee4913f4499e1f2633a7b5936321eed1cdaeb6115181d290602090a1005b6001600160481b0319166001600160401b0117825582612349565b60405163f92ee8a960e01b8152600490fd5b9050158461232e565b303b159150612326565b83915061231c565b346103315761242836614ca1565b90612431615bda565b8181101561259057600354821161254b575b81811061244c57005b806000526000602052604060002090600b8201805460ff808260a81c1694600680871015968761085157159687918215908199612533575b506124c3575b5050600501546001955016156124ae5750805461ffff60a81b191690555b01612443565b61ffff60a81b191660a884901b1790556124a8565b83600584015416809281612527575b508215612503575b505060019650806124fa575b6124f157878061248a565b505050506124a8565b508415156124e6565b15915081612518575b506001965088806124da565b9050610851576001958861250c565b9250600091508a6124d2565b9050848660b01c16908110156108515715158a612484565b60405162461bcd60e51b815260206004820152601f60248201527f456e6420706f6c6c204944206578636565647320746f74616c20706f6c6c73006044820152606490fd5b60405162461bcd60e51b815260206004820152600d60248201526c496e76616c69642072616e676560981b6044820152606490fd5b34610331576020366003190112610331576125de614c75565b6125e6615bda565b6001600160a01b0390811690811561263457600880546001600160a01b031981168417909155167ff3814cc4b6220f5bf02409e4cebe75e5032fdb20cef0db459431fd5cba574b93600080a3005b60405162461bcd60e51b8152602060048201526018602482015277496e76616c6964207472656173757279206164647265737360401b6044820152606490fd5b3461033157602036600319011261033157600435600052600b6020526020604060002054604051908152f35b34610331576000366003190112610331576126b9615bda565b600080516020615ddf83398151915280546001600160a01b031981169091556000906001600160a01b0316600080516020615e7f8339815191528280a3005b3461033157602080600319360112610331576004359061271b6003548310614fc0565b816000526000815260018060a01b038060056040600020015460081c1633149081156128ec575b501561289957816000526000815260ff600b6040600020015460a81c1660068110156108515760040361284b578160005260008152600b6127a0600460406000200154610e108110158061283e575b61279a9061537d565b426150a8565b8360005260008352604060002090600482015501906127c760ff835460a81c1680936153c1565b600083815280825260409020600b8101805460ff60a81b19169055600501805460ff1916600117905560068210156108515760007f10436d73e2f4f7ac1de5b6f996d0b6db0221c8973cbff40e9305d3d5b9c6c7129284600080516020615e5f83398151915284604051428152a4604051428152a2005b5062278d00811115612791565b6084906040519062461bcd60e51b82526004820152602160248201527f4f6e6c7920647261667420706f6c6c732063616e206265207075626c697368656044820152601960fa1b6064820152fd5b6084906040519062461bcd60e51b82526004820152602660248201527f4f6e6c792063726561746f72206f72206f776e65722063616e207075626c69736044820152651a081c1bdb1b60d21b6064820152fd5b9050600080516020615ddf8339815191525416331483612742565b346103315760203660031901126103315760043560005260096020526020604060002054604051908152f35b34610331576040366003190112610331576004356024356001600160401b03811161033157612966903690600401614d5e565b916129746003548210614fc0565b61297c615c13565b806000526020916000835260018060a01b036005604060002001548160089160081c1633148015612bba575b15612b775783600052600085526004604060002001544210612b3357816008541615612afb5760005b8681106129ec576001600080516020615edf83398151915255005b600190856000528560028089528986612a13612a0e866040600020948c615286565b615296565b16600052895260406000205480612a2e575b505050016129d1565b7ffda0b2aee927fcf07bfecbad93068eb15d9071032c0c164c68758f26f18f0dcd91836000528a528a87612a6b612a0e876040600020948d615286565b166000528a52600060408120558381888d8b82612a8c612a0e878585615286565b16612ada575050612ab29250600080809381938c54165af1612aac6152aa565b506152da565b612ac0612a0e858d8b615286565b612acf6040519283928361531c565b0390a2858980612a25565b612af694612aeb92612a0e92615286565b168989541690615c9b565b612ab2565b60405162461bcd60e51b815260048101869052601060248201526f151c99585cdd5c9e481b9bdd081cd95d60821b6044820152606490fd5b60405162461bcd60e51b815260048101869052601c60248201527b506f6c6c206d75737420626520656e64656420746f20646f6e61746560201b6044820152606490fd5b6064856040519062461bcd60e51b825280600483015260248201527f4f6e6c792063726561746f72206f72206f776e65722063616e20646f6e6174656044820152fd5b5081600080516020615ddf833981519152541633146129a8565b34610331576000366003190112610331576003546000805b828110612c725750612bfd90615337565b906000805b828110612c1f57604051602080825281906113de90820187614d10565b806000526000602052604060002060ff6005820154169081612c64575b50612c4a575b600101612c02565b90612c5c818361142260019488615369565b919050612c42565b600491500154421085612c3c565b806000526000602052604060002060ff6005820154169081612cb1575b50612c9d575b600101612bec565b90612ca9600191615083565b919050612c95565b600491500154421084612c8f565b3461033157606036600319011261033157600435612cdb614c5f565b6044356001600160401b03811161033157612cfa903690600401614d5e565b9092612d096003548210614fc0565b612d11615c13565b806000526020916000835260018060a01b038060056040600020015460081c1633148015612f10575b15612ec05782600052600084526004604060002001544210612e7b5760005b828110612d74576001600080516020615edf83398151915255005b6001908460005260028087528884612d95612a0e8589604060002095615286565b1660005287528585858a8c8b604060002054968888612dbe575b50505050505050505001612d59565b7f9467881c16409d70790ef2aa073424972ede02854453f7ff5036d66e860ee42f96612e5094612e4194612a0e948b600052815260406000209089612e07612a0e878787615286565b1660005252600060408120558a88612e23612a0e868686615286565b16612e61576000808080612e3c948c5af1612aac6152aa565b615286565b9560405193849316968361531c565b0390a3888585858a8c8b8688612daf565b612e3c90888a612e75612a0e888888615286565b16615c9b565b60405162461bcd60e51b815260048101859052601e60248201527f506f6c6c206d75737420626520656e64656420746f20776974686472617700006044820152606490fd5b60405162461bcd60e51b815260048101859052602260248201527f4f6e6c792063726561746f72206f72206f776e65722063616e20776974686472604482015261617760f01b6064820152608490fd5b5080600080516020615ddf83398151915254163314612d3a565b34610331576000366003190112610331576005546040516001600160a01b039091168152602090f35b346103315760a0366003190112610331576004356001600160401b03811161033157612f83903690600401614e03565b6024356001600160401b03811161033157612fa2903690600401614e38565b90612fab614c8b565b9060036084351015610331578051156134d057600283511061349357600a83511161345257610e10604435101580613443575b612fe79061537d565b6001600160a01b038216158015613421575b61300290615002565b6003549161300f83615083565b600355826000526000602052604060002093838555825160018060401b038111610d33576130406001870154614eb7565b601f81116133ec575b506020601f821160011461338057908061306a9260009161337557506155ba565b60018601555b8051600160401b8111610d335760028601548160028801558082106132fd575b506020820190600287016000526020600020916000905b8282106131f057505050506130bc9051615337565b80516003860195916001600160401b038211610d3357600160401b8211610d335760209087548389558084106131d3575b50019560005260206000209560005b8281106131bf57600584018054610100600160a81b0319163360081b610100600160a81b03161781556000600686015560078501805460ff19908116909155600b860180546001600160a01b0319166001600160a01b0389161781556020928a926004928492600080516020615ebf833981519152928d92918c916001906131866084358661505f565b845493613195604435426150a8565b990189905582541617905562ffffff60a81b191690556040805181815291610cef91830190614cd0565b60019060208351930192818a0155016130fc565b6131ea9089600052848460002091820191016155a3565b886130ed565b80518051906001600160401b038211610d335761320d8654614eb7565b601f81116132cb575b50602090601f831160011461325b5792613241836001959460209487966000926132505750506155ba565b87555b019401910190926130a7565b015190508f80610d94565b908660005260206000209160005b601f19851681106132b3575083602093600196938796938794601f1981161061329a575b505050811b018755613244565b015160001960f88460031b161c191690558e808061328d565b91926020600181928685015181550194019201613269565b6132f7908760005260206000206005601f8601811c82019260208710610e5857601f01901c01906155a3565b8b613216565b600287016000526020600020908282015b818301811061331e575050613090565b8061332b60019254614eb7565b80613338575b500161330e565b601f8111831461334e5750600081555b8a613331565b60009082825261336c601f60208420920160051c82018583016155a3565b81835555613348565b905085015188610b8f565b906001870160005260206000206000925b601f19831684106133d4576001935082601f198116106133bb575b5050811b016001860155613070565b86015160001960f88460031b161c1916905587806133ac565b86810151825560209384019360019092019101613391565b61341b90600188016000526020600020601f840160051c81019160208510610f8757601f0160051c01906155a3565b86613049565b506001600160a01b03821660009081526001602052604090205460ff16612ff9565b5062278d006044351115612fde565b60405162461bcd60e51b81526020600482015260256024820152600080516020615eff83398151915260448201526474696f6e7360d81b6064820152608490fd5b60405162461bcd60e51b81526020600482015260216024820152600080516020615e9f8339815191526044820152607360f81b6064820152608490fd5b60405162461bcd60e51b81526020600482015260186024820152775175657374696f6e2063616e6e6f7420626520656d70747960401b6044820152606490fd5b346103315760403660031901126103315760043561352c614c5f565b9061353a6003548210614fc0565b600052600260205260406000209060018060a01b03166000526020526020604060002054604051908152f35b346103315760208060031936011261033157600435906135896003548310614fc0565b816000526000815260018060a01b038060056040600020015460081c163314908115613749575b50156136f557816000526000815260ff600b6040600020015460a81c16600681101561085157600203613699578160005260008152600b6040600020019061360060ff835460a81c1680936153c1565b600083815280825260409020600b01805460ff60a81b1916600560a81b179081905560a81c60ff1660068110156108515761364b908460005260008352156005604060002001615149565b60068210156108515760057fe992bd2ee9f3c9a89bf16dcbadd0eab1f2b2bdedd79ee0bf255b586a5e35f9ac9284600080516020615e5f83398151915284604051428152a4604051428152a2005b6084906040519062461bcd60e51b82526004820152602f60248201527f506f6c6c206d75737420626520696e20464f525f434c41494d494e472073746160448201526e74757320746f2066696e616c697a6560881b6064820152fd5b6084906040519062461bcd60e51b82526004820152602760248201527f4f6e6c792063726561746f72206f72206f776e65722063616e2066696e616c696044820152661e99481c1bdb1b60ca1b6064820152fd5b9050600080516020615ddf83398151915254163314836135b0565b34610331576000366003190112610331577f00000000000000000000000000000000000000000000000000000000000000006001600160a01b031630036137bd576020604051600080516020615dff8339815191528152f35b60405163703e46dd60e11b8152600490fd5b34610331576040366003190112610331576004356137eb614c5f565b906137f96003548210614fc0565b600052600060205260086040600020019060018060a01b03166000526020526020604060002054604051908152f35b60403660031901126103315761383c614c75565b6024356001600160401b03811161033157366023820112156103315761386c903690602481600401359101614dcc565b906001600160a01b037f000000000000000000000000000000000000000000000000000000000000000081163081149081156139ef575b506137bd576138b0615bda565b8116906040516352d1902d60e01b8152602081600481865afa600091816139bb575b506138f057604051634c9c8ce360e01b815260048101849052602490fd5b600080516020615dff833981519152929192908181036139a35750823b1561398a5780546001600160a01b03191682179055604051907fbc7cd75a20ee27fd9adebab32041f755214dbc6bffa90cc0225b39da2e5c2d3b600080a2825115613971575060008083602061045795519101845af461396b6152aa565b91615d5b565b9150503461397b57005b63b398979f60e01b8152600490fd5b604051634c9c8ce360e01b815260048101839052602490fd5b60249060405190632a87526960e21b82526004820152fd5b9091506020813d6020116139e7575b816139d760209383614d8e565b81010312610331575190856138d2565b3d91506139ca565b905081600080516020615dff83398151915254161415846138a3565b346103315760603660031901126103315760043560243590604435613a336003548310614fc0565b8160005260209060008252613a5260ff6005604060002001541661515a565b8260005260008252613a6d600460406000200154421061519b565b8260005260008252613a8860026040600020015485106151d8565b613a90615c13565b826000526000825260406000209160ff600b84015460b81c166002811015610851576001613abe9114615215565b8115613c62576005546001600160a01b0390811693908415613c275760065416938415613bec5790600991613b11600d83019133600052828652613b07876040600020546150c8565b9788913390615c43565b3360005283526040600020613b278582546150a8565b9055613b49613b398860038401615258565b611d5a8783548360031b1c6150a8565b600c8101613b588582546150a8565b9055336000520181526040600020805460ff811615613bc2575b505060405194855284015260408301524260608301527f6120a7151a4abbbff162d5f92bb062f652dfa01d1b00cf31d10cfe8456ec3cdd60803393a36001600080516020615edf83398151915255005b60019060ff191617905583600052600d81526040600020613be38154615083565b90558580613b72565b60405162461bcd60e51b81526004810184905260136024820152721455881d1c99585cdd5c9e481b9bdd081cd95d606a1b6044820152606490fd5b60405162461bcd60e51b815260048101849052601360248201527214155314d1481d1bdad95b881b9bdd081cd95d606a1b6044820152606490fd5b6064906040519062461bcd60e51b8252600482015260186024820152774d75737420627579206174206c65617374203120766f746560401b6044820152fd5b346103315760003660031901126103315760206040516107d08152f35b3461033157602036600319011261033157600435613cdf6003548210614fc0565b60005260006020526020604060002060ff6005820154169081613d08575b506040519015158152f35b600491500154421082613cfd565b34610331576000366003190112610331576020600354604051908152f35b3461033157604036600319011261033157600435613d50614c5f565b90613d5e6003548210614fc0565b6000526000602052600d6040600020019060018060a01b03166000526020526020604060002054604051908152f35b34610331576000366003190112610331576020604051610e108152f35b3461033157608036600319011261033157613dc3614c5f565b6001600160401b039060443582811161033157613de4903690600401614d5e565b91909260643590811161033157613dff903690600401614d5e565b9190613e1060035460043510614fc0565b613e18615c13565b600435600052600060205260018060a01b0360056040600020015460081c16331480156142ed575b15614293576004356000526000602052600460406000200154421061423d576004356000526000602052600160ff60076040600020015416613e8181614cc6565b148015614214575b156141b457828403614176578315614132576000805b84811061411957506004356000526002602052604060002060018060a01b038416600052602052604060002054106140d757939291906000946000945b848610613f155786600435600052600b602052613eff60406000209182546150a8565b90556001600080516020615edf83398151915255005b909192939495613f26878685615286565b35156140ce576004356000526002602052604060002060018060a01b038516600052602052604060002054613f5c888786615286565b351161407b57613fb6600191613f73898887615286565b3560043560005260026020526040600020848060a01b038816600052602052613fa260406000209182546154a4565b9055613faf898887615286565b35906150a8565b96613fc5612a0e828986615286565b613fd0828887615286565b35838060a01b0387161560001461406557600080808093613ff5955af1612aac6152aa565b614003612a0e828986615286565b61400e828887615286565b3590604051918252838060a01b0387166020830152426040830152838060a01b0316907f40ff55f580dfcbbcdccf65c1e06700d124f4190644783eca909a23f5b37b65ca606060043592a35b019493929190613edc565b61407691848060a01b038816615c9b565b613ff5565b60405162461bcd60e51b815260206004820152602560248201527f496e73756666696369656e742062616c616e636520666f7220646973747269626044820152643aba34b7b760d91b6064820152608490fd5b9560019061405a565b60405162461bcd60e51b815260206004820152601a602482015279496e73756666696369656e7420746f6b656e2062616c616e636560301b6044820152606490fd5b9061412b600191613faf848887615286565b9101613e9f565b606460405162461bcd60e51b815260206004820152602060248201527f4d7573742068617665206174206c65617374206f6e6520726563697069656e746044820152fd5b60405162461bcd60e51b8152602060048201526016602482015275082e4e4c2f2e640d8cadccee8d040dad2e6dac2e8c6d60531b6044820152606490fd5b60405162461bcd60e51b815260206004820152603260248201527f446973747269627574696f6e206d6f6465206d757374206265204d414e55414c60448201527117d41554d2081bdc8810555513d35055115160721b6064820152608490fd5b506004356000526000602052600260ff6007604060002001541661423781614cc6565b14613e89565b60405162461bcd60e51b815260206004820152602860248201527f506f6c6c206d75737420626520656e64656420746f2064697374726962757465604482015267207265776172647360c01b6064820152608490fd5b60405162461bcd60e51b815260206004820152602c60248201527f4f6e6c792063726561746f72206f72206f776e65722063616e2064697374726960448201526b62757465207265776172647360a01b6064820152608490fd5b50600080516020615ddf833981519152546001600160a01b03163314613e40565b346103315760208060031936011261033157600435906143316003548310614fc0565b816000526000815260018060a01b038060056040600020015460081c16331490811561457f575b501561452d57816000526000815260ff600b6040600020015460a81c166006811015610851576003036144ea5781600052600081526004604060002001544210156144a957816000526000815260ff600b6040600020015460b01c1690600682101561085157600382146144a0575b8260005260008152600b604060002001916143ea60ff845460a81c1680946153c1565b8360005260008252600b604060002001600682101561085157805460ff60a81b8360a81b169060ff60a81b1916179055836000526000825260ff600b6040600020015460a81c16600681101561085157614454908560005260008452156005604060002001615149565b6006831015610851577f229fc85594800ec48ab3f1ef11b9275bbe2ef32ef63eac3ac3dabe23a548b4d59284600080516020615e5f83398151915284604051428152a4604051428152a2005b600091506143c7565b6064906040519062461bcd60e51b82526004820152601a60248201527910d85b9b9bdd081c995cdd5b5948195e1c1a5c9959081c1bdb1b60321b6044820152fd5b6064906040519062461bcd60e51b825280600483015260248201527f4f6e6c792070617573656420706f6c6c732063616e20626520726573756d65646044820152fd5b6084906040519062461bcd60e51b82526004820152602560248201527f4f6e6c792063726561746f72206f72206f776e65722063616e20726573756d65604482015264081c1bdb1b60da1b6064820152fd5b9050600080516020615ddf8339815191525416331483614358565b34610331576020366003190112610331576004356145bb6003548210614fc0565b6000526000602052604060002080546004820154600583015492600681015460ff60078301541690600b83015495600c840154936145fb60018201614ef1565b9060028101549161460b83614e21565b906146196040519283614d8e565b8382526020820193846002850160005260206000206000915b8383106147c657505050506040518093849160036020818401549283815201920160005260206000209060005b8181106147ad575050506146919291614679910385614d8e565b6040519a6101e0908c528060208d01528b0190614cd0565b9089820360408b015251808252602082019160208260051b82010194926000915b838310614780575050505050916146d88261477696948a809c97950360608c0152614d10565b608089019790975260ff8116151560a089015260081c6001600160a01b031660c088015260e087015261470a81614cc6565b6101008601526001600160a01b03811661012086015261473060a082901c60ff16614cc6565b60ff8160a01c16610140860152614751610160860160ff8360a81c16614d44565b614765610180860160ff8360b01c16614d44565b60ff6101a086019160b81c16614d51565b6101c08301520390f35b909192939560208061479e600193601f198682030187528a51614cd0565b980193019301919392906146b2565b825484528794506020909301926001928301920161465f565b6001602081926147d585614ef1565b815201920192019190614632565b34610331576040366003190112610331576004356024356003811015610331576148106003548310614fc0565b81600052600060205260018060a01b038060056040600020015460081c1633149081156148fc575b501561489f5760407febc8e2e3cc1c0ea11d2c53fea531218ede3b90bf14f750a73e457cbf95129d0a918360005260006020526007826000200161487b82614cc6565b60ff1981541660ff831617905581519061489481614cc6565b8152426020820152a2005b60405162461bcd60e51b815260206004820152602f60248201527f4f6e6c792063726561746f72206f72206f776e65722063616e2073657420646960448201526e73747269627574696f6e206d6f646560881b6064820152608490fd5b9050600080516020615ddf8339815191525416331483614838565b34610331576020366003190112610331576004356149386003548210614fc0565b6000526000602052602060ff600760406000200154166040519061495b81614cc6565b8152f35b346103315760203660031901126103315760043561497b615bda565b6107d081116149bd5760407fd347e206f25a89b917fc9482f1a2d294d749baa4dc9bde7fb495ee11fe49164391600754908060075582519182526020820152a1005b60405162461bcd60e51b81526020600482015260136024820152724665652065786365656473206d6178696d756d60681b6044820152606490fd5b3461033157604036600319011261033157614a11614c75565b6024359081151590818303610331577fef81a9943b96c8df4ef243401c9bf5159146166211356898b52d382086168d9291614a6e602092614a50615bda565b6001600160a01b031660008181526001855260409020909590615149565b604051908152a2005b34610331576020806003193601126103315760e090600435906003548210614a9e81614fc0565b82600052600082526006604060002001549260098352614acd604060002054600a8552604060002054906150b5565b81600052600d8452604060002054600b8552604060002054916002865260406000206000875260018060a01b03600b60406000200154166000528652614b2a6040600020549480600052600c885261226460406000205497614fc0565b9560405197885287015260408601526060850152608084015260a0830152151560c0820152f35b346103315760203660031901126103315760206103bc600435615127565b346103315760206103bc614b8236614ca1565b906150c8565b346103315760403660031901126103315760043560243560038110156103315761045791614bb4615bda565b614bc16003548210614fc0565b6000526000602052600b60406000200161505f565b3461033157604036600319011261033157600435614bf2614c5f565b614bfa615bda565b614c076003548310614fc0565b6001600160a01b03169081158015614c47575b614c2390615002565b6000908152602081905260409020600b0180546001600160a01b0319169091179055005b5060008281526001602052604090205460ff16614c1a565b602435906001600160a01b038216820361033157565b600435906001600160a01b038216820361033157565b606435906001600160a01b038216820361033157565b6040906003190112610331576004359060243590565b60c43590811515820361033157565b6003111561085157565b919082519283825260005b848110614cfc575050826000602080949584010152601f8019910116010190565b602081830181015184830182015201614cdb565b90815180825260208080930193019160005b828110614d30575050505090565b835185529381019392810192600101614d22565b9060068210156108515752565b9060028210156108515752565b9181601f84011215610331578235916001600160401b038311610331576020808501948460051b01011161033157565b601f909101601f19168101906001600160401b03821190821017610d3357604052565b6001600160401b038111610d3357601f01601f191660200190565b929192614dd882614db1565b91614de66040519384614d8e565b829481845281830111610331578281602093846000960137010152565b9080601f8301121561033157816020614e1e93359101614dcc565b90565b6001600160401b038111610d335760051b60200190565b81601f8201121561033157803591602091614e5284614e21565b93614e606040519586614d8e565b808552838086019160051b8301019280841161033157848301915b848310614e8b5750505050505090565b82356001600160401b038111610331578691614eac84848094890101614e03565b815201920191614e7b565b90600182811c92168015614ee7575b6020831014614ed157565b634e487b7160e01b600052602260045260246000fd5b91607f1691614ec6565b90604051918260008254614f0481614eb7565b90818452602094600191600181169081600014614f745750600114614f35575b505050614f3392500383614d8e565b565b600090815285812095935091905b818310614f5c575050614f339350820101388080614f24565b85548884018501529485019487945091830191614f43565b92505050614f3394925060ff191682840152151560051b820101388080614f24565b606090600319011261033157600435906024356001600160a01b0381168103610331579060443590565b15614fc757565b60405162461bcd60e51b8152602060048201526013602482015272141bdb1b08191bd95cc81b9bdd08195e1a5cdd606a1b6044820152606490fd5b1561500957565b60405162461bcd60e51b815260206004820152602860248201527f46756e64696e6720746f6b656e206d75737420626520455448206f72207768696044820152671d195b1a5cdd195960c21b6064820152608490fd5b9061506981614cc6565b815460ff60a01b191660a09190911b60ff60a01b16179055565b60001981146150925760010190565b634e487b7160e01b600052601160045260246000fd5b9190820180921161509257565b8181029291811591840414171561509257565b6000916001915b818311156150f757505050670de0b6b3a7640000908181029181830414901517156150925790565b90919261511a6151209161511461510e87866150a8565b806150b5565b906150a8565b93615083565b91906150cf565b600754908115615142576127109161513e916150b5565b0490565b5050600090565b9060ff801983541691151516179055565b1561516157565b60405162461bcd60e51b8152602060048201526012602482015271506f6c6c206973206e6f742061637469766560701b6044820152606490fd5b156151a257565b60405162461bcd60e51b815260206004820152600e60248201526d141bdb1b081a185cc8195b99195960921b6044820152606490fd5b156151df57565b60405162461bcd60e51b815260206004820152600e60248201526d24b73b30b634b21037b83a34b7b760911b6044820152606490fd5b1561521c57565b60405162461bcd60e51b8152602060048201526014602482015273139bdd0818481c5d58591c985d1a58c81c1bdb1b60621b6044820152606490fd5b80548210156152705760005260206000200190600090565b634e487b7160e01b600052603260045260246000fd5b91908110156152705760051b0190565b356001600160a01b03811681036103315790565b3d156152d5573d906152bb82614db1565b916152c96040519384614d8e565b82523d6000602084013e565b606090565b156152e157565b60405162461bcd60e51b8152602060048201526013602482015272115512081d1c985b9cd9995c8819985a5b1959606a1b6044820152606490fd5b6001600160a01b039091168152602081019190915260400190565b9061534182614e21565b61534e6040519182614d8e565b828152809261535f601f1991614e21565b0190602036910137565b80518210156152705760209160051b010190565b1561538457565b60405162461bcd60e51b815260206004820152601560248201527424b73b30b634b2103837b63610323ab930ba34b7b760591b6044820152606490fd5b90600681101561085157815460ff60b01b191660b09190911b60ff60b01b16179055565b600052600c60205260406000205480156153fe57421190565b50600090565b1561540b57565b60405162461bcd60e51b8152602060048201526015602482015274151bdad95b881b9bdd081dda1a5d195b1a5cdd1959605a1b6044820152606490fd5b1561544f57565b60405162461bcd60e51b815260206004820152602760248201527f5468697320706f6c6c206f6e6c7920616363657074732061207370656369666960448201526631903a37b5b2b760c91b6064820152608490fd5b9190820391821161509257565b6000815260208101919091526001600160a01b03909116604082015260600190565b6001600160a01b0391821681526020810192909252909116604082015260600190565b156154fd57565b60405162461bcd60e51b815260206004820152601c60248201527b141b185d199bdc9b48199959481d1c985b9cd9995c8819985a5b195960221b6044820152606490fd5b6001600160a01b0390811690811561558a57600080516020615ddf83398151915280546001600160a01b03198116841790915516600080516020615e7f833981519152600080a3565b604051631e4fbdf760e01b815260006004820152602490fd5b8181106155ae575050565b600081556001016155a3565b8160011b916000199060031b1c19161790565b949093918551156134d057600285511061349357600a85511161345257610e1081101580615bcd575b6155ff9061537d565b6001600160a01b0391848316158015615bb2575b61561c90615002565b60028110156108515760018114615ab6575b6003549761563b89615083565b600355886000526000602052604060002096898855885160018060401b038111610d335761566c60018a0154614eb7565b601f8111615a81575b506020601f8211600114615a1457908061569692600091615a0957506155ba565b60018901555b8051600160401b8111610d335760028901548160028b0155808210615991575b50602082019060028a016000526020600020916000905b82821061588f57505050506156e89051615337565b80519060038901906001600160401b038311610d3357600160401b8311610d33576020908254848455808510615872575b50908c9a9998979695949392910190600052602060002060005b83811061585b57505050600588018054610100600160a81b0319163360081b610100600160a81b0316178155600060068a015560078901805460ff19908116909155600b8a0180546001600160a01b03191697909916969096178855600080516020615ebf83398151915298600498909790969195919491939192506157b9908761505f565b855460ff60b81b19811660b89390931b60ff60b81b169283178755919015615828575050906157ea600192426150a8565b85870155825416179055805461ffff60a81b191690555b01549261581960405191604083526040830190614cd0565b9360208201528033940390a390565b86880192909255835490921690925562ff00ff60a81b191617600160aa1b1760ff60b01b1916600160b21b179055615801565b8251818301558d9b50602090920191600101615733565b6158899084600052858460002091820191016155a3565b38615719565b80518051906001600160401b038211610d33576158ac8654614eb7565b601f811161595f575b50602090601f83116001146158ef57926158e083600195946020948796600092610daa5750506155ba565b87555b019401910190926156d3565b908660005260206000209160005b601f1985168110615947575083602093600196938796938794601f1981161061592e575b505050811b0187556158e3565b015160001960f88460031b161c19169055388080615921565b919260206001819286850151815501940192016158fd565b61598b908760005260206000206005601f8601811c82019260208710610e5857601f01901c01906155a3565b386158b5565b60028a016000526020600020908282015b81830181106159b25750506156bc565b806159bf60019254614eb7565b806159cc575b50016159a2565b601f811183146159e25750600081555b386159c5565b600090828252615a00601f60208420920160051c82018583016155a3565b818355556159dc565b90508b015138610b8f565b9060018a0160005260206000206000925b8c601f1984168510615a6a57506001935082601f19811610615a51575b5050811b01600189015561569c565b8c015160001960f88460031b161c191690553880615a42565b810151825560209384019360019092019101615a25565b615ab09060018b016000526020600020601f840160051c81019160208510610f8757601f0160051c01906155a3565b38615675565b82600454168015615b7257602060249160405192838092630e76e53360e41b82523360048301525afa90811561104557600091615b30575b5061562e5760405162461bcd60e51b81526020600482015260216024820152600080516020615e3f8339815191526044820152606d60f81b6064820152608490fd5b6020813d602011615b6a575b81615b4960209383614d8e565b81010312615b665751908115158203615b63575038615aee565b80fd5b5080fd5b3d9150615b3c565b60405162461bcd60e51b8152602060048201526018602482015277141c995b5a5d5b4818dbdb9d1c9858dd081b9bdd081cd95d60421b6044820152606490fd5b5084831660009081526001602052604090205460ff16615613565b5062278d008111156155f6565b600080516020615ddf833981519152546001600160a01b03163303615bfb57565b60405163118cdaa760e01b8152336004820152602490fd5b600080516020615edf8339815191526002815414615c315760029055565b604051633ee5aeb560e01b8152600490fd5b6040516323b872dd60e01b60208201526001600160a01b03928316602482015292909116604483015260648083019390935291815260a08101918183106001600160401b03841117610d3357614f3392604052615cd0565b615cd0614f339392615cc260405194859263a9059cbb60e01b60208501526024840161531c565b03601f198101845283614d8e565b906000602091828151910182855af115611045576000513d615d2357506001600160a01b0381163b155b615d015750565b604051635274afe760e01b81526001600160a01b039091166004820152602490fd5b60011415615cfa565b60ff600080516020615f1f8339815191525460401c1615615d4957565b604051631afcd79f60e31b8152600490fd5b90615d825750805115615d7057602081519101fd5b60405163d6bda27560e01b8152600490fd5b81511580615db5575b615d93575090565b604051639996b31560e01b81526001600160a01b039091166004820152602490fd5b50803b15615d8b56fe08598a13ecc389f337a1d3d328285b1a0c0775752c2068a18ef2d00f2be415cc9016d09d72d40fdae2fd8ceac6b6234c7706214fd39c1cd1e609a0528c199300360894a13ba1a3210667c828492db98dca3e2076cc3735a920a3ca505d382bbc3e231b10c827a2698b8e84aa3d395d37d5620225e01463563fd196b02ef77ec451756164726174696320766f74696e67207265717569726573207072656d69750e3da9f587b3fa2df2f1db3bde132c95d4065333c6197afe541940b11b5173028be0079c531659141344cd1fd0a4f28419497f9722a3daafe3b4186f6b6457e0506f6c6c206d7573742068617665206174206c656173742032206f7074696f6e9dbafd4116dcead87280b4bad16e92c851a647fbf87a77e05cf6b29c8fcdc33c9b779b17422d0df92223018b32b4d1fa46e071723d6817e2486d003becc55f00506f6c6c2063616e6e6f742068617665206d6f7265207468616e203130206f70f0c57e16840df040f15088dc2f81fe391c3923bec73e23a9662efc9c229c6a00a2646970667358221220b15bdd192fe299da65344858ba0aa46a0f82c5b3b167e64c2f8ad4be151a6c4d64736f6c63430008160033",
  "linkReferences": {},
  "deployedLinkReferences": {}
}